{
	"Project/FundMe.sol": {
		"FundMe": {
			"abi": [
				{
					"inputs": [],
					"name": "fund",
					"outputs": [],
					"stateMutability": "payable",
					"type": "function"
				},
				{
					"inputs": [],
					"name": "getPrice",
					"outputs": [
						{
							"internalType": "uint256",
							"name": "",
							"type": "uint256"
						}
					],
					"stateMutability": "view",
					"type": "function"
				},
				{
					"inputs": [],
					"name": "getVersion",
					"outputs": [
						{
							"internalType": "uint256",
							"name": "",
							"type": "uint256"
						}
					],
					"stateMutability": "view",
					"type": "function"
				},
				{
					"inputs": [],
					"name": "miniUSD",
					"outputs": [
						{
							"internalType": "uint256",
							"name": "",
							"type": "uint256"
						}
					],
					"stateMutability": "view",
					"type": "function"
				},
				{
					"inputs": [],
					"name": "myValue",
					"outputs": [
						{
							"internalType": "uint256",
							"name": "",
							"type": "uint256"
						}
					],
					"stateMutability": "view",
					"type": "function"
				},
				{
					"inputs": [
						{
							"internalType": "uint256",
							"name": "ethamount",
							"type": "uint256"
						}
					],
					"name": "priceConverter",
					"outputs": [
						{
							"internalType": "uint256",
							"name": "",
							"type": "uint256"
						}
					],
					"stateMutability": "view",
					"type": "function"
				},
				{
					"inputs": [],
					"name": "withdraw",
					"outputs": [],
					"stateMutability": "nonpayable",
					"type": "function"
				}
			],
			"devdoc": {
				"kind": "dev",
				"methods": {},
				"version": 1
			},
			"evm": {
				"assembly": "    /* \"Project/FundMe.sol\":836:2149  contract FundMe{ ... */\n  mstore(0x40, 0x80)\n    /* \"Project/FundMe.sol\":884:885  1 */\n  0x01\n    /* \"Project/FundMe.sol\":859:885  uint256 public myValue = 1 */\n  0x00\n  sstore\n    /* \"Project/FundMe.sol\":916:920  5e18 */\n  0x4563918244f40000\n    /* \"Project/FundMe.sol\":891:920  uint256 public miniUSD = 5e18 */\n  0x01\n  sstore\n    /* \"Project/FundMe.sol\":836:2149  contract FundMe{ ... */\n  callvalue\n  dup1\n  iszero\n  tag_1\n  jumpi\n  revert(0x00, 0x00)\ntag_1:\n  pop\n  dataSize(sub_0)\n  dup1\n  dataOffset(sub_0)\n  0x00\n  codecopy\n  0x00\n  return\nstop\n\nsub_0: assembly {\n        /* \"Project/FundMe.sol\":836:2149  contract FundMe{ ... */\n      mstore(0x40, 0x80)\n      jumpi(tag_1, lt(calldatasize, 0x04))\n      shr(0xe0, calldataload(0x00))\n      dup1\n      0x73cef391\n      gt\n      tag_9\n      jumpi\n      dup1\n      0x73cef391\n      eq\n      tag_5\n      jumpi\n      dup1\n      0x98d5fdca\n      eq\n      tag_6\n      jumpi\n      dup1\n      0xb60d4288\n      eq\n      tag_7\n      jumpi\n      dup1\n      0xf0306623\n      eq\n      tag_8\n      jumpi\n      jump(tag_1)\n    tag_9:\n      dup1\n      0x0d8e6e2c\n      eq\n      tag_2\n      jumpi\n      dup1\n      0x3ccfd60b\n      eq\n      tag_3\n      jumpi\n      dup1\n      0x47f1aae7\n      eq\n      tag_4\n      jumpi\n    tag_1:\n      revert(0x00, 0x00)\n        /* \"Project/FundMe.sol\":1953:2108  function getVersion() public view returns (uint256)... */\n    tag_2:\n      callvalue\n      dup1\n      iszero\n      tag_10\n      jumpi\n      revert(0x00, 0x00)\n    tag_10:\n      pop\n      tag_11\n      tag_12\n      jump\t// in\n    tag_11:\n      mload(0x40)\n      tag_13\n      swap2\n      swap1\n      tag_14\n      jump\t// in\n    tag_13:\n      mload(0x40)\n      dup1\n      swap2\n      sub\n      swap1\n      return\n        /* \"Project/FundMe.sol\":2113:2147  function withdraw() public{... */\n    tag_3:\n      callvalue\n      dup1\n      iszero\n      tag_15\n      jumpi\n      revert(0x00, 0x00)\n    tag_15:\n      pop\n      tag_16\n      tag_17\n      jump\t// in\n    tag_16:\n      stop\n        /* \"Project/FundMe.sol\":859:885  uint256 public myValue = 1 */\n    tag_4:\n      callvalue\n      dup1\n      iszero\n      tag_18\n      jumpi\n      revert(0x00, 0x00)\n    tag_18:\n      pop\n      tag_19\n      tag_20\n      jump\t// in\n    tag_19:\n      mload(0x40)\n      tag_21\n      swap2\n      swap1\n      tag_14\n      jump\t// in\n    tag_21:\n      mload(0x40)\n      dup1\n      swap2\n      sub\n      swap1\n      return\n        /* \"Project/FundMe.sol\":891:920  uint256 public miniUSD = 5e18 */\n    tag_5:\n      callvalue\n      dup1\n      iszero\n      tag_22\n      jumpi\n      revert(0x00, 0x00)\n    tag_22:\n      pop\n      tag_23\n      tag_24\n      jump\t// in\n    tag_23:\n      mload(0x40)\n      tag_25\n      swap2\n      swap1\n      tag_14\n      jump\t// in\n    tag_25:\n      mload(0x40)\n      dup1\n      swap2\n      sub\n      swap1\n      return\n        /* \"Project/FundMe.sol\":1354:1733  function getPrice() public view returns(uint256){... */\n    tag_6:\n      callvalue\n      dup1\n      iszero\n      tag_26\n      jumpi\n      revert(0x00, 0x00)\n    tag_26:\n      pop\n      tag_27\n      tag_28\n      jump\t// in\n    tag_27:\n      mload(0x40)\n      tag_29\n      swap2\n      swap1\n      tag_14\n      jump\t// in\n    tag_29:\n      mload(0x40)\n      dup1\n      swap2\n      sub\n      swap1\n      return\n        /* \"Project/FundMe.sol\":933:1349  function fund() public payable {... */\n    tag_7:\n      tag_30\n      tag_31\n      jump\t// in\n    tag_30:\n      stop\n        /* \"Project/FundMe.sol\":1739:1947  function priceConverter(uint256 ethamount) public view returns(uint256){... */\n    tag_8:\n      callvalue\n      dup1\n      iszero\n      tag_32\n      jumpi\n      revert(0x00, 0x00)\n    tag_32:\n      pop\n      tag_33\n      0x04\n      dup1\n      calldatasize\n      sub\n      dup2\n      add\n      swap1\n      tag_34\n      swap2\n      swap1\n      tag_35\n      jump\t// in\n    tag_34:\n      tag_36\n      jump\t// in\n    tag_33:\n      mload(0x40)\n      tag_37\n      swap2\n      swap1\n      tag_14\n      jump\t// in\n    tag_37:\n      mload(0x40)\n      dup1\n      swap2\n      sub\n      swap1\n      return\n        /* \"Project/FundMe.sol\":1953:2108  function getVersion() public view returns (uint256)... */\n    tag_12:\n        /* \"Project/FundMe.sol\":1996:2003  uint256 */\n      0x00\n        /* \"Project/FundMe.sol\":2048:2090  0x694AA1769357215DE4FAC081bf1f309aDC325306 */\n      0x694aa1769357215de4fac081bf1f309adc325306\n        /* \"Project/FundMe.sol\":2026:2099  AggregatorV3Interface(0x694AA1769357215DE4FAC081bf1f309aDC325306).version */\n      0xffffffffffffffffffffffffffffffffffffffff\n      and\n      0x54fd4d50\n        /* \"Project/FundMe.sol\":2026:2101  AggregatorV3Interface(0x694AA1769357215DE4FAC081bf1f309aDC325306).version() */\n      mload(0x40)\n      dup2\n      0xffffffff\n      and\n      0xe0\n      shl\n      dup2\n      mstore\n      0x04\n      add\n      0x20\n      mload(0x40)\n      dup1\n      dup4\n      sub\n      dup2\n      dup7\n      gas\n      staticcall\n      iszero\n      dup1\n      iszero\n      tag_40\n      jumpi\n      returndatacopy(0x00, 0x00, returndatasize)\n      revert(0x00, returndatasize)\n    tag_40:\n      pop\n      pop\n      pop\n      pop\n      mload(0x40)\n      returndatasize\n      not(0x1f)\n      0x1f\n      dup3\n      add\n      and\n      dup3\n      add\n      dup1\n      0x40\n      mstore\n      pop\n      dup2\n      add\n      swap1\n      tag_41\n      swap2\n      swap1\n      tag_42\n      jump\t// in\n    tag_41:\n        /* \"Project/FundMe.sol\":2019:2101  return AggregatorV3Interface(0x694AA1769357215DE4FAC081bf1f309aDC325306).version() */\n      swap1\n      pop\n        /* \"Project/FundMe.sol\":1953:2108  function getVersion() public view returns (uint256)... */\n      swap1\n      jump\t// out\n        /* \"Project/FundMe.sol\":2113:2147  function withdraw() public{... */\n    tag_17:\n      jump\t// out\n        /* \"Project/FundMe.sol\":859:885  uint256 public myValue = 1 */\n    tag_20:\n      sload(0x00)\n      dup2\n      jump\t// out\n        /* \"Project/FundMe.sol\":891:920  uint256 public miniUSD = 5e18 */\n    tag_24:\n      sload(0x01)\n      dup2\n      jump\t// out\n        /* \"Project/FundMe.sol\":1354:1733  function getPrice() public view returns(uint256){... */\n    tag_28:\n        /* \"Project/FundMe.sol\":1394:1401  uint256 */\n      0x00\n        /* \"Project/FundMe.sol\":1493:1524  AggregatorV3Interface priceFeed */\n      0x00\n        /* \"Project/FundMe.sol\":1549:1591  0x694AA1769357215DE4FAC081bf1f309aDC325306 */\n      0x694aa1769357215de4fac081bf1f309adc325306\n        /* \"Project/FundMe.sol\":1493:1592  AggregatorV3Interface priceFeed = AggregatorV3Interface(0x694AA1769357215DE4FAC081bf1f309aDC325306) */\n      swap1\n      pop\n        /* \"Project/FundMe.sol\":1604:1616  int256 price */\n      0x00\n        /* \"Project/FundMe.sol\":1621:1630  priceFeed */\n      dup2\n        /* \"Project/FundMe.sol\":1621:1646  priceFeed.latestRoundData */\n      0xffffffffffffffffffffffffffffffffffffffff\n      and\n      0xfeaf968c\n        /* \"Project/FundMe.sol\":1621:1648  priceFeed.latestRoundData() */\n      mload(0x40)\n      dup2\n      0xffffffff\n      and\n      0xe0\n      shl\n      dup2\n      mstore\n      0x04\n      add\n      0xa0\n      mload(0x40)\n      dup1\n      dup4\n      sub\n      dup2\n      dup7\n      gas\n      staticcall\n      iszero\n      dup1\n      iszero\n      tag_46\n      jumpi\n      returndatacopy(0x00, 0x00, returndatasize)\n      revert(0x00, returndatasize)\n    tag_46:\n      pop\n      pop\n      pop\n      pop\n      mload(0x40)\n      returndatasize\n      not(0x1f)\n      0x1f\n      dup3\n      add\n      and\n      dup3\n      add\n      dup1\n      0x40\n      mstore\n      pop\n      dup2\n      add\n      swap1\n      tag_47\n      swap2\n      swap1\n      tag_48\n      jump\t// in\n    tag_47:\n        /* \"Project/FundMe.sol\":1602:1648  (,int256 price,,,)=priceFeed.latestRoundData() */\n      pop\n      pop\n      pop\n      swap2\n      pop\n      pop\n        /* \"Project/FundMe.sol\":1721:1725  1e10 */\n      0x02540be400\n        /* \"Project/FundMe.sol\":1715:1720  price */\n      dup2\n        /* \"Project/FundMe.sol\":1715:1725  price*1e10 */\n      tag_49\n      swap2\n      swap1\n      tag_50\n      jump\t// in\n    tag_49:\n        /* \"Project/FundMe.sol\":1698:1726  return (uint256)(price*1e10) */\n      swap3\n      pop\n      pop\n      pop\n        /* \"Project/FundMe.sol\":1354:1733  function getPrice() public view returns(uint256){... */\n      swap1\n      jump\t// out\n        /* \"Project/FundMe.sol\":933:1349  function fund() public payable {... */\n    tag_31:\n        /* \"Project/FundMe.sol\":1061:1062  2 */\n      0x02\n        /* \"Project/FundMe.sol\":1050:1057  myValue */\n      0x00\n      0x00\n        /* \"Project/FundMe.sol\":1050:1062  myValue += 2 */\n      dup3\n      dup3\n      sload\n      tag_52\n      swap2\n      swap1\n      tag_53\n      jump\t// in\n    tag_52:\n      swap3\n      pop\n      pop\n      dup2\n      swap1\n      sstore\n      pop\n        /* \"Project/FundMe.sol\":1298:1305  miniUSD */\n      sload(0x01)\n        /* \"Project/FundMe.sol\":1271:1296  priceConverter(msg.value) */\n      tag_54\n        /* \"Project/FundMe.sol\":1286:1295  msg.value */\n      callvalue\n        /* \"Project/FundMe.sol\":1271:1285  priceConverter */\n      tag_36\n        /* \"Project/FundMe.sol\":1271:1296  priceConverter(msg.value) */\n      jump\t// in\n    tag_54:\n        /* \"Project/FundMe.sol\":1271:1305  priceConverter(msg.value)>=miniUSD */\n      lt\n      iszero\n        /* \"Project/FundMe.sol\":1263:1331  require(priceConverter(msg.value)>=miniUSD,\"Didn't send enough eth\") */\n      tag_55\n      jumpi\n      mload(0x40)\n      0x08c379a000000000000000000000000000000000000000000000000000000000\n      dup2\n      mstore\n      0x04\n      add\n      tag_56\n      swap1\n      tag_57\n      jump\t// in\n    tag_56:\n      mload(0x40)\n      dup1\n      swap2\n      sub\n      swap1\n      revert\n    tag_55:\n        /* \"Project/FundMe.sol\":933:1349  function fund() public payable {... */\n      jump\t// out\n        /* \"Project/FundMe.sol\":1739:1947  function priceConverter(uint256 ethamount) public view returns(uint256){... */\n    tag_36:\n        /* \"Project/FundMe.sol\":1802:1809  uint256 */\n      0x00\n        /* \"Project/FundMe.sol\":1820:1836  uint256 ethPrice */\n      0x00\n        /* \"Project/FundMe.sol\":1839:1849  getPrice() */\n      tag_59\n        /* \"Project/FundMe.sol\":1839:1847  getPrice */\n      tag_28\n        /* \"Project/FundMe.sol\":1839:1849  getPrice() */\n      jump\t// in\n    tag_59:\n        /* \"Project/FundMe.sol\":1820:1849  uint256 ethPrice = getPrice() */\n      swap1\n      pop\n        /* \"Project/FundMe.sol\":1859:1881  uint256 ethAmountInUsd */\n      0x00\n        /* \"Project/FundMe.sol\":1905:1909  1e18 */\n      0x0de0b6b3a7640000\n        /* \"Project/FundMe.sol\":1894:1903  ethamount */\n      dup5\n        /* \"Project/FundMe.sol\":1885:1893  ethPrice */\n      dup4\n        /* \"Project/FundMe.sol\":1885:1903  ethPrice*ethamount */\n      tag_60\n      swap2\n      swap1\n      tag_61\n      jump\t// in\n    tag_60:\n        /* \"Project/FundMe.sol\":1884:1909  (ethPrice*ethamount)/1e18 */\n      tag_62\n      swap2\n      swap1\n      tag_63\n      jump\t// in\n    tag_62:\n        /* \"Project/FundMe.sol\":1859:1909  uint256 ethAmountInUsd = (ethPrice*ethamount)/1e18 */\n      swap1\n      pop\n        /* \"Project/FundMe.sol\":1926:1940  ethAmountInUsd */\n      dup1\n        /* \"Project/FundMe.sol\":1919:1940  return ethAmountInUsd */\n      swap3\n      pop\n      pop\n      pop\n        /* \"Project/FundMe.sol\":1739:1947  function priceConverter(uint256 ethamount) public view returns(uint256){... */\n      swap2\n      swap1\n      pop\n      jump\t// out\n        /* \"#utility.yul\":7:84   */\n    tag_64:\n        /* \"#utility.yul\":44:51   */\n      0x00\n        /* \"#utility.yul\":73:78   */\n      dup2\n        /* \"#utility.yul\":62:78   */\n      swap1\n      pop\n        /* \"#utility.yul\":7:84   */\n      swap2\n      swap1\n      pop\n      jump\t// out\n        /* \"#utility.yul\":90:208   */\n    tag_65:\n        /* \"#utility.yul\":177:201   */\n      tag_86\n        /* \"#utility.yul\":195:200   */\n      dup2\n        /* \"#utility.yul\":177:201   */\n      tag_64\n      jump\t// in\n    tag_86:\n        /* \"#utility.yul\":172:175   */\n      dup3\n        /* \"#utility.yul\":165:202   */\n      mstore\n        /* \"#utility.yul\":90:208   */\n      pop\n      pop\n      jump\t// out\n        /* \"#utility.yul\":214:436   */\n    tag_14:\n        /* \"#utility.yul\":307:311   */\n      0x00\n        /* \"#utility.yul\":345:347   */\n      0x20\n        /* \"#utility.yul\":334:343   */\n      dup3\n        /* \"#utility.yul\":330:348   */\n      add\n        /* \"#utility.yul\":322:348   */\n      swap1\n      pop\n        /* \"#utility.yul\":358:429   */\n      tag_88\n        /* \"#utility.yul\":426:427   */\n      0x00\n        /* \"#utility.yul\":415:424   */\n      dup4\n        /* \"#utility.yul\":411:428   */\n      add\n        /* \"#utility.yul\":402:408   */\n      dup5\n        /* \"#utility.yul\":358:429   */\n      tag_65\n      jump\t// in\n    tag_88:\n        /* \"#utility.yul\":214:436   */\n      swap3\n      swap2\n      pop\n      pop\n      jump\t// out\n        /* \"#utility.yul\":523:640   */\n    tag_67:\n        /* \"#utility.yul\":632:633   */\n      0x00\n        /* \"#utility.yul\":629:630   */\n      0x00\n        /* \"#utility.yul\":622:634   */\n      revert\n        /* \"#utility.yul\":769:891   */\n    tag_69:\n        /* \"#utility.yul\":842:866   */\n      tag_93\n        /* \"#utility.yul\":860:865   */\n      dup2\n        /* \"#utility.yul\":842:866   */\n      tag_64\n      jump\t// in\n    tag_93:\n        /* \"#utility.yul\":835:840   */\n      dup2\n        /* \"#utility.yul\":832:867   */\n      eq\n        /* \"#utility.yul\":822:885   */\n      tag_94\n      jumpi\n        /* \"#utility.yul\":881:882   */\n      0x00\n        /* \"#utility.yul\":878:879   */\n      0x00\n        /* \"#utility.yul\":871:883   */\n      revert\n        /* \"#utility.yul\":822:885   */\n    tag_94:\n        /* \"#utility.yul\":769:891   */\n      pop\n      jump\t// out\n        /* \"#utility.yul\":897:1036   */\n    tag_70:\n        /* \"#utility.yul\":943:948   */\n      0x00\n        /* \"#utility.yul\":981:987   */\n      dup2\n        /* \"#utility.yul\":968:988   */\n      calldataload\n        /* \"#utility.yul\":959:988   */\n      swap1\n      pop\n        /* \"#utility.yul\":997:1030   */\n      tag_96\n        /* \"#utility.yul\":1024:1029   */\n      dup2\n        /* \"#utility.yul\":997:1030   */\n      tag_69\n      jump\t// in\n    tag_96:\n        /* \"#utility.yul\":897:1036   */\n      swap3\n      swap2\n      pop\n      pop\n      jump\t// out\n        /* \"#utility.yul\":1042:1371   */\n    tag_35:\n        /* \"#utility.yul\":1101:1107   */\n      0x00\n        /* \"#utility.yul\":1150:1152   */\n      0x20\n        /* \"#utility.yul\":1138:1147   */\n      dup3\n        /* \"#utility.yul\":1129:1136   */\n      dup5\n        /* \"#utility.yul\":1125:1148   */\n      sub\n        /* \"#utility.yul\":1121:1153   */\n      slt\n        /* \"#utility.yul\":1118:1237   */\n      iszero\n      tag_98\n      jumpi\n        /* \"#utility.yul\":1156:1235   */\n      tag_99\n      tag_67\n      jump\t// in\n    tag_99:\n        /* \"#utility.yul\":1118:1237   */\n    tag_98:\n        /* \"#utility.yul\":1276:1277   */\n      0x00\n        /* \"#utility.yul\":1301:1354   */\n      tag_100\n        /* \"#utility.yul\":1346:1353   */\n      dup5\n        /* \"#utility.yul\":1337:1343   */\n      dup3\n        /* \"#utility.yul\":1326:1335   */\n      dup6\n        /* \"#utility.yul\":1322:1344   */\n      add\n        /* \"#utility.yul\":1301:1354   */\n      tag_70\n      jump\t// in\n    tag_100:\n        /* \"#utility.yul\":1291:1354   */\n      swap2\n      pop\n        /* \"#utility.yul\":1247:1364   */\n      pop\n        /* \"#utility.yul\":1042:1371   */\n      swap3\n      swap2\n      pop\n      pop\n      jump\t// out\n        /* \"#utility.yul\":1377:1520   */\n    tag_71:\n        /* \"#utility.yul\":1434:1439   */\n      0x00\n        /* \"#utility.yul\":1465:1471   */\n      dup2\n        /* \"#utility.yul\":1459:1472   */\n      mload\n        /* \"#utility.yul\":1450:1472   */\n      swap1\n      pop\n        /* \"#utility.yul\":1481:1514   */\n      tag_102\n        /* \"#utility.yul\":1508:1513   */\n      dup2\n        /* \"#utility.yul\":1481:1514   */\n      tag_69\n      jump\t// in\n    tag_102:\n        /* \"#utility.yul\":1377:1520   */\n      swap3\n      swap2\n      pop\n      pop\n      jump\t// out\n        /* \"#utility.yul\":1526:1877   */\n    tag_42:\n        /* \"#utility.yul\":1596:1602   */\n      0x00\n        /* \"#utility.yul\":1645:1647   */\n      0x20\n        /* \"#utility.yul\":1633:1642   */\n      dup3\n        /* \"#utility.yul\":1624:1631   */\n      dup5\n        /* \"#utility.yul\":1620:1643   */\n      sub\n        /* \"#utility.yul\":1616:1648   */\n      slt\n        /* \"#utility.yul\":1613:1732   */\n      iszero\n      tag_104\n      jumpi\n        /* \"#utility.yul\":1651:1730   */\n      tag_105\n      tag_67\n      jump\t// in\n    tag_105:\n        /* \"#utility.yul\":1613:1732   */\n    tag_104:\n        /* \"#utility.yul\":1771:1772   */\n      0x00\n        /* \"#utility.yul\":1796:1860   */\n      tag_106\n        /* \"#utility.yul\":1852:1859   */\n      dup5\n        /* \"#utility.yul\":1843:1849   */\n      dup3\n        /* \"#utility.yul\":1832:1841   */\n      dup6\n        /* \"#utility.yul\":1828:1850   */\n      add\n        /* \"#utility.yul\":1796:1860   */\n      tag_71\n      jump\t// in\n    tag_106:\n        /* \"#utility.yul\":1786:1860   */\n      swap2\n      pop\n        /* \"#utility.yul\":1742:1870   */\n      pop\n        /* \"#utility.yul\":1526:1877   */\n      swap3\n      swap2\n      pop\n      pop\n      jump\t// out\n        /* \"#utility.yul\":1883:1988   */\n    tag_72:\n        /* \"#utility.yul\":1919:1926   */\n      0x00\n        /* \"#utility.yul\":1959:1981   */\n      0xffffffffffffffffffff\n        /* \"#utility.yul\":1952:1957   */\n      dup3\n        /* \"#utility.yul\":1948:1982   */\n      and\n        /* \"#utility.yul\":1937:1982   */\n      swap1\n      pop\n        /* \"#utility.yul\":1883:1988   */\n      swap2\n      swap1\n      pop\n      jump\t// out\n        /* \"#utility.yul\":1994:2114   */\n    tag_73:\n        /* \"#utility.yul\":2066:2089   */\n      tag_109\n        /* \"#utility.yul\":2083:2088   */\n      dup2\n        /* \"#utility.yul\":2066:2089   */\n      tag_72\n      jump\t// in\n    tag_109:\n        /* \"#utility.yul\":2059:2064   */\n      dup2\n        /* \"#utility.yul\":2056:2090   */\n      eq\n        /* \"#utility.yul\":2046:2108   */\n      tag_110\n      jumpi\n        /* \"#utility.yul\":2104:2105   */\n      0x00\n        /* \"#utility.yul\":2101:2102   */\n      0x00\n        /* \"#utility.yul\":2094:2106   */\n      revert\n        /* \"#utility.yul\":2046:2108   */\n    tag_110:\n        /* \"#utility.yul\":1994:2114   */\n      pop\n      jump\t// out\n        /* \"#utility.yul\":2120:2261   */\n    tag_74:\n        /* \"#utility.yul\":2176:2181   */\n      0x00\n        /* \"#utility.yul\":2207:2213   */\n      dup2\n        /* \"#utility.yul\":2201:2214   */\n      mload\n        /* \"#utility.yul\":2192:2214   */\n      swap1\n      pop\n        /* \"#utility.yul\":2223:2255   */\n      tag_112\n        /* \"#utility.yul\":2249:2254   */\n      dup2\n        /* \"#utility.yul\":2223:2255   */\n      tag_73\n      jump\t// in\n    tag_112:\n        /* \"#utility.yul\":2120:2261   */\n      swap3\n      swap2\n      pop\n      pop\n      jump\t// out\n        /* \"#utility.yul\":2267:2343   */\n    tag_75:\n        /* \"#utility.yul\":2303:2310   */\n      0x00\n        /* \"#utility.yul\":2332:2337   */\n      dup2\n        /* \"#utility.yul\":2321:2337   */\n      swap1\n      pop\n        /* \"#utility.yul\":2267:2343   */\n      swap2\n      swap1\n      pop\n      jump\t// out\n        /* \"#utility.yul\":2349:2469   */\n    tag_76:\n        /* \"#utility.yul\":2421:2444   */\n      tag_115\n        /* \"#utility.yul\":2438:2443   */\n      dup2\n        /* \"#utility.yul\":2421:2444   */\n      tag_75\n      jump\t// in\n    tag_115:\n        /* \"#utility.yul\":2414:2419   */\n      dup2\n        /* \"#utility.yul\":2411:2445   */\n      eq\n        /* \"#utility.yul\":2401:2463   */\n      tag_116\n      jumpi\n        /* \"#utility.yul\":2459:2460   */\n      0x00\n        /* \"#utility.yul\":2456:2457   */\n      0x00\n        /* \"#utility.yul\":2449:2461   */\n      revert\n        /* \"#utility.yul\":2401:2463   */\n    tag_116:\n        /* \"#utility.yul\":2349:2469   */\n      pop\n      jump\t// out\n        /* \"#utility.yul\":2475:2616   */\n    tag_77:\n        /* \"#utility.yul\":2531:2536   */\n      0x00\n        /* \"#utility.yul\":2562:2568   */\n      dup2\n        /* \"#utility.yul\":2556:2569   */\n      mload\n        /* \"#utility.yul\":2547:2569   */\n      swap1\n      pop\n        /* \"#utility.yul\":2578:2610   */\n      tag_118\n        /* \"#utility.yul\":2604:2609   */\n      dup2\n        /* \"#utility.yul\":2578:2610   */\n      tag_76\n      jump\t// in\n    tag_118:\n        /* \"#utility.yul\":2475:2616   */\n      swap3\n      swap2\n      pop\n      pop\n      jump\t// out\n        /* \"#utility.yul\":2622:3593   */\n    tag_48:\n        /* \"#utility.yul\":2725:2731   */\n      0x00\n        /* \"#utility.yul\":2733:2739   */\n      0x00\n        /* \"#utility.yul\":2741:2747   */\n      0x00\n        /* \"#utility.yul\":2749:2755   */\n      0x00\n        /* \"#utility.yul\":2757:2763   */\n      0x00\n        /* \"#utility.yul\":2806:2809   */\n      0xa0\n        /* \"#utility.yul\":2794:2803   */\n      dup7\n        /* \"#utility.yul\":2785:2792   */\n      dup9\n        /* \"#utility.yul\":2781:2804   */\n      sub\n        /* \"#utility.yul\":2777:2810   */\n      slt\n        /* \"#utility.yul\":2774:2894   */\n      iszero\n      tag_120\n      jumpi\n        /* \"#utility.yul\":2813:2892   */\n      tag_121\n      tag_67\n      jump\t// in\n    tag_121:\n        /* \"#utility.yul\":2774:2894   */\n    tag_120:\n        /* \"#utility.yul\":2933:2934   */\n      0x00\n        /* \"#utility.yul\":2958:3021   */\n      tag_122\n        /* \"#utility.yul\":3013:3020   */\n      dup9\n        /* \"#utility.yul\":3004:3010   */\n      dup3\n        /* \"#utility.yul\":2993:3002   */\n      dup10\n        /* \"#utility.yul\":2989:3011   */\n      add\n        /* \"#utility.yul\":2958:3021   */\n      tag_74\n      jump\t// in\n    tag_122:\n        /* \"#utility.yul\":2948:3021   */\n      swap6\n      pop\n        /* \"#utility.yul\":2904:3031   */\n      pop\n        /* \"#utility.yul\":3070:3072   */\n      0x20\n        /* \"#utility.yul\":3096:3159   */\n      tag_123\n        /* \"#utility.yul\":3151:3158   */\n      dup9\n        /* \"#utility.yul\":3142:3148   */\n      dup3\n        /* \"#utility.yul\":3131:3140   */\n      dup10\n        /* \"#utility.yul\":3127:3149   */\n      add\n        /* \"#utility.yul\":3096:3159   */\n      tag_77\n      jump\t// in\n    tag_123:\n        /* \"#utility.yul\":3086:3159   */\n      swap5\n      pop\n        /* \"#utility.yul\":3041:3169   */\n      pop\n        /* \"#utility.yul\":3208:3210   */\n      0x40\n        /* \"#utility.yul\":3234:3298   */\n      tag_124\n        /* \"#utility.yul\":3290:3297   */\n      dup9\n        /* \"#utility.yul\":3281:3287   */\n      dup3\n        /* \"#utility.yul\":3270:3279   */\n      dup10\n        /* \"#utility.yul\":3266:3288   */\n      add\n        /* \"#utility.yul\":3234:3298   */\n      tag_71\n      jump\t// in\n    tag_124:\n        /* \"#utility.yul\":3224:3298   */\n      swap4\n      pop\n        /* \"#utility.yul\":3179:3308   */\n      pop\n        /* \"#utility.yul\":3347:3349   */\n      0x60\n        /* \"#utility.yul\":3373:3437   */\n      tag_125\n        /* \"#utility.yul\":3429:3436   */\n      dup9\n        /* \"#utility.yul\":3420:3426   */\n      dup3\n        /* \"#utility.yul\":3409:3418   */\n      dup10\n        /* \"#utility.yul\":3405:3427   */\n      add\n        /* \"#utility.yul\":3373:3437   */\n      tag_71\n      jump\t// in\n    tag_125:\n        /* \"#utility.yul\":3363:3437   */\n      swap3\n      pop\n        /* \"#utility.yul\":3318:3447   */\n      pop\n        /* \"#utility.yul\":3486:3489   */\n      0x80\n        /* \"#utility.yul\":3513:3576   */\n      tag_126\n        /* \"#utility.yul\":3568:3575   */\n      dup9\n        /* \"#utility.yul\":3559:3565   */\n      dup3\n        /* \"#utility.yul\":3548:3557   */\n      dup10\n        /* \"#utility.yul\":3544:3566   */\n      add\n        /* \"#utility.yul\":3513:3576   */\n      tag_74\n      jump\t// in\n    tag_126:\n        /* \"#utility.yul\":3503:3576   */\n      swap2\n      pop\n        /* \"#utility.yul\":3457:3586   */\n      pop\n        /* \"#utility.yul\":2622:3593   */\n      swap3\n      swap6\n      pop\n      swap3\n      swap6\n      swap1\n      swap4\n      pop\n      jump\t// out\n        /* \"#utility.yul\":3599:3779   */\n    tag_78:\n        /* \"#utility.yul\":3647:3724   */\n      0x4e487b7100000000000000000000000000000000000000000000000000000000\n        /* \"#utility.yul\":3644:3645   */\n      0x00\n        /* \"#utility.yul\":3637:3725   */\n      mstore\n        /* \"#utility.yul\":3744:3748   */\n      0x11\n        /* \"#utility.yul\":3741:3742   */\n      0x04\n        /* \"#utility.yul\":3734:3749   */\n      mstore\n        /* \"#utility.yul\":3768:3772   */\n      0x24\n        /* \"#utility.yul\":3765:3766   */\n      0x00\n        /* \"#utility.yul\":3758:3773   */\n      revert\n        /* \"#utility.yul\":3785:4341   */\n    tag_50:\n        /* \"#utility.yul\":3824:3831   */\n      0x00\n        /* \"#utility.yul\":3847:3866   */\n      tag_129\n        /* \"#utility.yul\":3864:3865   */\n      dup3\n        /* \"#utility.yul\":3847:3866   */\n      tag_75\n      jump\t// in\n    tag_129:\n        /* \"#utility.yul\":3842:3866   */\n      swap2\n      pop\n        /* \"#utility.yul\":3880:3899   */\n      tag_130\n        /* \"#utility.yul\":3897:3898   */\n      dup4\n        /* \"#utility.yul\":3880:3899   */\n      tag_75\n      jump\t// in\n    tag_130:\n        /* \"#utility.yul\":3875:3899   */\n      swap3\n      pop\n        /* \"#utility.yul\":3934:3935   */\n      dup3\n        /* \"#utility.yul\":3931:3932   */\n      dup3\n        /* \"#utility.yul\":3927:3936   */\n      mul\n        /* \"#utility.yul\":3956:3985   */\n      tag_131\n        /* \"#utility.yul\":3973:3984   */\n      dup2\n        /* \"#utility.yul\":3956:3985   */\n      tag_75\n      jump\t// in\n    tag_131:\n        /* \"#utility.yul\":3945:3985   */\n      swap2\n      pop\n        /* \"#utility.yul\":4043:4109   */\n      0x8000000000000000000000000000000000000000000000000000000000000000\n        /* \"#utility.yul\":4040:4041   */\n      dup5\n        /* \"#utility.yul\":4037:4110   */\n      eq\n        /* \"#utility.yul\":4033:4034   */\n      0x00\n        /* \"#utility.yul\":4030:4031   */\n      dup5\n        /* \"#utility.yul\":4026:4035   */\n      slt\n        /* \"#utility.yul\":4022:4111   */\n      and\n        /* \"#utility.yul\":4019:4134   */\n      iszero\n      tag_132\n      jumpi\n        /* \"#utility.yul\":4114:4132   */\n      tag_133\n      tag_78\n      jump\t// in\n    tag_133:\n        /* \"#utility.yul\":4019:4134   */\n    tag_132:\n        /* \"#utility.yul\":4284:4285   */\n      dup3\n        /* \"#utility.yul\":4275:4282   */\n      dup3\n        /* \"#utility.yul\":4270:4286   */\n      sdiv\n        /* \"#utility.yul\":4267:4268   */\n      dup5\n        /* \"#utility.yul\":4264:4287   */\n      eq\n        /* \"#utility.yul\":4244:4245   */\n      dup4\n        /* \"#utility.yul\":4237:4246   */\n      iszero\n        /* \"#utility.yul\":4217:4301   */\n      or\n        /* \"#utility.yul\":4194:4334   */\n      tag_134\n      jumpi\n        /* \"#utility.yul\":4314:4332   */\n      tag_135\n      tag_78\n      jump\t// in\n    tag_135:\n        /* \"#utility.yul\":4194:4334   */\n    tag_134:\n        /* \"#utility.yul\":3832:4341   */\n      pop\n        /* \"#utility.yul\":3785:4341   */\n      swap3\n      swap2\n      pop\n      pop\n      jump\t// out\n        /* \"#utility.yul\":4347:4538   */\n    tag_53:\n        /* \"#utility.yul\":4387:4390   */\n      0x00\n        /* \"#utility.yul\":4406:4426   */\n      tag_137\n        /* \"#utility.yul\":4424:4425   */\n      dup3\n        /* \"#utility.yul\":4406:4426   */\n      tag_64\n      jump\t// in\n    tag_137:\n        /* \"#utility.yul\":4401:4426   */\n      swap2\n      pop\n        /* \"#utility.yul\":4440:4460   */\n      tag_138\n        /* \"#utility.yul\":4458:4459   */\n      dup4\n        /* \"#utility.yul\":4440:4460   */\n      tag_64\n      jump\t// in\n    tag_138:\n        /* \"#utility.yul\":4435:4460   */\n      swap3\n      pop\n        /* \"#utility.yul\":4483:4484   */\n      dup3\n        /* \"#utility.yul\":4480:4481   */\n      dup3\n        /* \"#utility.yul\":4476:4485   */\n      add\n        /* \"#utility.yul\":4469:4485   */\n      swap1\n      pop\n        /* \"#utility.yul\":4504:4507   */\n      dup1\n        /* \"#utility.yul\":4501:4502   */\n      dup3\n        /* \"#utility.yul\":4498:4508   */\n      gt\n        /* \"#utility.yul\":4495:4531   */\n      iszero\n      tag_139\n      jumpi\n        /* \"#utility.yul\":4511:4529   */\n      tag_140\n      tag_78\n      jump\t// in\n    tag_140:\n        /* \"#utility.yul\":4495:4531   */\n    tag_139:\n        /* \"#utility.yul\":4347:4538   */\n      swap3\n      swap2\n      pop\n      pop\n      jump\t// out\n        /* \"#utility.yul\":4544:4713   */\n    tag_79:\n        /* \"#utility.yul\":4628:4639   */\n      0x00\n        /* \"#utility.yul\":4662:4668   */\n      dup3\n        /* \"#utility.yul\":4657:4660   */\n      dup3\n        /* \"#utility.yul\":4650:4669   */\n      mstore\n        /* \"#utility.yul\":4702:4706   */\n      0x20\n        /* \"#utility.yul\":4697:4700   */\n      dup3\n        /* \"#utility.yul\":4693:4707   */\n      add\n        /* \"#utility.yul\":4678:4707   */\n      swap1\n      pop\n        /* \"#utility.yul\":4544:4713   */\n      swap3\n      swap2\n      pop\n      pop\n      jump\t// out\n        /* \"#utility.yul\":4719:4891   */\n    tag_80:\n        /* \"#utility.yul\":4859:4883   */\n      0x4469646e27742073656e6420656e6f7567682065746800000000000000000000\n        /* \"#utility.yul\":4855:4856   */\n      0x00\n        /* \"#utility.yul\":4847:4853   */\n      dup3\n        /* \"#utility.yul\":4843:4857   */\n      add\n        /* \"#utility.yul\":4836:4884   */\n      mstore\n        /* \"#utility.yul\":4719:4891   */\n      pop\n      jump\t// out\n        /* \"#utility.yul\":4897:5263   */\n    tag_81:\n        /* \"#utility.yul\":5039:5042   */\n      0x00\n        /* \"#utility.yul\":5060:5127   */\n      tag_144\n        /* \"#utility.yul\":5124:5126   */\n      0x16\n        /* \"#utility.yul\":5119:5122   */\n      dup4\n        /* \"#utility.yul\":5060:5127   */\n      tag_79\n      jump\t// in\n    tag_144:\n        /* \"#utility.yul\":5053:5127   */\n      swap2\n      pop\n        /* \"#utility.yul\":5136:5229   */\n      tag_145\n        /* \"#utility.yul\":5225:5228   */\n      dup3\n        /* \"#utility.yul\":5136:5229   */\n      tag_80\n      jump\t// in\n    tag_145:\n        /* \"#utility.yul\":5254:5256   */\n      0x20\n        /* \"#utility.yul\":5249:5252   */\n      dup3\n        /* \"#utility.yul\":5245:5257   */\n      add\n        /* \"#utility.yul\":5238:5257   */\n      swap1\n      pop\n        /* \"#utility.yul\":4897:5263   */\n      swap2\n      swap1\n      pop\n      jump\t// out\n        /* \"#utility.yul\":5269:5688   */\n    tag_57:\n        /* \"#utility.yul\":5435:5439   */\n      0x00\n        /* \"#utility.yul\":5473:5475   */\n      0x20\n        /* \"#utility.yul\":5462:5471   */\n      dup3\n        /* \"#utility.yul\":5458:5476   */\n      add\n        /* \"#utility.yul\":5450:5476   */\n      swap1\n      pop\n        /* \"#utility.yul\":5522:5531   */\n      dup2\n        /* \"#utility.yul\":5516:5520   */\n      dup2\n        /* \"#utility.yul\":5512:5532   */\n      sub\n        /* \"#utility.yul\":5508:5509   */\n      0x00\n        /* \"#utility.yul\":5497:5506   */\n      dup4\n        /* \"#utility.yul\":5493:5510   */\n      add\n        /* \"#utility.yul\":5486:5533   */\n      mstore\n        /* \"#utility.yul\":5550:5681   */\n      tag_147\n        /* \"#utility.yul\":5676:5680   */\n      dup2\n        /* \"#utility.yul\":5550:5681   */\n      tag_81\n      jump\t// in\n    tag_147:\n        /* \"#utility.yul\":5542:5681   */\n      swap1\n      pop\n        /* \"#utility.yul\":5269:5688   */\n      swap2\n      swap1\n      pop\n      jump\t// out\n        /* \"#utility.yul\":5694:6104   */\n    tag_61:\n        /* \"#utility.yul\":5734:5741   */\n      0x00\n        /* \"#utility.yul\":5757:5777   */\n      tag_149\n        /* \"#utility.yul\":5775:5776   */\n      dup3\n        /* \"#utility.yul\":5757:5777   */\n      tag_64\n      jump\t// in\n    tag_149:\n        /* \"#utility.yul\":5752:5777   */\n      swap2\n      pop\n        /* \"#utility.yul\":5791:5811   */\n      tag_150\n        /* \"#utility.yul\":5809:5810   */\n      dup4\n        /* \"#utility.yul\":5791:5811   */\n      tag_64\n      jump\t// in\n    tag_150:\n        /* \"#utility.yul\":5786:5811   */\n      swap3\n      pop\n        /* \"#utility.yul\":5846:5847   */\n      dup3\n        /* \"#utility.yul\":5843:5844   */\n      dup3\n        /* \"#utility.yul\":5839:5848   */\n      mul\n        /* \"#utility.yul\":5868:5898   */\n      tag_151\n        /* \"#utility.yul\":5886:5897   */\n      dup2\n        /* \"#utility.yul\":5868:5898   */\n      tag_64\n      jump\t// in\n    tag_151:\n        /* \"#utility.yul\":5857:5898   */\n      swap2\n      pop\n        /* \"#utility.yul\":6047:6048   */\n      dup3\n        /* \"#utility.yul\":6038:6045   */\n      dup3\n        /* \"#utility.yul\":6034:6049   */\n      div\n        /* \"#utility.yul\":6031:6032   */\n      dup5\n        /* \"#utility.yul\":6028:6050   */\n      eq\n        /* \"#utility.yul\":6008:6009   */\n      dup4\n        /* \"#utility.yul\":6001:6010   */\n      iszero\n        /* \"#utility.yul\":5981:6064   */\n      or\n        /* \"#utility.yul\":5958:6097   */\n      tag_152\n      jumpi\n        /* \"#utility.yul\":6077:6095   */\n      tag_153\n      tag_78\n      jump\t// in\n    tag_153:\n        /* \"#utility.yul\":5958:6097   */\n    tag_152:\n        /* \"#utility.yul\":5742:6104   */\n      pop\n        /* \"#utility.yul\":5694:6104   */\n      swap3\n      swap2\n      pop\n      pop\n      jump\t// out\n        /* \"#utility.yul\":6110:6290   */\n    tag_82:\n        /* \"#utility.yul\":6158:6235   */\n      0x4e487b7100000000000000000000000000000000000000000000000000000000\n        /* \"#utility.yul\":6155:6156   */\n      0x00\n        /* \"#utility.yul\":6148:6236   */\n      mstore\n        /* \"#utility.yul\":6255:6259   */\n      0x12\n        /* \"#utility.yul\":6252:6253   */\n      0x04\n        /* \"#utility.yul\":6245:6260   */\n      mstore\n        /* \"#utility.yul\":6279:6283   */\n      0x24\n        /* \"#utility.yul\":6276:6277   */\n      0x00\n        /* \"#utility.yul\":6269:6284   */\n      revert\n        /* \"#utility.yul\":6296:6481   */\n    tag_63:\n        /* \"#utility.yul\":6336:6337   */\n      0x00\n        /* \"#utility.yul\":6353:6373   */\n      tag_156\n        /* \"#utility.yul\":6371:6372   */\n      dup3\n        /* \"#utility.yul\":6353:6373   */\n      tag_64\n      jump\t// in\n    tag_156:\n        /* \"#utility.yul\":6348:6373   */\n      swap2\n      pop\n        /* \"#utility.yul\":6387:6407   */\n      tag_157\n        /* \"#utility.yul\":6405:6406   */\n      dup4\n        /* \"#utility.yul\":6387:6407   */\n      tag_64\n      jump\t// in\n    tag_157:\n        /* \"#utility.yul\":6382:6407   */\n      swap3\n      pop\n        /* \"#utility.yul\":6426:6427   */\n      dup3\n        /* \"#utility.yul\":6416:6451   */\n      tag_158\n      jumpi\n        /* \"#utility.yul\":6431:6449   */\n      tag_159\n      tag_82\n      jump\t// in\n    tag_159:\n        /* \"#utility.yul\":6416:6451   */\n    tag_158:\n        /* \"#utility.yul\":6473:6474   */\n      dup3\n        /* \"#utility.yul\":6470:6471   */\n      dup3\n        /* \"#utility.yul\":6466:6475   */\n      div\n        /* \"#utility.yul\":6461:6475   */\n      swap1\n      pop\n        /* \"#utility.yul\":6296:6481   */\n      swap3\n      swap2\n      pop\n      pop\n      jump\t// out\n\n    auxdata: 0xa2646970667358221220cd72d8826540efc112f4b7e4169f960fa97d81ee3d017be75ae1599350e0ac7964736f6c634300081e0033\n}\n",
				"bytecode": {
					"linkReferences": {},
					"object": "608060405260015f55674563918244f40000600155348015601e575f5ffd5b506107238061002c5f395ff3fe60806040526004361061006f575f3560e01c806373cef3911161004d57806373cef391146100dd57806398d5fdca14610107578063b60d428814610131578063f03066231461013b5761006f565b80630d8e6e2c146100735780633ccfd60b1461009d57806347f1aae7146100b3575b5f5ffd5b34801561007e575f5ffd5b50610087610177565b6040516100949190610367565b60405180910390f35b3480156100a8575f5ffd5b506100b16101fe565b005b3480156100be575f5ffd5b506100c7610200565b6040516100d49190610367565b60405180910390f35b3480156100e8575f5ffd5b506100f1610205565b6040516100fe9190610367565b60405180910390f35b348015610112575f5ffd5b5061011b61020b565b6040516101289190610367565b60405180910390f35b6101396102b0565b005b348015610146575f5ffd5b50610161600480360381019061015c91906103ae565b610317565b60405161016e9190610367565b60405180910390f35b5f73694aa1769357215de4fac081bf1f309adc32530673ffffffffffffffffffffffffffffffffffffffff166354fd4d506040518163ffffffff1660e01b8152600401602060405180830381865afa1580156101d5573d5f5f3e3d5ffd5b505050506040513d601f19601f820116820180604052508101906101f991906103ed565b905090565b565b5f5481565b60015481565b5f5f73694aa1769357215de4fac081bf1f309adc32530690505f8173ffffffffffffffffffffffffffffffffffffffff1663feaf968c6040518163ffffffff1660e01b815260040160a060405180830381865afa15801561026e573d5f5f3e3d5ffd5b505050506040513d601f19601f82011682018060405250810190610292919061048a565b5050509150506402540be400816102a9919061052e565b9250505090565b60025f5f8282546102c191906105a4565b925050819055506001546102d434610317565b1015610315576040517f08c379a000000000000000000000000000000000000000000000000000000000815260040161030c90610631565b60405180910390fd5b565b5f5f61032161020b565b90505f670de0b6b3a76400008483610339919061064f565b61034391906106bd565b90508092505050919050565b5f819050919050565b6103618161034f565b82525050565b5f60208201905061037a5f830184610358565b92915050565b5f5ffd5b61038d8161034f565b8114610397575f5ffd5b50565b5f813590506103a881610384565b92915050565b5f602082840312156103c3576103c2610380565b5b5f6103d08482850161039a565b91505092915050565b5f815190506103e781610384565b92915050565b5f6020828403121561040257610401610380565b5b5f61040f848285016103d9565b91505092915050565b5f69ffffffffffffffffffff82169050919050565b61043681610418565b8114610440575f5ffd5b50565b5f815190506104518161042d565b92915050565b5f819050919050565b61046981610457565b8114610473575f5ffd5b50565b5f8151905061048481610460565b92915050565b5f5f5f5f5f60a086880312156104a3576104a2610380565b5b5f6104b088828901610443565b95505060206104c188828901610476565b94505060406104d2888289016103d9565b93505060606104e3888289016103d9565b92505060806104f488828901610443565b9150509295509295909350565b7f4e487b71000000000000000000000000000000000000000000000000000000005f52601160045260245ffd5b5f61053882610457565b915061054383610457565b925082820261055181610457565b91507f800000000000000000000000000000000000000000000000000000000000000084145f8412161561058857610587610501565b5b828205841483151761059d5761059c610501565b5b5092915050565b5f6105ae8261034f565b91506105b98361034f565b92508282019050808211156105d1576105d0610501565b5b92915050565b5f82825260208201905092915050565b7f4469646e27742073656e6420656e6f75676820657468000000000000000000005f82015250565b5f61061b6016836105d7565b9150610626826105e7565b602082019050919050565b5f6020820190508181035f8301526106488161060f565b9050919050565b5f6106598261034f565b91506106648361034f565b92508282026106728161034f565b9150828204841483151761068957610688610501565b5b5092915050565b7f4e487b71000000000000000000000000000000000000000000000000000000005f52601260045260245ffd5b5f6106c78261034f565b91506106d28361034f565b9250826106e2576106e1610690565b5b82820490509291505056fea2646970667358221220cd72d8826540efc112f4b7e4169f960fa97d81ee3d017be75ae1599350e0ac7964736f6c634300081e0033",
					"opcodes": "PUSH1 0x80 PUSH1 0x40 MSTORE PUSH1 0x1 PUSH0 SSTORE PUSH8 0x4563918244F40000 PUSH1 0x1 SSTORE CALLVALUE DUP1 ISZERO PUSH1 0x1E JUMPI PUSH0 PUSH0 REVERT JUMPDEST POP PUSH2 0x723 DUP1 PUSH2 0x2C PUSH0 CODECOPY PUSH0 RETURN INVALID PUSH1 0x80 PUSH1 0x40 MSTORE PUSH1 0x4 CALLDATASIZE LT PUSH2 0x6F JUMPI PUSH0 CALLDATALOAD PUSH1 0xE0 SHR DUP1 PUSH4 0x73CEF391 GT PUSH2 0x4D JUMPI DUP1 PUSH4 0x73CEF391 EQ PUSH2 0xDD JUMPI DUP1 PUSH4 0x98D5FDCA EQ PUSH2 0x107 JUMPI DUP1 PUSH4 0xB60D4288 EQ PUSH2 0x131 JUMPI DUP1 PUSH4 0xF0306623 EQ PUSH2 0x13B JUMPI PUSH2 0x6F JUMP JUMPDEST DUP1 PUSH4 0xD8E6E2C EQ PUSH2 0x73 JUMPI DUP1 PUSH4 0x3CCFD60B EQ PUSH2 0x9D JUMPI DUP1 PUSH4 0x47F1AAE7 EQ PUSH2 0xB3 JUMPI JUMPDEST PUSH0 PUSH0 REVERT JUMPDEST CALLVALUE DUP1 ISZERO PUSH2 0x7E JUMPI PUSH0 PUSH0 REVERT JUMPDEST POP PUSH2 0x87 PUSH2 0x177 JUMP JUMPDEST PUSH1 0x40 MLOAD PUSH2 0x94 SWAP2 SWAP1 PUSH2 0x367 JUMP JUMPDEST PUSH1 0x40 MLOAD DUP1 SWAP2 SUB SWAP1 RETURN JUMPDEST CALLVALUE DUP1 ISZERO PUSH2 0xA8 JUMPI PUSH0 PUSH0 REVERT JUMPDEST POP PUSH2 0xB1 PUSH2 0x1FE JUMP JUMPDEST STOP JUMPDEST CALLVALUE DUP1 ISZERO PUSH2 0xBE JUMPI PUSH0 PUSH0 REVERT JUMPDEST POP PUSH2 0xC7 PUSH2 0x200 JUMP JUMPDEST PUSH1 0x40 MLOAD PUSH2 0xD4 SWAP2 SWAP1 PUSH2 0x367 JUMP JUMPDEST PUSH1 0x40 MLOAD DUP1 SWAP2 SUB SWAP1 RETURN JUMPDEST CALLVALUE DUP1 ISZERO PUSH2 0xE8 JUMPI PUSH0 PUSH0 REVERT JUMPDEST POP PUSH2 0xF1 PUSH2 0x205 JUMP JUMPDEST PUSH1 0x40 MLOAD PUSH2 0xFE SWAP2 SWAP1 PUSH2 0x367 JUMP JUMPDEST PUSH1 0x40 MLOAD DUP1 SWAP2 SUB SWAP1 RETURN JUMPDEST CALLVALUE DUP1 ISZERO PUSH2 0x112 JUMPI PUSH0 PUSH0 REVERT JUMPDEST POP PUSH2 0x11B PUSH2 0x20B JUMP JUMPDEST PUSH1 0x40 MLOAD PUSH2 0x128 SWAP2 SWAP1 PUSH2 0x367 JUMP JUMPDEST PUSH1 0x40 MLOAD DUP1 SWAP2 SUB SWAP1 RETURN JUMPDEST PUSH2 0x139 PUSH2 0x2B0 JUMP JUMPDEST STOP JUMPDEST CALLVALUE DUP1 ISZERO PUSH2 0x146 JUMPI PUSH0 PUSH0 REVERT JUMPDEST POP PUSH2 0x161 PUSH1 0x4 DUP1 CALLDATASIZE SUB DUP2 ADD SWAP1 PUSH2 0x15C SWAP2 SWAP1 PUSH2 0x3AE JUMP JUMPDEST PUSH2 0x317 JUMP JUMPDEST PUSH1 0x40 MLOAD PUSH2 0x16E SWAP2 SWAP1 PUSH2 0x367 JUMP JUMPDEST PUSH1 0x40 MLOAD DUP1 SWAP2 SUB SWAP1 RETURN JUMPDEST PUSH0 PUSH20 0x694AA1769357215DE4FAC081BF1F309ADC325306 PUSH20 0xFFFFFFFFFFFFFFFFFFFFFFFFFFFFFFFFFFFFFFFF AND PUSH4 0x54FD4D50 PUSH1 0x40 MLOAD DUP2 PUSH4 0xFFFFFFFF AND PUSH1 0xE0 SHL DUP2 MSTORE PUSH1 0x4 ADD PUSH1 0x20 PUSH1 0x40 MLOAD DUP1 DUP4 SUB DUP2 DUP7 GAS STATICCALL ISZERO DUP1 ISZERO PUSH2 0x1D5 JUMPI RETURNDATASIZE PUSH0 PUSH0 RETURNDATACOPY RETURNDATASIZE PUSH0 REVERT JUMPDEST POP POP POP POP PUSH1 0x40 MLOAD RETURNDATASIZE PUSH1 0x1F NOT PUSH1 0x1F DUP3 ADD AND DUP3 ADD DUP1 PUSH1 0x40 MSTORE POP DUP2 ADD SWAP1 PUSH2 0x1F9 SWAP2 SWAP1 PUSH2 0x3ED JUMP JUMPDEST SWAP1 POP SWAP1 JUMP JUMPDEST JUMP JUMPDEST PUSH0 SLOAD DUP2 JUMP JUMPDEST PUSH1 0x1 SLOAD DUP2 JUMP JUMPDEST PUSH0 PUSH0 PUSH20 0x694AA1769357215DE4FAC081BF1F309ADC325306 SWAP1 POP PUSH0 DUP2 PUSH20 0xFFFFFFFFFFFFFFFFFFFFFFFFFFFFFFFFFFFFFFFF AND PUSH4 0xFEAF968C PUSH1 0x40 MLOAD DUP2 PUSH4 0xFFFFFFFF AND PUSH1 0xE0 SHL DUP2 MSTORE PUSH1 0x4 ADD PUSH1 0xA0 PUSH1 0x40 MLOAD DUP1 DUP4 SUB DUP2 DUP7 GAS STATICCALL ISZERO DUP1 ISZERO PUSH2 0x26E JUMPI RETURNDATASIZE PUSH0 PUSH0 RETURNDATACOPY RETURNDATASIZE PUSH0 REVERT JUMPDEST POP POP POP POP PUSH1 0x40 MLOAD RETURNDATASIZE PUSH1 0x1F NOT PUSH1 0x1F DUP3 ADD AND DUP3 ADD DUP1 PUSH1 0x40 MSTORE POP DUP2 ADD SWAP1 PUSH2 0x292 SWAP2 SWAP1 PUSH2 0x48A JUMP JUMPDEST POP POP POP SWAP2 POP POP PUSH5 0x2540BE400 DUP2 PUSH2 0x2A9 SWAP2 SWAP1 PUSH2 0x52E JUMP JUMPDEST SWAP3 POP POP POP SWAP1 JUMP JUMPDEST PUSH1 0x2 PUSH0 PUSH0 DUP3 DUP3 SLOAD PUSH2 0x2C1 SWAP2 SWAP1 PUSH2 0x5A4 JUMP JUMPDEST SWAP3 POP POP DUP2 SWAP1 SSTORE POP PUSH1 0x1 SLOAD PUSH2 0x2D4 CALLVALUE PUSH2 0x317 JUMP JUMPDEST LT ISZERO PUSH2 0x315 JUMPI PUSH1 0x40 MLOAD PUSH32 0x8C379A000000000000000000000000000000000000000000000000000000000 DUP2 MSTORE PUSH1 0x4 ADD PUSH2 0x30C SWAP1 PUSH2 0x631 JUMP JUMPDEST PUSH1 0x40 MLOAD DUP1 SWAP2 SUB SWAP1 REVERT JUMPDEST JUMP JUMPDEST PUSH0 PUSH0 PUSH2 0x321 PUSH2 0x20B JUMP JUMPDEST SWAP1 POP PUSH0 PUSH8 0xDE0B6B3A7640000 DUP5 DUP4 PUSH2 0x339 SWAP2 SWAP1 PUSH2 0x64F JUMP JUMPDEST PUSH2 0x343 SWAP2 SWAP1 PUSH2 0x6BD JUMP JUMPDEST SWAP1 POP DUP1 SWAP3 POP POP POP SWAP2 SWAP1 POP JUMP JUMPDEST PUSH0 DUP2 SWAP1 POP SWAP2 SWAP1 POP JUMP JUMPDEST PUSH2 0x361 DUP2 PUSH2 0x34F JUMP JUMPDEST DUP3 MSTORE POP POP JUMP JUMPDEST PUSH0 PUSH1 0x20 DUP3 ADD SWAP1 POP PUSH2 0x37A PUSH0 DUP4 ADD DUP5 PUSH2 0x358 JUMP JUMPDEST SWAP3 SWAP2 POP POP JUMP JUMPDEST PUSH0 PUSH0 REVERT JUMPDEST PUSH2 0x38D DUP2 PUSH2 0x34F JUMP JUMPDEST DUP2 EQ PUSH2 0x397 JUMPI PUSH0 PUSH0 REVERT JUMPDEST POP JUMP JUMPDEST PUSH0 DUP2 CALLDATALOAD SWAP1 POP PUSH2 0x3A8 DUP2 PUSH2 0x384 JUMP JUMPDEST SWAP3 SWAP2 POP POP JUMP JUMPDEST PUSH0 PUSH1 0x20 DUP3 DUP5 SUB SLT ISZERO PUSH2 0x3C3 JUMPI PUSH2 0x3C2 PUSH2 0x380 JUMP JUMPDEST JUMPDEST PUSH0 PUSH2 0x3D0 DUP5 DUP3 DUP6 ADD PUSH2 0x39A JUMP JUMPDEST SWAP2 POP POP SWAP3 SWAP2 POP POP JUMP JUMPDEST PUSH0 DUP2 MLOAD SWAP1 POP PUSH2 0x3E7 DUP2 PUSH2 0x384 JUMP JUMPDEST SWAP3 SWAP2 POP POP JUMP JUMPDEST PUSH0 PUSH1 0x20 DUP3 DUP5 SUB SLT ISZERO PUSH2 0x402 JUMPI PUSH2 0x401 PUSH2 0x380 JUMP JUMPDEST JUMPDEST PUSH0 PUSH2 0x40F DUP5 DUP3 DUP6 ADD PUSH2 0x3D9 JUMP JUMPDEST SWAP2 POP POP SWAP3 SWAP2 POP POP JUMP JUMPDEST PUSH0 PUSH10 0xFFFFFFFFFFFFFFFFFFFF DUP3 AND SWAP1 POP SWAP2 SWAP1 POP JUMP JUMPDEST PUSH2 0x436 DUP2 PUSH2 0x418 JUMP JUMPDEST DUP2 EQ PUSH2 0x440 JUMPI PUSH0 PUSH0 REVERT JUMPDEST POP JUMP JUMPDEST PUSH0 DUP2 MLOAD SWAP1 POP PUSH2 0x451 DUP2 PUSH2 0x42D JUMP JUMPDEST SWAP3 SWAP2 POP POP JUMP JUMPDEST PUSH0 DUP2 SWAP1 POP SWAP2 SWAP1 POP JUMP JUMPDEST PUSH2 0x469 DUP2 PUSH2 0x457 JUMP JUMPDEST DUP2 EQ PUSH2 0x473 JUMPI PUSH0 PUSH0 REVERT JUMPDEST POP JUMP JUMPDEST PUSH0 DUP2 MLOAD SWAP1 POP PUSH2 0x484 DUP2 PUSH2 0x460 JUMP JUMPDEST SWAP3 SWAP2 POP POP JUMP JUMPDEST PUSH0 PUSH0 PUSH0 PUSH0 PUSH0 PUSH1 0xA0 DUP7 DUP9 SUB SLT ISZERO PUSH2 0x4A3 JUMPI PUSH2 0x4A2 PUSH2 0x380 JUMP JUMPDEST JUMPDEST PUSH0 PUSH2 0x4B0 DUP9 DUP3 DUP10 ADD PUSH2 0x443 JUMP JUMPDEST SWAP6 POP POP PUSH1 0x20 PUSH2 0x4C1 DUP9 DUP3 DUP10 ADD PUSH2 0x476 JUMP JUMPDEST SWAP5 POP POP PUSH1 0x40 PUSH2 0x4D2 DUP9 DUP3 DUP10 ADD PUSH2 0x3D9 JUMP JUMPDEST SWAP4 POP POP PUSH1 0x60 PUSH2 0x4E3 DUP9 DUP3 DUP10 ADD PUSH2 0x3D9 JUMP JUMPDEST SWAP3 POP POP PUSH1 0x80 PUSH2 0x4F4 DUP9 DUP3 DUP10 ADD PUSH2 0x443 JUMP JUMPDEST SWAP2 POP POP SWAP3 SWAP6 POP SWAP3 SWAP6 SWAP1 SWAP4 POP JUMP JUMPDEST PUSH32 0x4E487B7100000000000000000000000000000000000000000000000000000000 PUSH0 MSTORE PUSH1 0x11 PUSH1 0x4 MSTORE PUSH1 0x24 PUSH0 REVERT JUMPDEST PUSH0 PUSH2 0x538 DUP3 PUSH2 0x457 JUMP JUMPDEST SWAP2 POP PUSH2 0x543 DUP4 PUSH2 0x457 JUMP JUMPDEST SWAP3 POP DUP3 DUP3 MUL PUSH2 0x551 DUP2 PUSH2 0x457 JUMP JUMPDEST SWAP2 POP PUSH32 0x8000000000000000000000000000000000000000000000000000000000000000 DUP5 EQ PUSH0 DUP5 SLT AND ISZERO PUSH2 0x588 JUMPI PUSH2 0x587 PUSH2 0x501 JUMP JUMPDEST JUMPDEST DUP3 DUP3 SDIV DUP5 EQ DUP4 ISZERO OR PUSH2 0x59D JUMPI PUSH2 0x59C PUSH2 0x501 JUMP JUMPDEST JUMPDEST POP SWAP3 SWAP2 POP POP JUMP JUMPDEST PUSH0 PUSH2 0x5AE DUP3 PUSH2 0x34F JUMP JUMPDEST SWAP2 POP PUSH2 0x5B9 DUP4 PUSH2 0x34F JUMP JUMPDEST SWAP3 POP DUP3 DUP3 ADD SWAP1 POP DUP1 DUP3 GT ISZERO PUSH2 0x5D1 JUMPI PUSH2 0x5D0 PUSH2 0x501 JUMP JUMPDEST JUMPDEST SWAP3 SWAP2 POP POP JUMP JUMPDEST PUSH0 DUP3 DUP3 MSTORE PUSH1 0x20 DUP3 ADD SWAP1 POP SWAP3 SWAP2 POP POP JUMP JUMPDEST PUSH32 0x4469646E27742073656E6420656E6F7567682065746800000000000000000000 PUSH0 DUP3 ADD MSTORE POP JUMP JUMPDEST PUSH0 PUSH2 0x61B PUSH1 0x16 DUP4 PUSH2 0x5D7 JUMP JUMPDEST SWAP2 POP PUSH2 0x626 DUP3 PUSH2 0x5E7 JUMP JUMPDEST PUSH1 0x20 DUP3 ADD SWAP1 POP SWAP2 SWAP1 POP JUMP JUMPDEST PUSH0 PUSH1 0x20 DUP3 ADD SWAP1 POP DUP2 DUP2 SUB PUSH0 DUP4 ADD MSTORE PUSH2 0x648 DUP2 PUSH2 0x60F JUMP JUMPDEST SWAP1 POP SWAP2 SWAP1 POP JUMP JUMPDEST PUSH0 PUSH2 0x659 DUP3 PUSH2 0x34F JUMP JUMPDEST SWAP2 POP PUSH2 0x664 DUP4 PUSH2 0x34F JUMP JUMPDEST SWAP3 POP DUP3 DUP3 MUL PUSH2 0x672 DUP2 PUSH2 0x34F JUMP JUMPDEST SWAP2 POP DUP3 DUP3 DIV DUP5 EQ DUP4 ISZERO OR PUSH2 0x689 JUMPI PUSH2 0x688 PUSH2 0x501 JUMP JUMPDEST JUMPDEST POP SWAP3 SWAP2 POP POP JUMP JUMPDEST PUSH32 0x4E487B7100000000000000000000000000000000000000000000000000000000 PUSH0 MSTORE PUSH1 0x12 PUSH1 0x4 MSTORE PUSH1 0x24 PUSH0 REVERT JUMPDEST PUSH0 PUSH2 0x6C7 DUP3 PUSH2 0x34F JUMP JUMPDEST SWAP2 POP PUSH2 0x6D2 DUP4 PUSH2 0x34F JUMP JUMPDEST SWAP3 POP DUP3 PUSH2 0x6E2 JUMPI PUSH2 0x6E1 PUSH2 0x690 JUMP JUMPDEST JUMPDEST DUP3 DUP3 DIV SWAP1 POP SWAP3 SWAP2 POP POP JUMP INVALID LOG2 PUSH5 0x6970667358 0x22 SLT KECCAK256 0xCD PUSH19 0xD8826540EFC112F4B7E4169F960FA97D81EE3D ADD PUSH28 0xE75AE1599350E0AC7964736F6C634300081E00330000000000000000 "
				},
				"gasEstimates": {
					"creation": {
						"codeDepositCost": "365400",
						"executionCost": "44614",
						"totalCost": "410014"
					},
					"external": {
						"fund()": "infinite",
						"getPrice()": "infinite",
						"getVersion()": "infinite",
						"miniUSD()": "2425",
						"myValue()": "2469",
						"priceConverter(uint256)": "infinite",
						"withdraw()": "166"
					}
				},
				"methodIdentifiers": {
					"fund()": "b60d4288",
					"getPrice()": "98d5fdca",
					"getVersion()": "0d8e6e2c",
					"miniUSD()": "73cef391",
					"myValue()": "47f1aae7",
					"priceConverter(uint256)": "f0306623",
					"withdraw()": "3ccfd60b"
				}
			},
			"storageLayout": {
				"storage": [
					{
						"astId": 52,
						"contract": "Project/FundMe.sol:FundMe",
						"label": "myValue",
						"offset": 0,
						"slot": "0",
						"type": "t_uint256"
					},
					{
						"astId": 55,
						"contract": "Project/FundMe.sol:FundMe",
						"label": "miniUSD",
						"offset": 0,
						"slot": "1",
						"type": "t_uint256"
					}
				],
				"types": {
					"t_uint256": {
						"encoding": "inplace",
						"label": "uint256",
						"numberOfBytes": "32"
					}
				}
			},
			"userdoc": {
				"kind": "user",
				"methods": {},
				"version": 1
			}
		}
	}
}