{
	"Project/FundMe.sol": {
		"FundMe": {
			"abi": [
				{
					"inputs": [],
					"stateMutability": "nonpayable",
					"type": "constructor"
				},
				{
					"inputs": [],
					"name": "CallFailed",
					"type": "error"
				},
				{
					"inputs": [],
					"name": "NotOwner",
					"type": "error"
				},
				{
					"stateMutability": "payable",
					"type": "fallback"
				},
				{
					"inputs": [
						{
							"internalType": "address",
							"name": "",
							"type": "address"
						}
					],
					"name": "AddressToAmount",
					"outputs": [
						{
							"internalType": "uint256",
							"name": "",
							"type": "uint256"
						}
					],
					"stateMutability": "view",
					"type": "function"
				},
				{
					"inputs": [],
					"name": "fund",
					"outputs": [],
					"stateMutability": "payable",
					"type": "function"
				},
				{
					"inputs": [
						{
							"internalType": "uint256",
							"name": "",
							"type": "uint256"
						}
					],
					"name": "funders",
					"outputs": [
						{
							"internalType": "address",
							"name": "",
							"type": "address"
						}
					],
					"stateMutability": "view",
					"type": "function"
				},
				{
					"inputs": [],
					"name": "i_owner",
					"outputs": [
						{
							"internalType": "address",
							"name": "",
							"type": "address"
						}
					],
					"stateMutability": "view",
					"type": "function"
				},
				{
					"inputs": [],
					"name": "miniUSD",
					"outputs": [
						{
							"internalType": "uint256",
							"name": "",
							"type": "uint256"
						}
					],
					"stateMutability": "view",
					"type": "function"
				},
				{
					"inputs": [],
					"name": "myValue",
					"outputs": [
						{
							"internalType": "uint256",
							"name": "",
							"type": "uint256"
						}
					],
					"stateMutability": "view",
					"type": "function"
				},
				{
					"inputs": [],
					"name": "withdraw",
					"outputs": [],
					"stateMutability": "nonpayable",
					"type": "function"
				},
				{
					"stateMutability": "payable",
					"type": "receive"
				}
			],
			"devdoc": {
				"kind": "dev",
				"methods": {},
				"version": 1
			},
			"evm": {
				"assembly": "    /* \"Project/FundMe.sol\":992:3148  contract FundMe {... */\n  mstore(0x40, 0xa0)\n    /* \"Project/FundMe.sol\":1077:1078  1 */\n  0x01\n    /* \"Project/FundMe.sol\":1052:1078  uint256 public myValue = 1 */\n  0x00\n  sstore\n    /* \"Project/FundMe.sol\":1329:1380  constructor() {... */\n  callvalue\n  dup1\n  iszero\n  tag_1\n  jumpi\n  revert(0x00, 0x00)\ntag_1:\n  pop\n    /* \"Project/FundMe.sol\":1363:1373  msg.sender */\n  caller\n    /* \"Project/FundMe.sol\":1353:1373  i_owner = msg.sender */\n  0xffffffffffffffffffffffffffffffffffffffff\n  and\n  0x80\n  dup2\n  0xffffffffffffffffffffffffffffffffffffffff\n  and\n  dup2\n  mstore\n  pop\n  pop\n    /* \"Project/FundMe.sol\":992:3148  contract FundMe {... */\n  mload(0x80)\n  codecopy(0x00, dataOffset(sub_0), dataSize(sub_0))\n  0x00\n  assignImmutable(\"0x2cc0d3dcb20652cd8f106aee76b6a7391771a130885634c0eb2bbe3cde796691\")\n  return(0x00, dataSize(sub_0))\nstop\n\nsub_0: assembly {\n        /* \"Project/FundMe.sol\":992:3148  contract FundMe {... */\n      mstore(0x40, 0x80)\n      jumpi(tag_1, lt(calldatasize, 0x04))\n      shr(0xe0, calldataload(0x00))\n      dup1\n      0xb60d4288\n      gt\n      tag_10\n      jumpi\n      dup1\n      0xb60d4288\n      eq\n      tag_6\n      jumpi\n      dup1\n      0xdba6335f\n      eq\n      tag_7\n      jumpi\n      dup1\n      0xdc0d3dff\n      eq\n      tag_8\n      jumpi\n      dup1\n      0xf5d9cf5c\n      eq\n      tag_9\n      jumpi\n      jump(tag_2)\n    tag_10:\n      dup1\n      0x3ccfd60b\n      eq\n      tag_3\n      jumpi\n      dup1\n      0x47f1aae7\n      eq\n      tag_4\n      jumpi\n      dup1\n      0x73cef391\n      eq\n      tag_5\n      jumpi\n      jump(tag_2)\n    tag_1:\n      jumpi(tag_2, calldatasize)\n        /* \"Project/FundMe.sol\":3075:3081  fund() */\n      tag_13\n        /* \"Project/FundMe.sol\":3075:3079  fund */\n      tag_14\n        /* \"Project/FundMe.sol\":3075:3081  fund() */\n      jump\t// in\n    tag_13:\n        /* \"Project/FundMe.sol\":992:3148  contract FundMe {... */\n      stop\n    tag_2:\n        /* \"Project/FundMe.sol\":3133:3139  fund() */\n      tag_17\n        /* \"Project/FundMe.sol\":3133:3137  fund */\n      tag_14\n        /* \"Project/FundMe.sol\":3133:3139  fund() */\n      jump\t// in\n    tag_17:\n        /* \"Project/FundMe.sol\":992:3148  contract FundMe {... */\n      stop\n        /* \"Project/FundMe.sol\":1987:2788  function withdraw() public onlyOwner {... */\n    tag_3:\n      callvalue\n      dup1\n      iszero\n      tag_18\n      jumpi\n      revert(0x00, 0x00)\n    tag_18:\n      pop\n      tag_19\n      tag_20\n      jump\t// in\n    tag_19:\n      stop\n        /* \"Project/FundMe.sol\":1052:1078  uint256 public myValue = 1 */\n    tag_4:\n      callvalue\n      dup1\n      iszero\n      tag_21\n      jumpi\n      revert(0x00, 0x00)\n    tag_21:\n      pop\n      tag_22\n      tag_23\n      jump\t// in\n    tag_22:\n      mload(0x40)\n      tag_24\n      swap2\n      swap1\n      tag_25\n      jump\t// in\n    tag_24:\n      mload(0x40)\n      dup1\n      swap2\n      sub\n      swap1\n      return\n        /* \"Project/FundMe.sol\":1085:1123  uint256 public constant miniUSD = 5e18 */\n    tag_5:\n      callvalue\n      dup1\n      iszero\n      tag_26\n      jumpi\n      revert(0x00, 0x00)\n    tag_26:\n      pop\n      tag_27\n      tag_28\n      jump\t// in\n    tag_27:\n      mload(0x40)\n      tag_29\n      swap2\n      swap1\n      tag_25\n      jump\t// in\n    tag_29:\n      mload(0x40)\n      dup1\n      swap2\n      sub\n      swap1\n      return\n        /* \"Project/FundMe.sol\":1386:1981  function fund() public payable {... */\n    tag_6:\n      tag_30\n      tag_14\n      jump\t// in\n    tag_30:\n      stop\n        /* \"Project/FundMe.sol\":1217:1249  address public immutable i_owner */\n    tag_7:\n      callvalue\n      dup1\n      iszero\n      tag_31\n      jumpi\n      revert(0x00, 0x00)\n    tag_31:\n      pop\n      tag_32\n      tag_33\n      jump\t// in\n    tag_32:\n      mload(0x40)\n      tag_34\n      swap2\n      swap1\n      tag_35\n      jump\t// in\n    tag_34:\n      mload(0x40)\n      dup1\n      swap2\n      sub\n      swap1\n      return\n        /* \"Project/FundMe.sol\":1130:1154  address[] public funders */\n    tag_8:\n      callvalue\n      dup1\n      iszero\n      tag_36\n      jumpi\n      revert(0x00, 0x00)\n    tag_36:\n      pop\n      tag_37\n      0x04\n      dup1\n      calldatasize\n      sub\n      dup2\n      add\n      swap1\n      tag_38\n      swap2\n      swap1\n      tag_39\n      jump\t// in\n    tag_38:\n      tag_40\n      jump\t// in\n    tag_37:\n      mload(0x40)\n      tag_41\n      swap2\n      swap1\n      tag_35\n      jump\t// in\n    tag_41:\n      mload(0x40)\n      dup1\n      swap2\n      sub\n      swap1\n      return\n        /* \"Project/FundMe.sol\":1160:1210  mapping(address => uint256) public AddressToAmount */\n    tag_9:\n      callvalue\n      dup1\n      iszero\n      tag_42\n      jumpi\n      revert(0x00, 0x00)\n    tag_42:\n      pop\n      tag_43\n      0x04\n      dup1\n      calldatasize\n      sub\n      dup2\n      add\n      swap1\n      tag_44\n      swap2\n      swap1\n      tag_45\n      jump\t// in\n    tag_44:\n      tag_46\n      jump\t// in\n    tag_43:\n      mload(0x40)\n      tag_47\n      swap2\n      swap1\n      tag_25\n      jump\t// in\n    tag_47:\n      mload(0x40)\n      dup1\n      swap2\n      sub\n      swap1\n      return\n        /* \"Project/FundMe.sol\":1386:1981  function fund() public payable {... */\n    tag_14:\n        /* \"Project/FundMe.sol\":1514:1515  2 */\n      0x02\n        /* \"Project/FundMe.sol\":1503:1510  myValue */\n      0x00\n      0x00\n        /* \"Project/FundMe.sol\":1503:1515  myValue += 2 */\n      dup3\n      dup3\n      sload\n      tag_49\n      swap2\n      swap1\n      tag_50\n      jump\t// in\n    tag_49:\n      swap3\n      pop\n      pop\n      dup2\n      swap1\n      sstore\n      pop\n        /* \"Project/FundMe.sol\":1119:1123  5e18 */\n      0x4563918244f40000\n        /* \"Project/FundMe.sol\":1776:1802  msg.value.priceConverter() */\n      tag_51\n        /* \"Project/FundMe.sol\":1776:1785  msg.value */\n      callvalue\n        /* \"Project/FundMe.sol\":1776:1800  msg.value.priceConverter */\n      tag_52\n        /* \"Project/FundMe.sol\":1776:1802  msg.value.priceConverter() */\n      jump\t// in\n    tag_51:\n        /* \"Project/FundMe.sol\":1776:1813  msg.value.priceConverter() >= miniUSD */\n      lt\n      iszero\n        /* \"Project/FundMe.sol\":1755:1861  require(... */\n      tag_53\n      jumpi\n      mload(0x40)\n      0x08c379a000000000000000000000000000000000000000000000000000000000\n      dup2\n      mstore\n      0x04\n      add\n      tag_54\n      swap1\n      tag_55\n      jump\t// in\n    tag_54:\n      mload(0x40)\n      dup1\n      swap2\n      sub\n      swap1\n      revert\n    tag_53:\n        /* \"Project/FundMe.sol\":1871:1878  funders */\n      0x01\n        /* \"Project/FundMe.sol\":1884:1894  msg.sender */\n      caller\n        /* \"Project/FundMe.sol\":1871:1895  funders.push(msg.sender) */\n      swap1\n      dup1\n      0x01\n      dup2\n      sload\n      add\n      dup1\n      dup3\n      sstore\n      dup1\n      swap2\n      pop\n      pop\n      0x01\n      swap1\n      sub\n      swap1\n      0x00\n      mstore\n      keccak256(0x00, 0x20)\n      add\n      0x00\n      swap1\n      swap2\n      swap1\n      swap2\n      swap1\n      swap2\n      0x0100\n      exp\n      dup2\n      sload\n      dup2\n      0xffffffffffffffffffffffffffffffffffffffff\n      mul\n      not\n      and\n      swap1\n      dup4\n      0xffffffffffffffffffffffffffffffffffffffff\n      and\n      mul\n      or\n      swap1\n      sstore\n      pop\n        /* \"Project/FundMe.sol\":1965:1974  msg.value */\n      callvalue\n        /* \"Project/FundMe.sol\":1935:1950  AddressToAmount */\n      0x02\n        /* \"Project/FundMe.sol\":1935:1962  AddressToAmount[msg.sender] */\n      0x00\n        /* \"Project/FundMe.sol\":1951:1961  msg.sender */\n      caller\n        /* \"Project/FundMe.sol\":1935:1962  AddressToAmount[msg.sender] */\n      0xffffffffffffffffffffffffffffffffffffffff\n      and\n      0xffffffffffffffffffffffffffffffffffffffff\n      and\n      dup2\n      mstore\n      0x20\n      add\n      swap1\n      dup2\n      mstore\n      0x20\n      add\n      0x00\n      keccak256\n      sload\n        /* \"Project/FundMe.sol\":1935:1974  AddressToAmount[msg.sender] + msg.value */\n      tag_57\n      swap2\n      swap1\n      tag_50\n      jump\t// in\n    tag_57:\n        /* \"Project/FundMe.sol\":1905:1920  AddressToAmount */\n      0x02\n        /* \"Project/FundMe.sol\":1905:1932  AddressToAmount[msg.sender] */\n      0x00\n        /* \"Project/FundMe.sol\":1921:1931  msg.sender */\n      caller\n        /* \"Project/FundMe.sol\":1905:1932  AddressToAmount[msg.sender] */\n      0xffffffffffffffffffffffffffffffffffffffff\n      and\n      0xffffffffffffffffffffffffffffffffffffffff\n      and\n      dup2\n      mstore\n      0x20\n      add\n      swap1\n      dup2\n      mstore\n      0x20\n      add\n      0x00\n      keccak256\n        /* \"Project/FundMe.sol\":1905:1974  AddressToAmount[msg.sender] = AddressToAmount[msg.sender] + msg.value */\n      dup2\n      swap1\n      sstore\n      pop\n        /* \"Project/FundMe.sol\":1386:1981  function fund() public payable {... */\n      jump\t// out\n        /* \"Project/FundMe.sol\":1987:2788  function withdraw() public onlyOwner {... */\n    tag_20:\n        /* \"Project/FundMe.sol\":2858:2865  i_owner */\n      immutable(\"0x2cc0d3dcb20652cd8f106aee76b6a7391771a130885634c0eb2bbe3cde796691\")\n        /* \"Project/FundMe.sol\":2844:2865  msg.sender != i_owner */\n      0xffffffffffffffffffffffffffffffffffffffff\n      and\n        /* \"Project/FundMe.sol\":2844:2854  msg.sender */\n      caller\n        /* \"Project/FundMe.sol\":2844:2865  msg.sender != i_owner */\n      0xffffffffffffffffffffffffffffffffffffffff\n      and\n      eq\n        /* \"Project/FundMe.sol\":2840:2909  if (msg.sender != i_owner) {... */\n      tag_59\n      jumpi\n        /* \"Project/FundMe.sol\":2888:2898  NotOwner() */\n      mload(0x40)\n      0x30cd747100000000000000000000000000000000000000000000000000000000\n      dup2\n      mstore\n      0x04\n      add\n      mload(0x40)\n      dup1\n      swap2\n      sub\n      swap1\n      revert\n        /* \"Project/FundMe.sol\":2840:2909  if (msg.sender != i_owner) {... */\n    tag_59:\n        /* \"Project/FundMe.sol\":2060:2074  uint256 funder */\n      0x00\n        /* \"Project/FundMe.sol\":2077:2078  0 */\n      0x00\n        /* \"Project/FundMe.sol\":2060:2078  uint256 funder = 0 */\n      swap1\n      pop\n        /* \"Project/FundMe.sol\":2055:2211  for (uint256 funder = 0; funder < funders.length; funder++) {... */\n    tag_61:\n        /* \"Project/FundMe.sol\":2089:2096  funders */\n      0x01\n        /* \"Project/FundMe.sol\":2089:2103  funders.length */\n      dup1\n      sload\n      swap1\n      pop\n        /* \"Project/FundMe.sol\":2080:2086  funder */\n      dup2\n        /* \"Project/FundMe.sol\":2080:2103  funder < funders.length */\n      lt\n        /* \"Project/FundMe.sol\":2055:2211  for (uint256 funder = 0; funder < funders.length; funder++) {... */\n      iszero\n      tag_62\n      jumpi\n        /* \"Project/FundMe.sol\":2129:2142  address index */\n      0x00\n        /* \"Project/FundMe.sol\":2145:2152  funders */\n      0x01\n        /* \"Project/FundMe.sol\":2153:2159  funder */\n      dup3\n        /* \"Project/FundMe.sol\":2145:2160  funders[funder] */\n      dup2\n      sload\n      dup2\n      lt\n      tag_64\n      jumpi\n      tag_65\n      tag_66\n      jump\t// in\n    tag_65:\n    tag_64:\n      swap1\n      0x00\n      mstore\n      keccak256(0x00, 0x20)\n      add\n      0x00\n      swap1\n      sload\n      swap1\n      0x0100\n      exp\n      swap1\n      div\n      0xffffffffffffffffffffffffffffffffffffffff\n      and\n        /* \"Project/FundMe.sol\":2129:2160  address index = funders[funder] */\n      swap1\n      pop\n        /* \"Project/FundMe.sol\":2199:2200  0 */\n      0x00\n        /* \"Project/FundMe.sol\":2174:2189  AddressToAmount */\n      0x02\n        /* \"Project/FundMe.sol\":2174:2196  AddressToAmount[index] */\n      0x00\n        /* \"Project/FundMe.sol\":2190:2195  index */\n      dup4\n        /* \"Project/FundMe.sol\":2174:2196  AddressToAmount[index] */\n      0xffffffffffffffffffffffffffffffffffffffff\n      and\n      0xffffffffffffffffffffffffffffffffffffffff\n      and\n      dup2\n      mstore\n      0x20\n      add\n      swap1\n      dup2\n      mstore\n      0x20\n      add\n      0x00\n      keccak256\n        /* \"Project/FundMe.sol\":2174:2200  AddressToAmount[index] = 0 */\n      dup2\n      swap1\n      sstore\n      pop\n        /* \"Project/FundMe.sol\":2115:2211  {... */\n      pop\n        /* \"Project/FundMe.sol\":2105:2113  funder++ */\n      dup1\n      dup1\n      0x01\n      add\n      swap2\n      pop\n      pop\n        /* \"Project/FundMe.sol\":2055:2211  for (uint256 funder = 0; funder < funders.length; funder++) {... */\n      jump(tag_61)\n    tag_62:\n      pop\n        /* \"Project/FundMe.sol\":2245:2246  0 */\n      0x00\n        /* \"Project/FundMe.sol\":2231:2247  new address[](0) */\n      0xffffffffffffffff\n      dup2\n      gt\n      iszero\n      tag_68\n      jumpi\n      tag_69\n      tag_70\n      jump\t// in\n    tag_69:\n    tag_68:\n      mload(0x40)\n      swap1\n      dup1\n      dup3\n      mstore\n      dup1\n      0x20\n      mul\n      0x20\n      add\n      dup3\n      add\n      0x40\n      mstore\n      dup1\n      iszero\n      tag_71\n      jumpi\n      dup2\n      0x20\n      add\n      0x20\n      dup3\n      mul\n      dup1\n      calldatasize\n      dup4\n      calldatacopy\n      dup1\n      dup3\n      add\n      swap2\n      pop\n      pop\n      swap1\n      pop\n    tag_71:\n      pop\n        /* \"Project/FundMe.sol\":2221:2228  funders */\n      0x01\n        /* \"Project/FundMe.sol\":2221:2247  funders = new address[](0) */\n      swap1\n      dup1\n      mload\n      swap1\n      0x20\n      add\n      swap1\n      tag_72\n      swap3\n      swap2\n      swap1\n      tag_73\n      jump\t// in\n    tag_72:\n      pop\n        /* \"Project/FundMe.sol\":2393:2403  msg.sender */\n      caller\n        /* \"Project/FundMe.sol\":2385:2413  payable(msg.sender).transfer */\n      0xffffffffffffffffffffffffffffffffffffffff\n      and\n        /* \"Project/FundMe.sol\":2385:2436  payable(msg.sender).transfer(address(this).balance) */\n      0x08fc\n        /* \"Project/FundMe.sol\":2414:2435  address(this).balance */\n      selfbalance\n        /* \"Project/FundMe.sol\":2385:2436  payable(msg.sender).transfer(address(this).balance) */\n      swap1\n      dup2\n      iszero\n      mul\n      swap1\n      mload(0x40)\n      0x00\n      mload(0x40)\n      dup1\n      dup4\n      sub\n      dup2\n      dup6\n      dup9\n      dup9\n      call\n      swap4\n      pop\n      pop\n      pop\n      pop\n      iszero\n      dup1\n      iszero\n      tag_75\n      jumpi\n      returndatacopy(0x00, 0x00, returndatasize)\n      revert(0x00, returndatasize)\n    tag_75:\n      pop\n        /* \"Project/FundMe.sol\":2462:2478  bool sendSuccess */\n      0x00\n        /* \"Project/FundMe.sol\":2489:2499  msg.sender */\n      caller\n        /* \"Project/FundMe.sol\":2481:2505  payable(msg.sender).send */\n      0xffffffffffffffffffffffffffffffffffffffff\n      and\n        /* \"Project/FundMe.sol\":2481:2528  payable(msg.sender).send(address(this).balance) */\n      0x08fc\n        /* \"Project/FundMe.sol\":2506:2527  address(this).balance */\n      selfbalance\n        /* \"Project/FundMe.sol\":2481:2528  payable(msg.sender).send(address(this).balance) */\n      swap1\n      dup2\n      iszero\n      mul\n      swap1\n      mload(0x40)\n      0x00\n      mload(0x40)\n      dup1\n      dup4\n      sub\n      dup2\n      dup6\n      dup9\n      dup9\n      call\n      swap4\n      pop\n      pop\n      pop\n      pop\n        /* \"Project/FundMe.sol\":2462:2528  bool sendSuccess = payable(msg.sender).send(address(this).balance) */\n      swap1\n      pop\n        /* \"Project/FundMe.sol\":2546:2557  sendSuccess */\n      dup1\n        /* \"Project/FundMe.sol\":2538:2573  require(sendSuccess, \"Send failed\") */\n      tag_77\n      jumpi\n      mload(0x40)\n      0x08c379a000000000000000000000000000000000000000000000000000000000\n      dup2\n      mstore\n      0x04\n      add\n      tag_78\n      swap1\n      tag_79\n      jump\t// in\n    tag_78:\n      mload(0x40)\n      dup1\n      swap2\n      sub\n      swap1\n      revert\n    tag_77:\n        /* \"Project/FundMe.sol\":2601:2617  bool callSuccess */\n      0x00\n        /* \"Project/FundMe.sol\":2631:2641  msg.sender */\n      caller\n        /* \"Project/FundMe.sol\":2623:2647  payable(msg.sender).call */\n      0xffffffffffffffffffffffffffffffffffffffff\n      and\n        /* \"Project/FundMe.sol\":2668:2689  address(this).balance */\n      selfbalance\n        /* \"Project/FundMe.sol\":2623:2703  payable(msg.sender).call{... */\n      mload(0x40)\n      tag_80\n      swap1\n      tag_81\n      jump\t// in\n    tag_80:\n      0x00\n      mload(0x40)\n      dup1\n      dup4\n      sub\n      dup2\n      dup6\n      dup8\n      gas\n      call\n      swap3\n      pop\n      pop\n      pop\n      returndatasize\n      dup1\n      0x00\n      dup2\n      eq\n      tag_84\n      jumpi\n      mload(0x40)\n      swap2\n      pop\n      and(add(returndatasize, 0x3f), not(0x1f))\n      dup3\n      add\n      0x40\n      mstore\n      returndatasize\n      dup3\n      mstore\n      returndatasize\n      0x00\n      0x20\n      dup5\n      add\n      returndatacopy\n      jump(tag_83)\n    tag_84:\n      0x60\n      swap2\n      pop\n    tag_83:\n      pop\n        /* \"Project/FundMe.sol\":2600:2703  (bool callSuccess, ) = payable(msg.sender).call{... */\n      pop\n      swap1\n      pop\n        /* \"Project/FundMe.sol\":2732:2736  true */\n      0x01\n        /* \"Project/FundMe.sol\":2717:2736  callSuccess != true */\n      iszero\n      iszero\n        /* \"Project/FundMe.sol\":2717:2728  callSuccess */\n      dup2\n        /* \"Project/FundMe.sol\":2717:2736  callSuccess != true */\n      iszero\n      iszero\n      eq\n        /* \"Project/FundMe.sol\":2713:2782  if (callSuccess != true) {... */\n      tag_85\n      jumpi\n        /* \"Project/FundMe.sol\":2759:2771  CallFailed() */\n      mload(0x40)\n      0x3204506f00000000000000000000000000000000000000000000000000000000\n      dup2\n      mstore\n      0x04\n      add\n      mload(0x40)\n      dup1\n      swap2\n      sub\n      swap1\n      revert\n        /* \"Project/FundMe.sol\":2713:2782  if (callSuccess != true) {... */\n    tag_85:\n        /* \"Project/FundMe.sol\":2024:2788  {... */\n      pop\n      pop\n        /* \"Project/FundMe.sol\":1987:2788  function withdraw() public onlyOwner {... */\n      jump\t// out\n        /* \"Project/FundMe.sol\":1052:1078  uint256 public myValue = 1 */\n    tag_23:\n      sload(0x00)\n      dup2\n      jump\t// out\n        /* \"Project/FundMe.sol\":1085:1123  uint256 public constant miniUSD = 5e18 */\n    tag_28:\n        /* \"Project/FundMe.sol\":1119:1123  5e18 */\n      0x4563918244f40000\n        /* \"Project/FundMe.sol\":1085:1123  uint256 public constant miniUSD = 5e18 */\n      dup2\n      jump\t// out\n        /* \"Project/FundMe.sol\":1217:1249  address public immutable i_owner */\n    tag_33:\n      immutable(\"0x2cc0d3dcb20652cd8f106aee76b6a7391771a130885634c0eb2bbe3cde796691\")\n      dup2\n      jump\t// out\n        /* \"Project/FundMe.sol\":1130:1154  address[] public funders */\n    tag_40:\n      0x01\n      dup2\n      dup2\n      sload\n      dup2\n      lt\n      tag_86\n      jumpi\n      0x00\n      dup1\n      revert\n    tag_86:\n      swap1\n      0x00\n      mstore\n      keccak256(0x00, 0x20)\n      add\n      0x00\n      swap2\n      pop\n      sload\n      swap1\n      0x0100\n      exp\n      swap1\n      div\n      0xffffffffffffffffffffffffffffffffffffffff\n      and\n      dup2\n      jump\t// out\n        /* \"Project/FundMe.sol\":1160:1210  mapping(address => uint256) public AddressToAmount */\n    tag_46:\n      mstore(0x20, 0x02)\n      dup1\n      0x00\n      mstore\n      keccak256(0x00, 0x40)\n      0x00\n      swap2\n      pop\n      swap1\n      pop\n      sload\n      dup2\n      jump\t// out\n        /* \"Project/PriceConverter.sol\":620:830  function priceConverter(uint256 ethamount) internal view returns(uint256){... */\n    tag_52:\n        /* \"Project/PriceConverter.sol\":685:692  uint256 */\n      0x00\n        /* \"Project/PriceConverter.sol\":703:719  uint256 ethPrice */\n      0x00\n        /* \"Project/PriceConverter.sol\":722:732  getPrice() */\n      tag_89\n        /* \"Project/PriceConverter.sol\":722:730  getPrice */\n      tag_90\n        /* \"Project/PriceConverter.sol\":722:732  getPrice() */\n      jump\t// in\n    tag_89:\n        /* \"Project/PriceConverter.sol\":703:732  uint256 ethPrice = getPrice() */\n      swap1\n      pop\n        /* \"Project/PriceConverter.sol\":742:764  uint256 ethAmountInUsd */\n      0x00\n        /* \"Project/PriceConverter.sol\":788:792  1e18 */\n      0x0de0b6b3a7640000\n        /* \"Project/PriceConverter.sol\":777:786  ethamount */\n      dup5\n        /* \"Project/PriceConverter.sol\":768:776  ethPrice */\n      dup4\n        /* \"Project/PriceConverter.sol\":768:786  ethPrice*ethamount */\n      tag_91\n      swap2\n      swap1\n      tag_92\n      jump\t// in\n    tag_91:\n        /* \"Project/PriceConverter.sol\":767:792  (ethPrice*ethamount)/1e18 */\n      tag_93\n      swap2\n      swap1\n      tag_94\n      jump\t// in\n    tag_93:\n        /* \"Project/PriceConverter.sol\":742:792  uint256 ethAmountInUsd = (ethPrice*ethamount)/1e18 */\n      swap1\n      pop\n        /* \"Project/PriceConverter.sol\":809:823  ethAmountInUsd */\n      dup1\n        /* \"Project/PriceConverter.sol\":802:823  return ethAmountInUsd */\n      swap3\n      pop\n      pop\n      pop\n        /* \"Project/PriceConverter.sol\":620:830  function priceConverter(uint256 ethamount) internal view returns(uint256){... */\n      swap2\n      swap1\n      pop\n      jump\t// out\n        /* \"Project/PriceConverter.sol\":233:614  function getPrice() internal view returns(uint256){... */\n    tag_90:\n        /* \"Project/PriceConverter.sol\":275:282  uint256 */\n      0x00\n        /* \"Project/PriceConverter.sol\":374:405  AggregatorV3Interface priceFeed */\n      0x00\n        /* \"Project/PriceConverter.sol\":430:472  0x694AA1769357215DE4FAC081bf1f309aDC325306 */\n      0x694aa1769357215de4fac081bf1f309adc325306\n        /* \"Project/PriceConverter.sol\":374:473  AggregatorV3Interface priceFeed = AggregatorV3Interface(0x694AA1769357215DE4FAC081bf1f309aDC325306) */\n      swap1\n      pop\n        /* \"Project/PriceConverter.sol\":485:497  int256 price */\n      0x00\n        /* \"Project/PriceConverter.sol\":502:511  priceFeed */\n      dup2\n        /* \"Project/PriceConverter.sol\":502:527  priceFeed.latestRoundData */\n      0xffffffffffffffffffffffffffffffffffffffff\n      and\n      0xfeaf968c\n        /* \"Project/PriceConverter.sol\":502:529  priceFeed.latestRoundData() */\n      mload(0x40)\n      dup2\n      0xffffffff\n      and\n      0xe0\n      shl\n      dup2\n      mstore\n      0x04\n      add\n      0xa0\n      mload(0x40)\n      dup1\n      dup4\n      sub\n      dup2\n      dup7\n      gas\n      staticcall\n      iszero\n      dup1\n      iszero\n      tag_97\n      jumpi\n      returndatacopy(0x00, 0x00, returndatasize)\n      revert(0x00, returndatasize)\n    tag_97:\n      pop\n      pop\n      pop\n      pop\n      mload(0x40)\n      returndatasize\n      not(0x1f)\n      0x1f\n      dup3\n      add\n      and\n      dup3\n      add\n      dup1\n      0x40\n      mstore\n      pop\n      dup2\n      add\n      swap1\n      tag_98\n      swap2\n      swap1\n      tag_99\n      jump\t// in\n    tag_98:\n        /* \"Project/PriceConverter.sol\":483:529  (,int256 price,,,)=priceFeed.latestRoundData() */\n      pop\n      pop\n      pop\n      swap2\n      pop\n      pop\n        /* \"Project/PriceConverter.sol\":602:606  1e10 */\n      0x02540be400\n        /* \"Project/PriceConverter.sol\":596:601  price */\n      dup2\n        /* \"Project/PriceConverter.sol\":596:606  price*1e10 */\n      tag_100\n      swap2\n      swap1\n      tag_101\n      jump\t// in\n    tag_100:\n        /* \"Project/PriceConverter.sol\":579:607  return (uint256)(price*1e10) */\n      swap3\n      pop\n      pop\n      pop\n        /* \"Project/PriceConverter.sol\":233:614  function getPrice() internal view returns(uint256){... */\n      swap1\n      jump\t// out\n    tag_73:\n      dup3\n      dup1\n      sload\n      dup3\n      dup3\n      sstore\n      swap1\n      0x00\n      mstore\n      keccak256(0x00, 0x20)\n      swap1\n      dup2\n      add\n      swap3\n      dup3\n      iszero\n      tag_102\n      jumpi\n      swap2\n      0x20\n      mul\n      dup3\n      add\n    tag_103:\n      dup3\n      dup2\n      gt\n      iszero\n      tag_104\n      jumpi\n      dup3\n      mload\n      dup3\n      exp(0x0100, 0x00)\n      dup2\n      sload\n      dup2\n      0xffffffffffffffffffffffffffffffffffffffff\n      mul\n      not\n      and\n      swap1\n      dup4\n      0xffffffffffffffffffffffffffffffffffffffff\n      and\n      mul\n      or\n      swap1\n      sstore\n      pop\n      swap2\n      0x20\n      add\n      swap2\n      swap1\n      0x01\n      add\n      swap1\n      jump(tag_103)\n    tag_104:\n    tag_102:\n      pop\n      swap1\n      pop\n      tag_105\n      swap2\n      swap1\n      tag_106\n      jump\t// in\n    tag_105:\n      pop\n      swap1\n      jump\t// out\n    tag_106:\n    tag_107:\n      dup1\n      dup3\n      gt\n      iszero\n      tag_108\n      jumpi\n      0x00\n      dup2\n      0x00\n      swap1\n      sstore\n      pop\n      0x01\n      add\n      jump(tag_107)\n    tag_108:\n      pop\n      swap1\n      jump\t// out\n        /* \"#utility.yul\":7:84   */\n    tag_109:\n        /* \"#utility.yul\":44:51   */\n      0x00\n        /* \"#utility.yul\":73:78   */\n      dup2\n        /* \"#utility.yul\":62:78   */\n      swap1\n      pop\n        /* \"#utility.yul\":7:84   */\n      swap2\n      swap1\n      pop\n      jump\t// out\n        /* \"#utility.yul\":90:208   */\n    tag_110:\n        /* \"#utility.yul\":177:201   */\n      tag_141\n        /* \"#utility.yul\":195:200   */\n      dup2\n        /* \"#utility.yul\":177:201   */\n      tag_109\n      jump\t// in\n    tag_141:\n        /* \"#utility.yul\":172:175   */\n      dup3\n        /* \"#utility.yul\":165:202   */\n      mstore\n        /* \"#utility.yul\":90:208   */\n      pop\n      pop\n      jump\t// out\n        /* \"#utility.yul\":214:436   */\n    tag_25:\n        /* \"#utility.yul\":307:311   */\n      0x00\n        /* \"#utility.yul\":345:347   */\n      0x20\n        /* \"#utility.yul\":334:343   */\n      dup3\n        /* \"#utility.yul\":330:348   */\n      add\n        /* \"#utility.yul\":322:348   */\n      swap1\n      pop\n        /* \"#utility.yul\":358:429   */\n      tag_143\n        /* \"#utility.yul\":426:427   */\n      0x00\n        /* \"#utility.yul\":415:424   */\n      dup4\n        /* \"#utility.yul\":411:428   */\n      add\n        /* \"#utility.yul\":402:408   */\n      dup5\n        /* \"#utility.yul\":358:429   */\n      tag_110\n      jump\t// in\n    tag_143:\n        /* \"#utility.yul\":214:436   */\n      swap3\n      swap2\n      pop\n      pop\n      jump\t// out\n        /* \"#utility.yul\":442:568   */\n    tag_111:\n        /* \"#utility.yul\":479:486   */\n      0x00\n        /* \"#utility.yul\":519:561   */\n      0xffffffffffffffffffffffffffffffffffffffff\n        /* \"#utility.yul\":512:517   */\n      dup3\n        /* \"#utility.yul\":508:562   */\n      and\n        /* \"#utility.yul\":497:562   */\n      swap1\n      pop\n        /* \"#utility.yul\":442:568   */\n      swap2\n      swap1\n      pop\n      jump\t// out\n        /* \"#utility.yul\":574:670   */\n    tag_112:\n        /* \"#utility.yul\":611:618   */\n      0x00\n        /* \"#utility.yul\":640:664   */\n      tag_146\n        /* \"#utility.yul\":658:663   */\n      dup3\n        /* \"#utility.yul\":640:664   */\n      tag_111\n      jump\t// in\n    tag_146:\n        /* \"#utility.yul\":629:664   */\n      swap1\n      pop\n        /* \"#utility.yul\":574:670   */\n      swap2\n      swap1\n      pop\n      jump\t// out\n        /* \"#utility.yul\":676:794   */\n    tag_113:\n        /* \"#utility.yul\":763:787   */\n      tag_148\n        /* \"#utility.yul\":781:786   */\n      dup2\n        /* \"#utility.yul\":763:787   */\n      tag_112\n      jump\t// in\n    tag_148:\n        /* \"#utility.yul\":758:761   */\n      dup3\n        /* \"#utility.yul\":751:788   */\n      mstore\n        /* \"#utility.yul\":676:794   */\n      pop\n      pop\n      jump\t// out\n        /* \"#utility.yul\":800:1022   */\n    tag_35:\n        /* \"#utility.yul\":893:897   */\n      0x00\n        /* \"#utility.yul\":931:933   */\n      0x20\n        /* \"#utility.yul\":920:929   */\n      dup3\n        /* \"#utility.yul\":916:934   */\n      add\n        /* \"#utility.yul\":908:934   */\n      swap1\n      pop\n        /* \"#utility.yul\":944:1015   */\n      tag_150\n        /* \"#utility.yul\":1012:1013   */\n      0x00\n        /* \"#utility.yul\":1001:1010   */\n      dup4\n        /* \"#utility.yul\":997:1014   */\n      add\n        /* \"#utility.yul\":988:994   */\n      dup5\n        /* \"#utility.yul\":944:1015   */\n      tag_113\n      jump\t// in\n    tag_150:\n        /* \"#utility.yul\":800:1022   */\n      swap3\n      swap2\n      pop\n      pop\n      jump\t// out\n        /* \"#utility.yul\":1109:1226   */\n    tag_115:\n        /* \"#utility.yul\":1218:1219   */\n      0x00\n        /* \"#utility.yul\":1215:1216   */\n      0x00\n        /* \"#utility.yul\":1208:1220   */\n      revert\n        /* \"#utility.yul\":1355:1477   */\n    tag_117:\n        /* \"#utility.yul\":1428:1452   */\n      tag_155\n        /* \"#utility.yul\":1446:1451   */\n      dup2\n        /* \"#utility.yul\":1428:1452   */\n      tag_109\n      jump\t// in\n    tag_155:\n        /* \"#utility.yul\":1421:1426   */\n      dup2\n        /* \"#utility.yul\":1418:1453   */\n      eq\n        /* \"#utility.yul\":1408:1471   */\n      tag_156\n      jumpi\n        /* \"#utility.yul\":1467:1468   */\n      0x00\n        /* \"#utility.yul\":1464:1465   */\n      0x00\n        /* \"#utility.yul\":1457:1469   */\n      revert\n        /* \"#utility.yul\":1408:1471   */\n    tag_156:\n        /* \"#utility.yul\":1355:1477   */\n      pop\n      jump\t// out\n        /* \"#utility.yul\":1483:1622   */\n    tag_118:\n        /* \"#utility.yul\":1529:1534   */\n      0x00\n        /* \"#utility.yul\":1567:1573   */\n      dup2\n        /* \"#utility.yul\":1554:1574   */\n      calldataload\n        /* \"#utility.yul\":1545:1574   */\n      swap1\n      pop\n        /* \"#utility.yul\":1583:1616   */\n      tag_158\n        /* \"#utility.yul\":1610:1615   */\n      dup2\n        /* \"#utility.yul\":1583:1616   */\n      tag_117\n      jump\t// in\n    tag_158:\n        /* \"#utility.yul\":1483:1622   */\n      swap3\n      swap2\n      pop\n      pop\n      jump\t// out\n        /* \"#utility.yul\":1628:1957   */\n    tag_39:\n        /* \"#utility.yul\":1687:1693   */\n      0x00\n        /* \"#utility.yul\":1736:1738   */\n      0x20\n        /* \"#utility.yul\":1724:1733   */\n      dup3\n        /* \"#utility.yul\":1715:1722   */\n      dup5\n        /* \"#utility.yul\":1711:1734   */\n      sub\n        /* \"#utility.yul\":1707:1739   */\n      slt\n        /* \"#utility.yul\":1704:1823   */\n      iszero\n      tag_160\n      jumpi\n        /* \"#utility.yul\":1742:1821   */\n      tag_161\n      tag_115\n      jump\t// in\n    tag_161:\n        /* \"#utility.yul\":1704:1823   */\n    tag_160:\n        /* \"#utility.yul\":1862:1863   */\n      0x00\n        /* \"#utility.yul\":1887:1940   */\n      tag_162\n        /* \"#utility.yul\":1932:1939   */\n      dup5\n        /* \"#utility.yul\":1923:1929   */\n      dup3\n        /* \"#utility.yul\":1912:1921   */\n      dup6\n        /* \"#utility.yul\":1908:1930   */\n      add\n        /* \"#utility.yul\":1887:1940   */\n      tag_118\n      jump\t// in\n    tag_162:\n        /* \"#utility.yul\":1877:1940   */\n      swap2\n      pop\n        /* \"#utility.yul\":1833:1950   */\n      pop\n        /* \"#utility.yul\":1628:1957   */\n      swap3\n      swap2\n      pop\n      pop\n      jump\t// out\n        /* \"#utility.yul\":1963:2085   */\n    tag_119:\n        /* \"#utility.yul\":2036:2060   */\n      tag_164\n        /* \"#utility.yul\":2054:2059   */\n      dup2\n        /* \"#utility.yul\":2036:2060   */\n      tag_112\n      jump\t// in\n    tag_164:\n        /* \"#utility.yul\":2029:2034   */\n      dup2\n        /* \"#utility.yul\":2026:2061   */\n      eq\n        /* \"#utility.yul\":2016:2079   */\n      tag_165\n      jumpi\n        /* \"#utility.yul\":2075:2076   */\n      0x00\n        /* \"#utility.yul\":2072:2073   */\n      0x00\n        /* \"#utility.yul\":2065:2077   */\n      revert\n        /* \"#utility.yul\":2016:2079   */\n    tag_165:\n        /* \"#utility.yul\":1963:2085   */\n      pop\n      jump\t// out\n        /* \"#utility.yul\":2091:2230   */\n    tag_120:\n        /* \"#utility.yul\":2137:2142   */\n      0x00\n        /* \"#utility.yul\":2175:2181   */\n      dup2\n        /* \"#utility.yul\":2162:2182   */\n      calldataload\n        /* \"#utility.yul\":2153:2182   */\n      swap1\n      pop\n        /* \"#utility.yul\":2191:2224   */\n      tag_167\n        /* \"#utility.yul\":2218:2223   */\n      dup2\n        /* \"#utility.yul\":2191:2224   */\n      tag_119\n      jump\t// in\n    tag_167:\n        /* \"#utility.yul\":2091:2230   */\n      swap3\n      swap2\n      pop\n      pop\n      jump\t// out\n        /* \"#utility.yul\":2236:2565   */\n    tag_45:\n        /* \"#utility.yul\":2295:2301   */\n      0x00\n        /* \"#utility.yul\":2344:2346   */\n      0x20\n        /* \"#utility.yul\":2332:2341   */\n      dup3\n        /* \"#utility.yul\":2323:2330   */\n      dup5\n        /* \"#utility.yul\":2319:2342   */\n      sub\n        /* \"#utility.yul\":2315:2347   */\n      slt\n        /* \"#utility.yul\":2312:2431   */\n      iszero\n      tag_169\n      jumpi\n        /* \"#utility.yul\":2350:2429   */\n      tag_170\n      tag_115\n      jump\t// in\n    tag_170:\n        /* \"#utility.yul\":2312:2431   */\n    tag_169:\n        /* \"#utility.yul\":2470:2471   */\n      0x00\n        /* \"#utility.yul\":2495:2548   */\n      tag_171\n        /* \"#utility.yul\":2540:2547   */\n      dup5\n        /* \"#utility.yul\":2531:2537   */\n      dup3\n        /* \"#utility.yul\":2520:2529   */\n      dup6\n        /* \"#utility.yul\":2516:2538   */\n      add\n        /* \"#utility.yul\":2495:2548   */\n      tag_120\n      jump\t// in\n    tag_171:\n        /* \"#utility.yul\":2485:2548   */\n      swap2\n      pop\n        /* \"#utility.yul\":2441:2558   */\n      pop\n        /* \"#utility.yul\":2236:2565   */\n      swap3\n      swap2\n      pop\n      pop\n      jump\t// out\n        /* \"#utility.yul\":2571:2751   */\n    tag_121:\n        /* \"#utility.yul\":2619:2696   */\n      0x4e487b7100000000000000000000000000000000000000000000000000000000\n        /* \"#utility.yul\":2616:2617   */\n      0x00\n        /* \"#utility.yul\":2609:2697   */\n      mstore\n        /* \"#utility.yul\":2716:2720   */\n      0x11\n        /* \"#utility.yul\":2713:2714   */\n      0x04\n        /* \"#utility.yul\":2706:2721   */\n      mstore\n        /* \"#utility.yul\":2740:2744   */\n      0x24\n        /* \"#utility.yul\":2737:2738   */\n      0x00\n        /* \"#utility.yul\":2730:2745   */\n      revert\n        /* \"#utility.yul\":2757:2948   */\n    tag_50:\n        /* \"#utility.yul\":2797:2800   */\n      0x00\n        /* \"#utility.yul\":2816:2836   */\n      tag_174\n        /* \"#utility.yul\":2834:2835   */\n      dup3\n        /* \"#utility.yul\":2816:2836   */\n      tag_109\n      jump\t// in\n    tag_174:\n        /* \"#utility.yul\":2811:2836   */\n      swap2\n      pop\n        /* \"#utility.yul\":2850:2870   */\n      tag_175\n        /* \"#utility.yul\":2868:2869   */\n      dup4\n        /* \"#utility.yul\":2850:2870   */\n      tag_109\n      jump\t// in\n    tag_175:\n        /* \"#utility.yul\":2845:2870   */\n      swap3\n      pop\n        /* \"#utility.yul\":2893:2894   */\n      dup3\n        /* \"#utility.yul\":2890:2891   */\n      dup3\n        /* \"#utility.yul\":2886:2895   */\n      add\n        /* \"#utility.yul\":2879:2895   */\n      swap1\n      pop\n        /* \"#utility.yul\":2914:2917   */\n      dup1\n        /* \"#utility.yul\":2911:2912   */\n      dup3\n        /* \"#utility.yul\":2908:2918   */\n      gt\n        /* \"#utility.yul\":2905:2941   */\n      iszero\n      tag_176\n      jumpi\n        /* \"#utility.yul\":2921:2939   */\n      tag_177\n      tag_121\n      jump\t// in\n    tag_177:\n        /* \"#utility.yul\":2905:2941   */\n    tag_176:\n        /* \"#utility.yul\":2757:2948   */\n      swap3\n      swap2\n      pop\n      pop\n      jump\t// out\n        /* \"#utility.yul\":2954:3123   */\n    tag_122:\n        /* \"#utility.yul\":3038:3049   */\n      0x00\n        /* \"#utility.yul\":3072:3078   */\n      dup3\n        /* \"#utility.yul\":3067:3070   */\n      dup3\n        /* \"#utility.yul\":3060:3079   */\n      mstore\n        /* \"#utility.yul\":3112:3116   */\n      0x20\n        /* \"#utility.yul\":3107:3110   */\n      dup3\n        /* \"#utility.yul\":3103:3117   */\n      add\n        /* \"#utility.yul\":3088:3117   */\n      swap1\n      pop\n        /* \"#utility.yul\":2954:3123   */\n      swap3\n      swap2\n      pop\n      pop\n      jump\t// out\n        /* \"#utility.yul\":3129:3301   */\n    tag_123:\n        /* \"#utility.yul\":3269:3293   */\n      0x4469646e27742073656e6420656e6f7567682065746800000000000000000000\n        /* \"#utility.yul\":3265:3266   */\n      0x00\n        /* \"#utility.yul\":3257:3263   */\n      dup3\n        /* \"#utility.yul\":3253:3267   */\n      add\n        /* \"#utility.yul\":3246:3294   */\n      mstore\n        /* \"#utility.yul\":3129:3301   */\n      pop\n      jump\t// out\n        /* \"#utility.yul\":3307:3673   */\n    tag_124:\n        /* \"#utility.yul\":3449:3452   */\n      0x00\n        /* \"#utility.yul\":3470:3537   */\n      tag_181\n        /* \"#utility.yul\":3534:3536   */\n      0x16\n        /* \"#utility.yul\":3529:3532   */\n      dup4\n        /* \"#utility.yul\":3470:3537   */\n      tag_122\n      jump\t// in\n    tag_181:\n        /* \"#utility.yul\":3463:3537   */\n      swap2\n      pop\n        /* \"#utility.yul\":3546:3639   */\n      tag_182\n        /* \"#utility.yul\":3635:3638   */\n      dup3\n        /* \"#utility.yul\":3546:3639   */\n      tag_123\n      jump\t// in\n    tag_182:\n        /* \"#utility.yul\":3664:3666   */\n      0x20\n        /* \"#utility.yul\":3659:3662   */\n      dup3\n        /* \"#utility.yul\":3655:3667   */\n      add\n        /* \"#utility.yul\":3648:3667   */\n      swap1\n      pop\n        /* \"#utility.yul\":3307:3673   */\n      swap2\n      swap1\n      pop\n      jump\t// out\n        /* \"#utility.yul\":3679:4098   */\n    tag_55:\n        /* \"#utility.yul\":3845:3849   */\n      0x00\n        /* \"#utility.yul\":3883:3885   */\n      0x20\n        /* \"#utility.yul\":3872:3881   */\n      dup3\n        /* \"#utility.yul\":3868:3886   */\n      add\n        /* \"#utility.yul\":3860:3886   */\n      swap1\n      pop\n        /* \"#utility.yul\":3932:3941   */\n      dup2\n        /* \"#utility.yul\":3926:3930   */\n      dup2\n        /* \"#utility.yul\":3922:3942   */\n      sub\n        /* \"#utility.yul\":3918:3919   */\n      0x00\n        /* \"#utility.yul\":3907:3916   */\n      dup4\n        /* \"#utility.yul\":3903:3920   */\n      add\n        /* \"#utility.yul\":3896:3943   */\n      mstore\n        /* \"#utility.yul\":3960:4091   */\n      tag_184\n        /* \"#utility.yul\":4086:4090   */\n      dup2\n        /* \"#utility.yul\":3960:4091   */\n      tag_124\n      jump\t// in\n    tag_184:\n        /* \"#utility.yul\":3952:4091   */\n      swap1\n      pop\n        /* \"#utility.yul\":3679:4098   */\n      swap2\n      swap1\n      pop\n      jump\t// out\n        /* \"#utility.yul\":4104:4284   */\n    tag_66:\n        /* \"#utility.yul\":4152:4229   */\n      0x4e487b7100000000000000000000000000000000000000000000000000000000\n        /* \"#utility.yul\":4149:4150   */\n      0x00\n        /* \"#utility.yul\":4142:4230   */\n      mstore\n        /* \"#utility.yul\":4249:4253   */\n      0x32\n        /* \"#utility.yul\":4246:4247   */\n      0x04\n        /* \"#utility.yul\":4239:4254   */\n      mstore\n        /* \"#utility.yul\":4273:4277   */\n      0x24\n        /* \"#utility.yul\":4270:4271   */\n      0x00\n        /* \"#utility.yul\":4263:4278   */\n      revert\n        /* \"#utility.yul\":4290:4470   */\n    tag_70:\n        /* \"#utility.yul\":4338:4415   */\n      0x4e487b7100000000000000000000000000000000000000000000000000000000\n        /* \"#utility.yul\":4335:4336   */\n      0x00\n        /* \"#utility.yul\":4328:4416   */\n      mstore\n        /* \"#utility.yul\":4435:4439   */\n      0x41\n        /* \"#utility.yul\":4432:4433   */\n      0x04\n        /* \"#utility.yul\":4425:4440   */\n      mstore\n        /* \"#utility.yul\":4459:4463   */\n      0x24\n        /* \"#utility.yul\":4456:4457   */\n      0x00\n        /* \"#utility.yul\":4449:4464   */\n      revert\n        /* \"#utility.yul\":4476:4637   */\n    tag_125:\n        /* \"#utility.yul\":4616:4629   */\n      0x53656e64206661696c6564000000000000000000000000000000000000000000\n        /* \"#utility.yul\":4612:4613   */\n      0x00\n        /* \"#utility.yul\":4604:4610   */\n      dup3\n        /* \"#utility.yul\":4600:4614   */\n      add\n        /* \"#utility.yul\":4593:4630   */\n      mstore\n        /* \"#utility.yul\":4476:4637   */\n      pop\n      jump\t// out\n        /* \"#utility.yul\":4643:5009   */\n    tag_126:\n        /* \"#utility.yul\":4785:4788   */\n      0x00\n        /* \"#utility.yul\":4806:4873   */\n      tag_189\n        /* \"#utility.yul\":4870:4872   */\n      0x0b\n        /* \"#utility.yul\":4865:4868   */\n      dup4\n        /* \"#utility.yul\":4806:4873   */\n      tag_122\n      jump\t// in\n    tag_189:\n        /* \"#utility.yul\":4799:4873   */\n      swap2\n      pop\n        /* \"#utility.yul\":4882:4975   */\n      tag_190\n        /* \"#utility.yul\":4971:4974   */\n      dup3\n        /* \"#utility.yul\":4882:4975   */\n      tag_125\n      jump\t// in\n    tag_190:\n        /* \"#utility.yul\":5000:5002   */\n      0x20\n        /* \"#utility.yul\":4995:4998   */\n      dup3\n        /* \"#utility.yul\":4991:5003   */\n      add\n        /* \"#utility.yul\":4984:5003   */\n      swap1\n      pop\n        /* \"#utility.yul\":4643:5009   */\n      swap2\n      swap1\n      pop\n      jump\t// out\n        /* \"#utility.yul\":5015:5434   */\n    tag_79:\n        /* \"#utility.yul\":5181:5185   */\n      0x00\n        /* \"#utility.yul\":5219:5221   */\n      0x20\n        /* \"#utility.yul\":5208:5217   */\n      dup3\n        /* \"#utility.yul\":5204:5222   */\n      add\n        /* \"#utility.yul\":5196:5222   */\n      swap1\n      pop\n        /* \"#utility.yul\":5268:5277   */\n      dup2\n        /* \"#utility.yul\":5262:5266   */\n      dup2\n        /* \"#utility.yul\":5258:5278   */\n      sub\n        /* \"#utility.yul\":5254:5255   */\n      0x00\n        /* \"#utility.yul\":5243:5252   */\n      dup4\n        /* \"#utility.yul\":5239:5256   */\n      add\n        /* \"#utility.yul\":5232:5279   */\n      mstore\n        /* \"#utility.yul\":5296:5427   */\n      tag_192\n        /* \"#utility.yul\":5422:5426   */\n      dup2\n        /* \"#utility.yul\":5296:5427   */\n      tag_126\n      jump\t// in\n    tag_192:\n        /* \"#utility.yul\":5288:5427   */\n      swap1\n      pop\n        /* \"#utility.yul\":5015:5434   */\n      swap2\n      swap1\n      pop\n      jump\t// out\n        /* \"#utility.yul\":5440:5587   */\n    tag_127:\n        /* \"#utility.yul\":5541:5552   */\n      0x00\n        /* \"#utility.yul\":5578:5581   */\n      dup2\n        /* \"#utility.yul\":5563:5581   */\n      swap1\n      pop\n        /* \"#utility.yul\":5440:5587   */\n      swap3\n      swap2\n      pop\n      pop\n      jump\t// out\n        /* \"#utility.yul\":5593:5707   */\n    tag_128:\n      pop\n      jump\t// out\n        /* \"#utility.yul\":5713:6111   */\n    tag_129:\n        /* \"#utility.yul\":5872:5875   */\n      0x00\n        /* \"#utility.yul\":5893:5976   */\n      tag_196\n        /* \"#utility.yul\":5974:5975   */\n      0x00\n        /* \"#utility.yul\":5969:5972   */\n      dup4\n        /* \"#utility.yul\":5893:5976   */\n      tag_127\n      jump\t// in\n    tag_196:\n        /* \"#utility.yul\":5886:5976   */\n      swap2\n      pop\n        /* \"#utility.yul\":5985:6078   */\n      tag_197\n        /* \"#utility.yul\":6074:6077   */\n      dup3\n        /* \"#utility.yul\":5985:6078   */\n      tag_128\n      jump\t// in\n    tag_197:\n        /* \"#utility.yul\":6103:6104   */\n      0x00\n        /* \"#utility.yul\":6098:6101   */\n      dup3\n        /* \"#utility.yul\":6094:6105   */\n      add\n        /* \"#utility.yul\":6087:6105   */\n      swap1\n      pop\n        /* \"#utility.yul\":5713:6111   */\n      swap2\n      swap1\n      pop\n      jump\t// out\n        /* \"#utility.yul\":6117:6496   */\n    tag_81:\n        /* \"#utility.yul\":6301:6304   */\n      0x00\n        /* \"#utility.yul\":6323:6470   */\n      tag_199\n        /* \"#utility.yul\":6466:6469   */\n      dup3\n        /* \"#utility.yul\":6323:6470   */\n      tag_129\n      jump\t// in\n    tag_199:\n        /* \"#utility.yul\":6316:6470   */\n      swap2\n      pop\n        /* \"#utility.yul\":6487:6490   */\n      dup2\n        /* \"#utility.yul\":6480:6490   */\n      swap1\n      pop\n        /* \"#utility.yul\":6117:6496   */\n      swap2\n      swap1\n      pop\n      jump\t// out\n        /* \"#utility.yul\":6502:6912   */\n    tag_92:\n        /* \"#utility.yul\":6542:6549   */\n      0x00\n        /* \"#utility.yul\":6565:6585   */\n      tag_201\n        /* \"#utility.yul\":6583:6584   */\n      dup3\n        /* \"#utility.yul\":6565:6585   */\n      tag_109\n      jump\t// in\n    tag_201:\n        /* \"#utility.yul\":6560:6585   */\n      swap2\n      pop\n        /* \"#utility.yul\":6599:6619   */\n      tag_202\n        /* \"#utility.yul\":6617:6618   */\n      dup4\n        /* \"#utility.yul\":6599:6619   */\n      tag_109\n      jump\t// in\n    tag_202:\n        /* \"#utility.yul\":6594:6619   */\n      swap3\n      pop\n        /* \"#utility.yul\":6654:6655   */\n      dup3\n        /* \"#utility.yul\":6651:6652   */\n      dup3\n        /* \"#utility.yul\":6647:6656   */\n      mul\n        /* \"#utility.yul\":6676:6706   */\n      tag_203\n        /* \"#utility.yul\":6694:6705   */\n      dup2\n        /* \"#utility.yul\":6676:6706   */\n      tag_109\n      jump\t// in\n    tag_203:\n        /* \"#utility.yul\":6665:6706   */\n      swap2\n      pop\n        /* \"#utility.yul\":6855:6856   */\n      dup3\n        /* \"#utility.yul\":6846:6853   */\n      dup3\n        /* \"#utility.yul\":6842:6857   */\n      div\n        /* \"#utility.yul\":6839:6840   */\n      dup5\n        /* \"#utility.yul\":6836:6858   */\n      eq\n        /* \"#utility.yul\":6816:6817   */\n      dup4\n        /* \"#utility.yul\":6809:6818   */\n      iszero\n        /* \"#utility.yul\":6789:6872   */\n      or\n        /* \"#utility.yul\":6766:6905   */\n      tag_204\n      jumpi\n        /* \"#utility.yul\":6885:6903   */\n      tag_205\n      tag_121\n      jump\t// in\n    tag_205:\n        /* \"#utility.yul\":6766:6905   */\n    tag_204:\n        /* \"#utility.yul\":6550:6912   */\n      pop\n        /* \"#utility.yul\":6502:6912   */\n      swap3\n      swap2\n      pop\n      pop\n      jump\t// out\n        /* \"#utility.yul\":6918:7098   */\n    tag_130:\n        /* \"#utility.yul\":6966:7043   */\n      0x4e487b7100000000000000000000000000000000000000000000000000000000\n        /* \"#utility.yul\":6963:6964   */\n      0x00\n        /* \"#utility.yul\":6956:7044   */\n      mstore\n        /* \"#utility.yul\":7063:7067   */\n      0x12\n        /* \"#utility.yul\":7060:7061   */\n      0x04\n        /* \"#utility.yul\":7053:7068   */\n      mstore\n        /* \"#utility.yul\":7087:7091   */\n      0x24\n        /* \"#utility.yul\":7084:7085   */\n      0x00\n        /* \"#utility.yul\":7077:7092   */\n      revert\n        /* \"#utility.yul\":7104:7289   */\n    tag_94:\n        /* \"#utility.yul\":7144:7145   */\n      0x00\n        /* \"#utility.yul\":7161:7181   */\n      tag_208\n        /* \"#utility.yul\":7179:7180   */\n      dup3\n        /* \"#utility.yul\":7161:7181   */\n      tag_109\n      jump\t// in\n    tag_208:\n        /* \"#utility.yul\":7156:7181   */\n      swap2\n      pop\n        /* \"#utility.yul\":7195:7215   */\n      tag_209\n        /* \"#utility.yul\":7213:7214   */\n      dup4\n        /* \"#utility.yul\":7195:7215   */\n      tag_109\n      jump\t// in\n    tag_209:\n        /* \"#utility.yul\":7190:7215   */\n      swap3\n      pop\n        /* \"#utility.yul\":7234:7235   */\n      dup3\n        /* \"#utility.yul\":7224:7259   */\n      tag_210\n      jumpi\n        /* \"#utility.yul\":7239:7257   */\n      tag_211\n      tag_130\n      jump\t// in\n    tag_211:\n        /* \"#utility.yul\":7224:7259   */\n    tag_210:\n        /* \"#utility.yul\":7281:7282   */\n      dup3\n        /* \"#utility.yul\":7278:7279   */\n      dup3\n        /* \"#utility.yul\":7274:7283   */\n      div\n        /* \"#utility.yul\":7269:7283   */\n      swap1\n      pop\n        /* \"#utility.yul\":7104:7289   */\n      swap3\n      swap2\n      pop\n      pop\n      jump\t// out\n        /* \"#utility.yul\":7295:7400   */\n    tag_131:\n        /* \"#utility.yul\":7331:7338   */\n      0x00\n        /* \"#utility.yul\":7371:7393   */\n      0xffffffffffffffffffff\n        /* \"#utility.yul\":7364:7369   */\n      dup3\n        /* \"#utility.yul\":7360:7394   */\n      and\n        /* \"#utility.yul\":7349:7394   */\n      swap1\n      pop\n        /* \"#utility.yul\":7295:7400   */\n      swap2\n      swap1\n      pop\n      jump\t// out\n        /* \"#utility.yul\":7406:7526   */\n    tag_132:\n        /* \"#utility.yul\":7478:7501   */\n      tag_214\n        /* \"#utility.yul\":7495:7500   */\n      dup2\n        /* \"#utility.yul\":7478:7501   */\n      tag_131\n      jump\t// in\n    tag_214:\n        /* \"#utility.yul\":7471:7476   */\n      dup2\n        /* \"#utility.yul\":7468:7502   */\n      eq\n        /* \"#utility.yul\":7458:7520   */\n      tag_215\n      jumpi\n        /* \"#utility.yul\":7516:7517   */\n      0x00\n        /* \"#utility.yul\":7513:7514   */\n      0x00\n        /* \"#utility.yul\":7506:7518   */\n      revert\n        /* \"#utility.yul\":7458:7520   */\n    tag_215:\n        /* \"#utility.yul\":7406:7526   */\n      pop\n      jump\t// out\n        /* \"#utility.yul\":7532:7673   */\n    tag_133:\n        /* \"#utility.yul\":7588:7593   */\n      0x00\n        /* \"#utility.yul\":7619:7625   */\n      dup2\n        /* \"#utility.yul\":7613:7626   */\n      mload\n        /* \"#utility.yul\":7604:7626   */\n      swap1\n      pop\n        /* \"#utility.yul\":7635:7667   */\n      tag_217\n        /* \"#utility.yul\":7661:7666   */\n      dup2\n        /* \"#utility.yul\":7635:7667   */\n      tag_132\n      jump\t// in\n    tag_217:\n        /* \"#utility.yul\":7532:7673   */\n      swap3\n      swap2\n      pop\n      pop\n      jump\t// out\n        /* \"#utility.yul\":7679:7755   */\n    tag_134:\n        /* \"#utility.yul\":7715:7722   */\n      0x00\n        /* \"#utility.yul\":7744:7749   */\n      dup2\n        /* \"#utility.yul\":7733:7749   */\n      swap1\n      pop\n        /* \"#utility.yul\":7679:7755   */\n      swap2\n      swap1\n      pop\n      jump\t// out\n        /* \"#utility.yul\":7761:7881   */\n    tag_135:\n        /* \"#utility.yul\":7833:7856   */\n      tag_220\n        /* \"#utility.yul\":7850:7855   */\n      dup2\n        /* \"#utility.yul\":7833:7856   */\n      tag_134\n      jump\t// in\n    tag_220:\n        /* \"#utility.yul\":7826:7831   */\n      dup2\n        /* \"#utility.yul\":7823:7857   */\n      eq\n        /* \"#utility.yul\":7813:7875   */\n      tag_221\n      jumpi\n        /* \"#utility.yul\":7871:7872   */\n      0x00\n        /* \"#utility.yul\":7868:7869   */\n      0x00\n        /* \"#utility.yul\":7861:7873   */\n      revert\n        /* \"#utility.yul\":7813:7875   */\n    tag_221:\n        /* \"#utility.yul\":7761:7881   */\n      pop\n      jump\t// out\n        /* \"#utility.yul\":7887:8028   */\n    tag_136:\n        /* \"#utility.yul\":7943:7948   */\n      0x00\n        /* \"#utility.yul\":7974:7980   */\n      dup2\n        /* \"#utility.yul\":7968:7981   */\n      mload\n        /* \"#utility.yul\":7959:7981   */\n      swap1\n      pop\n        /* \"#utility.yul\":7990:8022   */\n      tag_223\n        /* \"#utility.yul\":8016:8021   */\n      dup2\n        /* \"#utility.yul\":7990:8022   */\n      tag_135\n      jump\t// in\n    tag_223:\n        /* \"#utility.yul\":7887:8028   */\n      swap3\n      swap2\n      pop\n      pop\n      jump\t// out\n        /* \"#utility.yul\":8034:8177   */\n    tag_137:\n        /* \"#utility.yul\":8091:8096   */\n      0x00\n        /* \"#utility.yul\":8122:8128   */\n      dup2\n        /* \"#utility.yul\":8116:8129   */\n      mload\n        /* \"#utility.yul\":8107:8129   */\n      swap1\n      pop\n        /* \"#utility.yul\":8138:8171   */\n      tag_225\n        /* \"#utility.yul\":8165:8170   */\n      dup2\n        /* \"#utility.yul\":8138:8171   */\n      tag_117\n      jump\t// in\n    tag_225:\n        /* \"#utility.yul\":8034:8177   */\n      swap3\n      swap2\n      pop\n      pop\n      jump\t// out\n        /* \"#utility.yul\":8183:9154   */\n    tag_99:\n        /* \"#utility.yul\":8286:8292   */\n      0x00\n        /* \"#utility.yul\":8294:8300   */\n      0x00\n        /* \"#utility.yul\":8302:8308   */\n      0x00\n        /* \"#utility.yul\":8310:8316   */\n      0x00\n        /* \"#utility.yul\":8318:8324   */\n      0x00\n        /* \"#utility.yul\":8367:8370   */\n      0xa0\n        /* \"#utility.yul\":8355:8364   */\n      dup7\n        /* \"#utility.yul\":8346:8353   */\n      dup9\n        /* \"#utility.yul\":8342:8365   */\n      sub\n        /* \"#utility.yul\":8338:8371   */\n      slt\n        /* \"#utility.yul\":8335:8455   */\n      iszero\n      tag_227\n      jumpi\n        /* \"#utility.yul\":8374:8453   */\n      tag_228\n      tag_115\n      jump\t// in\n    tag_228:\n        /* \"#utility.yul\":8335:8455   */\n    tag_227:\n        /* \"#utility.yul\":8494:8495   */\n      0x00\n        /* \"#utility.yul\":8519:8582   */\n      tag_229\n        /* \"#utility.yul\":8574:8581   */\n      dup9\n        /* \"#utility.yul\":8565:8571   */\n      dup3\n        /* \"#utility.yul\":8554:8563   */\n      dup10\n        /* \"#utility.yul\":8550:8572   */\n      add\n        /* \"#utility.yul\":8519:8582   */\n      tag_133\n      jump\t// in\n    tag_229:\n        /* \"#utility.yul\":8509:8582   */\n      swap6\n      pop\n        /* \"#utility.yul\":8465:8592   */\n      pop\n        /* \"#utility.yul\":8631:8633   */\n      0x20\n        /* \"#utility.yul\":8657:8720   */\n      tag_230\n        /* \"#utility.yul\":8712:8719   */\n      dup9\n        /* \"#utility.yul\":8703:8709   */\n      dup3\n        /* \"#utility.yul\":8692:8701   */\n      dup10\n        /* \"#utility.yul\":8688:8710   */\n      add\n        /* \"#utility.yul\":8657:8720   */\n      tag_136\n      jump\t// in\n    tag_230:\n        /* \"#utility.yul\":8647:8720   */\n      swap5\n      pop\n        /* \"#utility.yul\":8602:8730   */\n      pop\n        /* \"#utility.yul\":8769:8771   */\n      0x40\n        /* \"#utility.yul\":8795:8859   */\n      tag_231\n        /* \"#utility.yul\":8851:8858   */\n      dup9\n        /* \"#utility.yul\":8842:8848   */\n      dup3\n        /* \"#utility.yul\":8831:8840   */\n      dup10\n        /* \"#utility.yul\":8827:8849   */\n      add\n        /* \"#utility.yul\":8795:8859   */\n      tag_137\n      jump\t// in\n    tag_231:\n        /* \"#utility.yul\":8785:8859   */\n      swap4\n      pop\n        /* \"#utility.yul\":8740:8869   */\n      pop\n        /* \"#utility.yul\":8908:8910   */\n      0x60\n        /* \"#utility.yul\":8934:8998   */\n      tag_232\n        /* \"#utility.yul\":8990:8997   */\n      dup9\n        /* \"#utility.yul\":8981:8987   */\n      dup3\n        /* \"#utility.yul\":8970:8979   */\n      dup10\n        /* \"#utility.yul\":8966:8988   */\n      add\n        /* \"#utility.yul\":8934:8998   */\n      tag_137\n      jump\t// in\n    tag_232:\n        /* \"#utility.yul\":8924:8998   */\n      swap3\n      pop\n        /* \"#utility.yul\":8879:9008   */\n      pop\n        /* \"#utility.yul\":9047:9050   */\n      0x80\n        /* \"#utility.yul\":9074:9137   */\n      tag_233\n        /* \"#utility.yul\":9129:9136   */\n      dup9\n        /* \"#utility.yul\":9120:9126   */\n      dup3\n        /* \"#utility.yul\":9109:9118   */\n      dup10\n        /* \"#utility.yul\":9105:9127   */\n      add\n        /* \"#utility.yul\":9074:9137   */\n      tag_133\n      jump\t// in\n    tag_233:\n        /* \"#utility.yul\":9064:9137   */\n      swap2\n      pop\n        /* \"#utility.yul\":9018:9147   */\n      pop\n        /* \"#utility.yul\":8183:9154   */\n      swap3\n      swap6\n      pop\n      swap3\n      swap6\n      swap1\n      swap4\n      pop\n      jump\t// out\n        /* \"#utility.yul\":9160:9716   */\n    tag_101:\n        /* \"#utility.yul\":9199:9206   */\n      0x00\n        /* \"#utility.yul\":9222:9241   */\n      tag_235\n        /* \"#utility.yul\":9239:9240   */\n      dup3\n        /* \"#utility.yul\":9222:9241   */\n      tag_134\n      jump\t// in\n    tag_235:\n        /* \"#utility.yul\":9217:9241   */\n      swap2\n      pop\n        /* \"#utility.yul\":9255:9274   */\n      tag_236\n        /* \"#utility.yul\":9272:9273   */\n      dup4\n        /* \"#utility.yul\":9255:9274   */\n      tag_134\n      jump\t// in\n    tag_236:\n        /* \"#utility.yul\":9250:9274   */\n      swap3\n      pop\n        /* \"#utility.yul\":9309:9310   */\n      dup3\n        /* \"#utility.yul\":9306:9307   */\n      dup3\n        /* \"#utility.yul\":9302:9311   */\n      mul\n        /* \"#utility.yul\":9331:9360   */\n      tag_237\n        /* \"#utility.yul\":9348:9359   */\n      dup2\n        /* \"#utility.yul\":9331:9360   */\n      tag_134\n      jump\t// in\n    tag_237:\n        /* \"#utility.yul\":9320:9360   */\n      swap2\n      pop\n        /* \"#utility.yul\":9418:9484   */\n      0x8000000000000000000000000000000000000000000000000000000000000000\n        /* \"#utility.yul\":9415:9416   */\n      dup5\n        /* \"#utility.yul\":9412:9485   */\n      eq\n        /* \"#utility.yul\":9408:9409   */\n      0x00\n        /* \"#utility.yul\":9405:9406   */\n      dup5\n        /* \"#utility.yul\":9401:9410   */\n      slt\n        /* \"#utility.yul\":9397:9486   */\n      and\n        /* \"#utility.yul\":9394:9509   */\n      iszero\n      tag_238\n      jumpi\n        /* \"#utility.yul\":9489:9507   */\n      tag_239\n      tag_121\n      jump\t// in\n    tag_239:\n        /* \"#utility.yul\":9394:9509   */\n    tag_238:\n        /* \"#utility.yul\":9659:9660   */\n      dup3\n        /* \"#utility.yul\":9650:9657   */\n      dup3\n        /* \"#utility.yul\":9645:9661   */\n      sdiv\n        /* \"#utility.yul\":9642:9643   */\n      dup5\n        /* \"#utility.yul\":9639:9662   */\n      eq\n        /* \"#utility.yul\":9619:9620   */\n      dup4\n        /* \"#utility.yul\":9612:9621   */\n      iszero\n        /* \"#utility.yul\":9592:9676   */\n      or\n        /* \"#utility.yul\":9569:9709   */\n      tag_240\n      jumpi\n        /* \"#utility.yul\":9689:9707   */\n      tag_241\n      tag_121\n      jump\t// in\n    tag_241:\n        /* \"#utility.yul\":9569:9709   */\n    tag_240:\n        /* \"#utility.yul\":9207:9716   */\n      pop\n        /* \"#utility.yul\":9160:9716   */\n      swap3\n      swap2\n      pop\n      pop\n      jump\t// out\n\n    auxdata: 0xa26469706673582212207c0fdbaf876272fec82831636b555e6fea7e473a40215c266db3fb732f5e0af564736f6c634300081e0033\n}\n",
				"bytecode": {
					"linkReferences": {},
					"object": "60a060405260015f553480156012575f5ffd5b503373ffffffffffffffffffffffffffffffffffffffff1660808173ffffffffffffffffffffffffffffffffffffffff1681525050608051610d416100665f395f81816102fb01526105f70152610d415ff3fe608060405260043610610073575f3560e01c8063b60d42881161004d578063b60d4288146100f6578063dba6335f14610100578063dc0d3dff1461012a578063f5d9cf5c1461016657610082565b80633ccfd60b1461008c57806347f1aae7146100a257806373cef391146100cc57610082565b36610082576100806101a2565b005b61008a6101a2565b005b348015610097575f5ffd5b506100a06102f9565b005b3480156100ad575f5ffd5b506100b66105e4565b6040516100c39190610800565b60405180910390f35b3480156100d7575f5ffd5b506100e06105e9565b6040516100ed9190610800565b60405180910390f35b6100fe6101a2565b005b34801561010b575f5ffd5b506101146105f5565b6040516101219190610858565b60405180910390f35b348015610135575f5ffd5b50610150600480360381019061014b919061089f565b610619565b60405161015d9190610858565b60405180910390f35b348015610171575f5ffd5b5061018c600480360381019061018791906108f4565b610654565b6040516101999190610800565b60405180910390f35b60025f5f8282546101b3919061094c565b92505081905550674563918244f400006101cc34610669565b101561020d576040517f08c379a0000000000000000000000000000000000000000000000000000000008152600401610204906109d9565b60405180910390fd5b600133908060018154018082558091505060019003905f5260205f20015f9091909190916101000a81548173ffffffffffffffffffffffffffffffffffffffff021916908373ffffffffffffffffffffffffffffffffffffffff1602179055503460025f3373ffffffffffffffffffffffffffffffffffffffff1673ffffffffffffffffffffffffffffffffffffffff1681526020019081526020015f20546102b6919061094c565b60025f3373ffffffffffffffffffffffffffffffffffffffff1673ffffffffffffffffffffffffffffffffffffffff1681526020019081526020015f2081905550565b7f000000000000000000000000000000000000000000000000000000000000000073ffffffffffffffffffffffffffffffffffffffff163373ffffffffffffffffffffffffffffffffffffffff161461037e576040517f30cd747100000000000000000000000000000000000000000000000000000000815260040160405180910390fd5b5f5f90505b60018054905081101561041f575f600182815481106103a5576103a46109f7565b5b905f5260205f20015f9054906101000a900473ffffffffffffffffffffffffffffffffffffffff1690505f60025f8373ffffffffffffffffffffffffffffffffffffffff1673ffffffffffffffffffffffffffffffffffffffff1681526020019081526020015f2081905550508080600101915050610383565b505f67ffffffffffffffff81111561043a57610439610a24565b5b6040519080825280602002602001820160405280156104685781602001602082028036833780820191505090505b506001908051906020019061047e929190610746565b503373ffffffffffffffffffffffffffffffffffffffff166108fc4790811502906040515f60405180830381858888f193505050501580156104c2573d5f5f3e3d5ffd5b505f3373ffffffffffffffffffffffffffffffffffffffff166108fc4790811502906040515f60405180830381858888f1935050505090508061053a576040517f08c379a000000000000000000000000000000000000000000000000000000000815260040161053190610a9b565b60405180910390fd5b5f3373ffffffffffffffffffffffffffffffffffffffff164760405161055f90610ae6565b5f6040518083038185875af1925050503d805f8114610599576040519150601f19603f3d011682016040523d82523d5f602084013e61059e565b606091505b5050905060011515811515146105e0576040517f3204506f00000000000000000000000000000000000000000000000000000000815260040160405180910390fd5b5050565b5f5481565b674563918244f4000081565b7f000000000000000000000000000000000000000000000000000000000000000081565b60018181548110610628575f80fd5b905f5260205f20015f915054906101000a900473ffffffffffffffffffffffffffffffffffffffff1681565b6002602052805f5260405f205f915090505481565b5f5f6106736106a1565b90505f670de0b6b3a7640000848361068b9190610afa565b6106959190610b68565b90508092505050919050565b5f5f73694aa1769357215de4fac081bf1f309adc32530690505f8173ffffffffffffffffffffffffffffffffffffffff1663feaf968c6040518163ffffffff1660e01b815260040160a060405180830381865afa158015610704573d5f5f3e3d5ffd5b505050506040513d601f19601f820116820180604052508101906107289190610c1e565b5050509150506402540be4008161073f9190610c95565b9250505090565b828054828255905f5260205f209081019282156107bc579160200282015b828111156107bb578251825f6101000a81548173ffffffffffffffffffffffffffffffffffffffff021916908373ffffffffffffffffffffffffffffffffffffffff16021790555091602001919060010190610764565b5b5090506107c991906107cd565b5090565b5b808211156107e4575f815f9055506001016107ce565b5090565b5f819050919050565b6107fa816107e8565b82525050565b5f6020820190506108135f8301846107f1565b92915050565b5f73ffffffffffffffffffffffffffffffffffffffff82169050919050565b5f61084282610819565b9050919050565b61085281610838565b82525050565b5f60208201905061086b5f830184610849565b92915050565b5f5ffd5b61087e816107e8565b8114610888575f5ffd5b50565b5f8135905061089981610875565b92915050565b5f602082840312156108b4576108b3610871565b5b5f6108c18482850161088b565b91505092915050565b6108d381610838565b81146108dd575f5ffd5b50565b5f813590506108ee816108ca565b92915050565b5f6020828403121561090957610908610871565b5b5f610916848285016108e0565b91505092915050565b7f4e487b71000000000000000000000000000000000000000000000000000000005f52601160045260245ffd5b5f610956826107e8565b9150610961836107e8565b92508282019050808211156109795761097861091f565b5b92915050565b5f82825260208201905092915050565b7f4469646e27742073656e6420656e6f75676820657468000000000000000000005f82015250565b5f6109c360168361097f565b91506109ce8261098f565b602082019050919050565b5f6020820190508181035f8301526109f0816109b7565b9050919050565b7f4e487b71000000000000000000000000000000000000000000000000000000005f52603260045260245ffd5b7f4e487b71000000000000000000000000000000000000000000000000000000005f52604160045260245ffd5b7f53656e64206661696c65640000000000000000000000000000000000000000005f82015250565b5f610a85600b8361097f565b9150610a9082610a51565b602082019050919050565b5f6020820190508181035f830152610ab281610a79565b9050919050565b5f81905092915050565b50565b5f610ad15f83610ab9565b9150610adc82610ac3565b5f82019050919050565b5f610af082610ac6565b9150819050919050565b5f610b04826107e8565b9150610b0f836107e8565b9250828202610b1d816107e8565b91508282048414831517610b3457610b3361091f565b5b5092915050565b7f4e487b71000000000000000000000000000000000000000000000000000000005f52601260045260245ffd5b5f610b72826107e8565b9150610b7d836107e8565b925082610b8d57610b8c610b3b565b5b828204905092915050565b5f69ffffffffffffffffffff82169050919050565b610bb681610b98565b8114610bc0575f5ffd5b50565b5f81519050610bd181610bad565b92915050565b5f819050919050565b610be981610bd7565b8114610bf3575f5ffd5b50565b5f81519050610c0481610be0565b92915050565b5f81519050610c1881610875565b92915050565b5f5f5f5f5f60a08688031215610c3757610c36610871565b5b5f610c4488828901610bc3565b9550506020610c5588828901610bf6565b9450506040610c6688828901610c0a565b9350506060610c7788828901610c0a565b9250506080610c8888828901610bc3565b9150509295509295909350565b5f610c9f82610bd7565b9150610caa83610bd7565b9250828202610cb881610bd7565b91507f800000000000000000000000000000000000000000000000000000000000000084145f84121615610cef57610cee61091f565b5b8282058414831517610d0457610d0361091f565b5b509291505056fea26469706673582212207c0fdbaf876272fec82831636b555e6fea7e473a40215c266db3fb732f5e0af564736f6c634300081e0033",
					"opcodes": "PUSH1 0xA0 PUSH1 0x40 MSTORE PUSH1 0x1 PUSH0 SSTORE CALLVALUE DUP1 ISZERO PUSH1 0x12 JUMPI PUSH0 PUSH0 REVERT JUMPDEST POP CALLER PUSH20 0xFFFFFFFFFFFFFFFFFFFFFFFFFFFFFFFFFFFFFFFF AND PUSH1 0x80 DUP2 PUSH20 0xFFFFFFFFFFFFFFFFFFFFFFFFFFFFFFFFFFFFFFFF AND DUP2 MSTORE POP POP PUSH1 0x80 MLOAD PUSH2 0xD41 PUSH2 0x66 PUSH0 CODECOPY PUSH0 DUP2 DUP2 PUSH2 0x2FB ADD MSTORE PUSH2 0x5F7 ADD MSTORE PUSH2 0xD41 PUSH0 RETURN INVALID PUSH1 0x80 PUSH1 0x40 MSTORE PUSH1 0x4 CALLDATASIZE LT PUSH2 0x73 JUMPI PUSH0 CALLDATALOAD PUSH1 0xE0 SHR DUP1 PUSH4 0xB60D4288 GT PUSH2 0x4D JUMPI DUP1 PUSH4 0xB60D4288 EQ PUSH2 0xF6 JUMPI DUP1 PUSH4 0xDBA6335F EQ PUSH2 0x100 JUMPI DUP1 PUSH4 0xDC0D3DFF EQ PUSH2 0x12A JUMPI DUP1 PUSH4 0xF5D9CF5C EQ PUSH2 0x166 JUMPI PUSH2 0x82 JUMP JUMPDEST DUP1 PUSH4 0x3CCFD60B EQ PUSH2 0x8C JUMPI DUP1 PUSH4 0x47F1AAE7 EQ PUSH2 0xA2 JUMPI DUP1 PUSH4 0x73CEF391 EQ PUSH2 0xCC JUMPI PUSH2 0x82 JUMP JUMPDEST CALLDATASIZE PUSH2 0x82 JUMPI PUSH2 0x80 PUSH2 0x1A2 JUMP JUMPDEST STOP JUMPDEST PUSH2 0x8A PUSH2 0x1A2 JUMP JUMPDEST STOP JUMPDEST CALLVALUE DUP1 ISZERO PUSH2 0x97 JUMPI PUSH0 PUSH0 REVERT JUMPDEST POP PUSH2 0xA0 PUSH2 0x2F9 JUMP JUMPDEST STOP JUMPDEST CALLVALUE DUP1 ISZERO PUSH2 0xAD JUMPI PUSH0 PUSH0 REVERT JUMPDEST POP PUSH2 0xB6 PUSH2 0x5E4 JUMP JUMPDEST PUSH1 0x40 MLOAD PUSH2 0xC3 SWAP2 SWAP1 PUSH2 0x800 JUMP JUMPDEST PUSH1 0x40 MLOAD DUP1 SWAP2 SUB SWAP1 RETURN JUMPDEST CALLVALUE DUP1 ISZERO PUSH2 0xD7 JUMPI PUSH0 PUSH0 REVERT JUMPDEST POP PUSH2 0xE0 PUSH2 0x5E9 JUMP JUMPDEST PUSH1 0x40 MLOAD PUSH2 0xED SWAP2 SWAP1 PUSH2 0x800 JUMP JUMPDEST PUSH1 0x40 MLOAD DUP1 SWAP2 SUB SWAP1 RETURN JUMPDEST PUSH2 0xFE PUSH2 0x1A2 JUMP JUMPDEST STOP JUMPDEST CALLVALUE DUP1 ISZERO PUSH2 0x10B JUMPI PUSH0 PUSH0 REVERT JUMPDEST POP PUSH2 0x114 PUSH2 0x5F5 JUMP JUMPDEST PUSH1 0x40 MLOAD PUSH2 0x121 SWAP2 SWAP1 PUSH2 0x858 JUMP JUMPDEST PUSH1 0x40 MLOAD DUP1 SWAP2 SUB SWAP1 RETURN JUMPDEST CALLVALUE DUP1 ISZERO PUSH2 0x135 JUMPI PUSH0 PUSH0 REVERT JUMPDEST POP PUSH2 0x150 PUSH1 0x4 DUP1 CALLDATASIZE SUB DUP2 ADD SWAP1 PUSH2 0x14B SWAP2 SWAP1 PUSH2 0x89F JUMP JUMPDEST PUSH2 0x619 JUMP JUMPDEST PUSH1 0x40 MLOAD PUSH2 0x15D SWAP2 SWAP1 PUSH2 0x858 JUMP JUMPDEST PUSH1 0x40 MLOAD DUP1 SWAP2 SUB SWAP1 RETURN JUMPDEST CALLVALUE DUP1 ISZERO PUSH2 0x171 JUMPI PUSH0 PUSH0 REVERT JUMPDEST POP PUSH2 0x18C PUSH1 0x4 DUP1 CALLDATASIZE SUB DUP2 ADD SWAP1 PUSH2 0x187 SWAP2 SWAP1 PUSH2 0x8F4 JUMP JUMPDEST PUSH2 0x654 JUMP JUMPDEST PUSH1 0x40 MLOAD PUSH2 0x199 SWAP2 SWAP1 PUSH2 0x800 JUMP JUMPDEST PUSH1 0x40 MLOAD DUP1 SWAP2 SUB SWAP1 RETURN JUMPDEST PUSH1 0x2 PUSH0 PUSH0 DUP3 DUP3 SLOAD PUSH2 0x1B3 SWAP2 SWAP1 PUSH2 0x94C JUMP JUMPDEST SWAP3 POP POP DUP2 SWAP1 SSTORE POP PUSH8 0x4563918244F40000 PUSH2 0x1CC CALLVALUE PUSH2 0x669 JUMP JUMPDEST LT ISZERO PUSH2 0x20D JUMPI PUSH1 0x40 MLOAD PUSH32 0x8C379A000000000000000000000000000000000000000000000000000000000 DUP2 MSTORE PUSH1 0x4 ADD PUSH2 0x204 SWAP1 PUSH2 0x9D9 JUMP JUMPDEST PUSH1 0x40 MLOAD DUP1 SWAP2 SUB SWAP1 REVERT JUMPDEST PUSH1 0x1 CALLER SWAP1 DUP1 PUSH1 0x1 DUP2 SLOAD ADD DUP1 DUP3 SSTORE DUP1 SWAP2 POP POP PUSH1 0x1 SWAP1 SUB SWAP1 PUSH0 MSTORE PUSH1 0x20 PUSH0 KECCAK256 ADD PUSH0 SWAP1 SWAP2 SWAP1 SWAP2 SWAP1 SWAP2 PUSH2 0x100 EXP DUP2 SLOAD DUP2 PUSH20 0xFFFFFFFFFFFFFFFFFFFFFFFFFFFFFFFFFFFFFFFF MUL NOT AND SWAP1 DUP4 PUSH20 0xFFFFFFFFFFFFFFFFFFFFFFFFFFFFFFFFFFFFFFFF AND MUL OR SWAP1 SSTORE POP CALLVALUE PUSH1 0x2 PUSH0 CALLER PUSH20 0xFFFFFFFFFFFFFFFFFFFFFFFFFFFFFFFFFFFFFFFF AND PUSH20 0xFFFFFFFFFFFFFFFFFFFFFFFFFFFFFFFFFFFFFFFF AND DUP2 MSTORE PUSH1 0x20 ADD SWAP1 DUP2 MSTORE PUSH1 0x20 ADD PUSH0 KECCAK256 SLOAD PUSH2 0x2B6 SWAP2 SWAP1 PUSH2 0x94C JUMP JUMPDEST PUSH1 0x2 PUSH0 CALLER PUSH20 0xFFFFFFFFFFFFFFFFFFFFFFFFFFFFFFFFFFFFFFFF AND PUSH20 0xFFFFFFFFFFFFFFFFFFFFFFFFFFFFFFFFFFFFFFFF AND DUP2 MSTORE PUSH1 0x20 ADD SWAP1 DUP2 MSTORE PUSH1 0x20 ADD PUSH0 KECCAK256 DUP2 SWAP1 SSTORE POP JUMP JUMPDEST PUSH32 0x0 PUSH20 0xFFFFFFFFFFFFFFFFFFFFFFFFFFFFFFFFFFFFFFFF AND CALLER PUSH20 0xFFFFFFFFFFFFFFFFFFFFFFFFFFFFFFFFFFFFFFFF AND EQ PUSH2 0x37E JUMPI PUSH1 0x40 MLOAD PUSH32 0x30CD747100000000000000000000000000000000000000000000000000000000 DUP2 MSTORE PUSH1 0x4 ADD PUSH1 0x40 MLOAD DUP1 SWAP2 SUB SWAP1 REVERT JUMPDEST PUSH0 PUSH0 SWAP1 POP JUMPDEST PUSH1 0x1 DUP1 SLOAD SWAP1 POP DUP2 LT ISZERO PUSH2 0x41F JUMPI PUSH0 PUSH1 0x1 DUP3 DUP2 SLOAD DUP2 LT PUSH2 0x3A5 JUMPI PUSH2 0x3A4 PUSH2 0x9F7 JUMP JUMPDEST JUMPDEST SWAP1 PUSH0 MSTORE PUSH1 0x20 PUSH0 KECCAK256 ADD PUSH0 SWAP1 SLOAD SWAP1 PUSH2 0x100 EXP SWAP1 DIV PUSH20 0xFFFFFFFFFFFFFFFFFFFFFFFFFFFFFFFFFFFFFFFF AND SWAP1 POP PUSH0 PUSH1 0x2 PUSH0 DUP4 PUSH20 0xFFFFFFFFFFFFFFFFFFFFFFFFFFFFFFFFFFFFFFFF AND PUSH20 0xFFFFFFFFFFFFFFFFFFFFFFFFFFFFFFFFFFFFFFFF AND DUP2 MSTORE PUSH1 0x20 ADD SWAP1 DUP2 MSTORE PUSH1 0x20 ADD PUSH0 KECCAK256 DUP2 SWAP1 SSTORE POP POP DUP1 DUP1 PUSH1 0x1 ADD SWAP2 POP POP PUSH2 0x383 JUMP JUMPDEST POP PUSH0 PUSH8 0xFFFFFFFFFFFFFFFF DUP2 GT ISZERO PUSH2 0x43A JUMPI PUSH2 0x439 PUSH2 0xA24 JUMP JUMPDEST JUMPDEST PUSH1 0x40 MLOAD SWAP1 DUP1 DUP3 MSTORE DUP1 PUSH1 0x20 MUL PUSH1 0x20 ADD DUP3 ADD PUSH1 0x40 MSTORE DUP1 ISZERO PUSH2 0x468 JUMPI DUP2 PUSH1 0x20 ADD PUSH1 0x20 DUP3 MUL DUP1 CALLDATASIZE DUP4 CALLDATACOPY DUP1 DUP3 ADD SWAP2 POP POP SWAP1 POP JUMPDEST POP PUSH1 0x1 SWAP1 DUP1 MLOAD SWAP1 PUSH1 0x20 ADD SWAP1 PUSH2 0x47E SWAP3 SWAP2 SWAP1 PUSH2 0x746 JUMP JUMPDEST POP CALLER PUSH20 0xFFFFFFFFFFFFFFFFFFFFFFFFFFFFFFFFFFFFFFFF AND PUSH2 0x8FC SELFBALANCE SWAP1 DUP2 ISZERO MUL SWAP1 PUSH1 0x40 MLOAD PUSH0 PUSH1 0x40 MLOAD DUP1 DUP4 SUB DUP2 DUP6 DUP9 DUP9 CALL SWAP4 POP POP POP POP ISZERO DUP1 ISZERO PUSH2 0x4C2 JUMPI RETURNDATASIZE PUSH0 PUSH0 RETURNDATACOPY RETURNDATASIZE PUSH0 REVERT JUMPDEST POP PUSH0 CALLER PUSH20 0xFFFFFFFFFFFFFFFFFFFFFFFFFFFFFFFFFFFFFFFF AND PUSH2 0x8FC SELFBALANCE SWAP1 DUP2 ISZERO MUL SWAP1 PUSH1 0x40 MLOAD PUSH0 PUSH1 0x40 MLOAD DUP1 DUP4 SUB DUP2 DUP6 DUP9 DUP9 CALL SWAP4 POP POP POP POP SWAP1 POP DUP1 PUSH2 0x53A JUMPI PUSH1 0x40 MLOAD PUSH32 0x8C379A000000000000000000000000000000000000000000000000000000000 DUP2 MSTORE PUSH1 0x4 ADD PUSH2 0x531 SWAP1 PUSH2 0xA9B JUMP JUMPDEST PUSH1 0x40 MLOAD DUP1 SWAP2 SUB SWAP1 REVERT JUMPDEST PUSH0 CALLER PUSH20 0xFFFFFFFFFFFFFFFFFFFFFFFFFFFFFFFFFFFFFFFF AND SELFBALANCE PUSH1 0x40 MLOAD PUSH2 0x55F SWAP1 PUSH2 0xAE6 JUMP JUMPDEST PUSH0 PUSH1 0x40 MLOAD DUP1 DUP4 SUB DUP2 DUP6 DUP8 GAS CALL SWAP3 POP POP POP RETURNDATASIZE DUP1 PUSH0 DUP2 EQ PUSH2 0x599 JUMPI PUSH1 0x40 MLOAD SWAP2 POP PUSH1 0x1F NOT PUSH1 0x3F RETURNDATASIZE ADD AND DUP3 ADD PUSH1 0x40 MSTORE RETURNDATASIZE DUP3 MSTORE RETURNDATASIZE PUSH0 PUSH1 0x20 DUP5 ADD RETURNDATACOPY PUSH2 0x59E JUMP JUMPDEST PUSH1 0x60 SWAP2 POP JUMPDEST POP POP SWAP1 POP PUSH1 0x1 ISZERO ISZERO DUP2 ISZERO ISZERO EQ PUSH2 0x5E0 JUMPI PUSH1 0x40 MLOAD PUSH32 0x3204506F00000000000000000000000000000000000000000000000000000000 DUP2 MSTORE PUSH1 0x4 ADD PUSH1 0x40 MLOAD DUP1 SWAP2 SUB SWAP1 REVERT JUMPDEST POP POP JUMP JUMPDEST PUSH0 SLOAD DUP2 JUMP JUMPDEST PUSH8 0x4563918244F40000 DUP2 JUMP JUMPDEST PUSH32 0x0 DUP2 JUMP JUMPDEST PUSH1 0x1 DUP2 DUP2 SLOAD DUP2 LT PUSH2 0x628 JUMPI PUSH0 DUP1 REVERT JUMPDEST SWAP1 PUSH0 MSTORE PUSH1 0x20 PUSH0 KECCAK256 ADD PUSH0 SWAP2 POP SLOAD SWAP1 PUSH2 0x100 EXP SWAP1 DIV PUSH20 0xFFFFFFFFFFFFFFFFFFFFFFFFFFFFFFFFFFFFFFFF AND DUP2 JUMP JUMPDEST PUSH1 0x2 PUSH1 0x20 MSTORE DUP1 PUSH0 MSTORE PUSH1 0x40 PUSH0 KECCAK256 PUSH0 SWAP2 POP SWAP1 POP SLOAD DUP2 JUMP JUMPDEST PUSH0 PUSH0 PUSH2 0x673 PUSH2 0x6A1 JUMP JUMPDEST SWAP1 POP PUSH0 PUSH8 0xDE0B6B3A7640000 DUP5 DUP4 PUSH2 0x68B SWAP2 SWAP1 PUSH2 0xAFA JUMP JUMPDEST PUSH2 0x695 SWAP2 SWAP1 PUSH2 0xB68 JUMP JUMPDEST SWAP1 POP DUP1 SWAP3 POP POP POP SWAP2 SWAP1 POP JUMP JUMPDEST PUSH0 PUSH0 PUSH20 0x694AA1769357215DE4FAC081BF1F309ADC325306 SWAP1 POP PUSH0 DUP2 PUSH20 0xFFFFFFFFFFFFFFFFFFFFFFFFFFFFFFFFFFFFFFFF AND PUSH4 0xFEAF968C PUSH1 0x40 MLOAD DUP2 PUSH4 0xFFFFFFFF AND PUSH1 0xE0 SHL DUP2 MSTORE PUSH1 0x4 ADD PUSH1 0xA0 PUSH1 0x40 MLOAD DUP1 DUP4 SUB DUP2 DUP7 GAS STATICCALL ISZERO DUP1 ISZERO PUSH2 0x704 JUMPI RETURNDATASIZE PUSH0 PUSH0 RETURNDATACOPY RETURNDATASIZE PUSH0 REVERT JUMPDEST POP POP POP POP PUSH1 0x40 MLOAD RETURNDATASIZE PUSH1 0x1F NOT PUSH1 0x1F DUP3 ADD AND DUP3 ADD DUP1 PUSH1 0x40 MSTORE POP DUP2 ADD SWAP1 PUSH2 0x728 SWAP2 SWAP1 PUSH2 0xC1E JUMP JUMPDEST POP POP POP SWAP2 POP POP PUSH5 0x2540BE400 DUP2 PUSH2 0x73F SWAP2 SWAP1 PUSH2 0xC95 JUMP JUMPDEST SWAP3 POP POP POP SWAP1 JUMP JUMPDEST DUP3 DUP1 SLOAD DUP3 DUP3 SSTORE SWAP1 PUSH0 MSTORE PUSH1 0x20 PUSH0 KECCAK256 SWAP1 DUP2 ADD SWAP3 DUP3 ISZERO PUSH2 0x7BC JUMPI SWAP2 PUSH1 0x20 MUL DUP3 ADD JUMPDEST DUP3 DUP2 GT ISZERO PUSH2 0x7BB JUMPI DUP3 MLOAD DUP3 PUSH0 PUSH2 0x100 EXP DUP2 SLOAD DUP2 PUSH20 0xFFFFFFFFFFFFFFFFFFFFFFFFFFFFFFFFFFFFFFFF MUL NOT AND SWAP1 DUP4 PUSH20 0xFFFFFFFFFFFFFFFFFFFFFFFFFFFFFFFFFFFFFFFF AND MUL OR SWAP1 SSTORE POP SWAP2 PUSH1 0x20 ADD SWAP2 SWAP1 PUSH1 0x1 ADD SWAP1 PUSH2 0x764 JUMP JUMPDEST JUMPDEST POP SWAP1 POP PUSH2 0x7C9 SWAP2 SWAP1 PUSH2 0x7CD JUMP JUMPDEST POP SWAP1 JUMP JUMPDEST JUMPDEST DUP1 DUP3 GT ISZERO PUSH2 0x7E4 JUMPI PUSH0 DUP2 PUSH0 SWAP1 SSTORE POP PUSH1 0x1 ADD PUSH2 0x7CE JUMP JUMPDEST POP SWAP1 JUMP JUMPDEST PUSH0 DUP2 SWAP1 POP SWAP2 SWAP1 POP JUMP JUMPDEST PUSH2 0x7FA DUP2 PUSH2 0x7E8 JUMP JUMPDEST DUP3 MSTORE POP POP JUMP JUMPDEST PUSH0 PUSH1 0x20 DUP3 ADD SWAP1 POP PUSH2 0x813 PUSH0 DUP4 ADD DUP5 PUSH2 0x7F1 JUMP JUMPDEST SWAP3 SWAP2 POP POP JUMP JUMPDEST PUSH0 PUSH20 0xFFFFFFFFFFFFFFFFFFFFFFFFFFFFFFFFFFFFFFFF DUP3 AND SWAP1 POP SWAP2 SWAP1 POP JUMP JUMPDEST PUSH0 PUSH2 0x842 DUP3 PUSH2 0x819 JUMP JUMPDEST SWAP1 POP SWAP2 SWAP1 POP JUMP JUMPDEST PUSH2 0x852 DUP2 PUSH2 0x838 JUMP JUMPDEST DUP3 MSTORE POP POP JUMP JUMPDEST PUSH0 PUSH1 0x20 DUP3 ADD SWAP1 POP PUSH2 0x86B PUSH0 DUP4 ADD DUP5 PUSH2 0x849 JUMP JUMPDEST SWAP3 SWAP2 POP POP JUMP JUMPDEST PUSH0 PUSH0 REVERT JUMPDEST PUSH2 0x87E DUP2 PUSH2 0x7E8 JUMP JUMPDEST DUP2 EQ PUSH2 0x888 JUMPI PUSH0 PUSH0 REVERT JUMPDEST POP JUMP JUMPDEST PUSH0 DUP2 CALLDATALOAD SWAP1 POP PUSH2 0x899 DUP2 PUSH2 0x875 JUMP JUMPDEST SWAP3 SWAP2 POP POP JUMP JUMPDEST PUSH0 PUSH1 0x20 DUP3 DUP5 SUB SLT ISZERO PUSH2 0x8B4 JUMPI PUSH2 0x8B3 PUSH2 0x871 JUMP JUMPDEST JUMPDEST PUSH0 PUSH2 0x8C1 DUP5 DUP3 DUP6 ADD PUSH2 0x88B JUMP JUMPDEST SWAP2 POP POP SWAP3 SWAP2 POP POP JUMP JUMPDEST PUSH2 0x8D3 DUP2 PUSH2 0x838 JUMP JUMPDEST DUP2 EQ PUSH2 0x8DD JUMPI PUSH0 PUSH0 REVERT JUMPDEST POP JUMP JUMPDEST PUSH0 DUP2 CALLDATALOAD SWAP1 POP PUSH2 0x8EE DUP2 PUSH2 0x8CA JUMP JUMPDEST SWAP3 SWAP2 POP POP JUMP JUMPDEST PUSH0 PUSH1 0x20 DUP3 DUP5 SUB SLT ISZERO PUSH2 0x909 JUMPI PUSH2 0x908 PUSH2 0x871 JUMP JUMPDEST JUMPDEST PUSH0 PUSH2 0x916 DUP5 DUP3 DUP6 ADD PUSH2 0x8E0 JUMP JUMPDEST SWAP2 POP POP SWAP3 SWAP2 POP POP JUMP JUMPDEST PUSH32 0x4E487B7100000000000000000000000000000000000000000000000000000000 PUSH0 MSTORE PUSH1 0x11 PUSH1 0x4 MSTORE PUSH1 0x24 PUSH0 REVERT JUMPDEST PUSH0 PUSH2 0x956 DUP3 PUSH2 0x7E8 JUMP JUMPDEST SWAP2 POP PUSH2 0x961 DUP4 PUSH2 0x7E8 JUMP JUMPDEST SWAP3 POP DUP3 DUP3 ADD SWAP1 POP DUP1 DUP3 GT ISZERO PUSH2 0x979 JUMPI PUSH2 0x978 PUSH2 0x91F JUMP JUMPDEST JUMPDEST SWAP3 SWAP2 POP POP JUMP JUMPDEST PUSH0 DUP3 DUP3 MSTORE PUSH1 0x20 DUP3 ADD SWAP1 POP SWAP3 SWAP2 POP POP JUMP JUMPDEST PUSH32 0x4469646E27742073656E6420656E6F7567682065746800000000000000000000 PUSH0 DUP3 ADD MSTORE POP JUMP JUMPDEST PUSH0 PUSH2 0x9C3 PUSH1 0x16 DUP4 PUSH2 0x97F JUMP JUMPDEST SWAP2 POP PUSH2 0x9CE DUP3 PUSH2 0x98F JUMP JUMPDEST PUSH1 0x20 DUP3 ADD SWAP1 POP SWAP2 SWAP1 POP JUMP JUMPDEST PUSH0 PUSH1 0x20 DUP3 ADD SWAP1 POP DUP2 DUP2 SUB PUSH0 DUP4 ADD MSTORE PUSH2 0x9F0 DUP2 PUSH2 0x9B7 JUMP JUMPDEST SWAP1 POP SWAP2 SWAP1 POP JUMP JUMPDEST PUSH32 0x4E487B7100000000000000000000000000000000000000000000000000000000 PUSH0 MSTORE PUSH1 0x32 PUSH1 0x4 MSTORE PUSH1 0x24 PUSH0 REVERT JUMPDEST PUSH32 0x4E487B7100000000000000000000000000000000000000000000000000000000 PUSH0 MSTORE PUSH1 0x41 PUSH1 0x4 MSTORE PUSH1 0x24 PUSH0 REVERT JUMPDEST PUSH32 0x53656E64206661696C6564000000000000000000000000000000000000000000 PUSH0 DUP3 ADD MSTORE POP JUMP JUMPDEST PUSH0 PUSH2 0xA85 PUSH1 0xB DUP4 PUSH2 0x97F JUMP JUMPDEST SWAP2 POP PUSH2 0xA90 DUP3 PUSH2 0xA51 JUMP JUMPDEST PUSH1 0x20 DUP3 ADD SWAP1 POP SWAP2 SWAP1 POP JUMP JUMPDEST PUSH0 PUSH1 0x20 DUP3 ADD SWAP1 POP DUP2 DUP2 SUB PUSH0 DUP4 ADD MSTORE PUSH2 0xAB2 DUP2 PUSH2 0xA79 JUMP JUMPDEST SWAP1 POP SWAP2 SWAP1 POP JUMP JUMPDEST PUSH0 DUP2 SWAP1 POP SWAP3 SWAP2 POP POP JUMP JUMPDEST POP JUMP JUMPDEST PUSH0 PUSH2 0xAD1 PUSH0 DUP4 PUSH2 0xAB9 JUMP JUMPDEST SWAP2 POP PUSH2 0xADC DUP3 PUSH2 0xAC3 JUMP JUMPDEST PUSH0 DUP3 ADD SWAP1 POP SWAP2 SWAP1 POP JUMP JUMPDEST PUSH0 PUSH2 0xAF0 DUP3 PUSH2 0xAC6 JUMP JUMPDEST SWAP2 POP DUP2 SWAP1 POP SWAP2 SWAP1 POP JUMP JUMPDEST PUSH0 PUSH2 0xB04 DUP3 PUSH2 0x7E8 JUMP JUMPDEST SWAP2 POP PUSH2 0xB0F DUP4 PUSH2 0x7E8 JUMP JUMPDEST SWAP3 POP DUP3 DUP3 MUL PUSH2 0xB1D DUP2 PUSH2 0x7E8 JUMP JUMPDEST SWAP2 POP DUP3 DUP3 DIV DUP5 EQ DUP4 ISZERO OR PUSH2 0xB34 JUMPI PUSH2 0xB33 PUSH2 0x91F JUMP JUMPDEST JUMPDEST POP SWAP3 SWAP2 POP POP JUMP JUMPDEST PUSH32 0x4E487B7100000000000000000000000000000000000000000000000000000000 PUSH0 MSTORE PUSH1 0x12 PUSH1 0x4 MSTORE PUSH1 0x24 PUSH0 REVERT JUMPDEST PUSH0 PUSH2 0xB72 DUP3 PUSH2 0x7E8 JUMP JUMPDEST SWAP2 POP PUSH2 0xB7D DUP4 PUSH2 0x7E8 JUMP JUMPDEST SWAP3 POP DUP3 PUSH2 0xB8D JUMPI PUSH2 0xB8C PUSH2 0xB3B JUMP JUMPDEST JUMPDEST DUP3 DUP3 DIV SWAP1 POP SWAP3 SWAP2 POP POP JUMP JUMPDEST PUSH0 PUSH10 0xFFFFFFFFFFFFFFFFFFFF DUP3 AND SWAP1 POP SWAP2 SWAP1 POP JUMP JUMPDEST PUSH2 0xBB6 DUP2 PUSH2 0xB98 JUMP JUMPDEST DUP2 EQ PUSH2 0xBC0 JUMPI PUSH0 PUSH0 REVERT JUMPDEST POP JUMP JUMPDEST PUSH0 DUP2 MLOAD SWAP1 POP PUSH2 0xBD1 DUP2 PUSH2 0xBAD JUMP JUMPDEST SWAP3 SWAP2 POP POP JUMP JUMPDEST PUSH0 DUP2 SWAP1 POP SWAP2 SWAP1 POP JUMP JUMPDEST PUSH2 0xBE9 DUP2 PUSH2 0xBD7 JUMP JUMPDEST DUP2 EQ PUSH2 0xBF3 JUMPI PUSH0 PUSH0 REVERT JUMPDEST POP JUMP JUMPDEST PUSH0 DUP2 MLOAD SWAP1 POP PUSH2 0xC04 DUP2 PUSH2 0xBE0 JUMP JUMPDEST SWAP3 SWAP2 POP POP JUMP JUMPDEST PUSH0 DUP2 MLOAD SWAP1 POP PUSH2 0xC18 DUP2 PUSH2 0x875 JUMP JUMPDEST SWAP3 SWAP2 POP POP JUMP JUMPDEST PUSH0 PUSH0 PUSH0 PUSH0 PUSH0 PUSH1 0xA0 DUP7 DUP9 SUB SLT ISZERO PUSH2 0xC37 JUMPI PUSH2 0xC36 PUSH2 0x871 JUMP JUMPDEST JUMPDEST PUSH0 PUSH2 0xC44 DUP9 DUP3 DUP10 ADD PUSH2 0xBC3 JUMP JUMPDEST SWAP6 POP POP PUSH1 0x20 PUSH2 0xC55 DUP9 DUP3 DUP10 ADD PUSH2 0xBF6 JUMP JUMPDEST SWAP5 POP POP PUSH1 0x40 PUSH2 0xC66 DUP9 DUP3 DUP10 ADD PUSH2 0xC0A JUMP JUMPDEST SWAP4 POP POP PUSH1 0x60 PUSH2 0xC77 DUP9 DUP3 DUP10 ADD PUSH2 0xC0A JUMP JUMPDEST SWAP3 POP POP PUSH1 0x80 PUSH2 0xC88 DUP9 DUP3 DUP10 ADD PUSH2 0xBC3 JUMP JUMPDEST SWAP2 POP POP SWAP3 SWAP6 POP SWAP3 SWAP6 SWAP1 SWAP4 POP JUMP JUMPDEST PUSH0 PUSH2 0xC9F DUP3 PUSH2 0xBD7 JUMP JUMPDEST SWAP2 POP PUSH2 0xCAA DUP4 PUSH2 0xBD7 JUMP JUMPDEST SWAP3 POP DUP3 DUP3 MUL PUSH2 0xCB8 DUP2 PUSH2 0xBD7 JUMP JUMPDEST SWAP2 POP PUSH32 0x8000000000000000000000000000000000000000000000000000000000000000 DUP5 EQ PUSH0 DUP5 SLT AND ISZERO PUSH2 0xCEF JUMPI PUSH2 0xCEE PUSH2 0x91F JUMP JUMPDEST JUMPDEST DUP3 DUP3 SDIV DUP5 EQ DUP4 ISZERO OR PUSH2 0xD04 JUMPI PUSH2 0xD03 PUSH2 0x91F JUMP JUMPDEST JUMPDEST POP SWAP3 SWAP2 POP POP JUMP INVALID LOG2 PUSH5 0x6970667358 0x22 SLT KECCAK256 PUSH29 0xFDBAF876272FEC82831636B555E6FEA7E473A40215C266DB3FB732F5E EXP CREATE2 PUSH5 0x736F6C6343 STOP ADDMOD 0x1E STOP CALLER "
				},
				"gasEstimates": {
					"creation": {
						"codeDepositCost": "678600",
						"executionCost": "infinite",
						"totalCost": "infinite"
					},
					"external": {
						"": "infinite",
						"AddressToAmount(address)": "2868",
						"fund()": "infinite",
						"funders(uint256)": "4988",
						"i_owner()": "infinite",
						"miniUSD()": "370",
						"myValue()": "2447",
						"withdraw()": "infinite"
					}
				},
				"methodIdentifiers": {
					"AddressToAmount(address)": "f5d9cf5c",
					"fund()": "b60d4288",
					"funders(uint256)": "dc0d3dff",
					"i_owner()": "dba6335f",
					"miniUSD()": "73cef391",
					"myValue()": "47f1aae7",
					"withdraw()": "3ccfd60b"
				}
			},
			"storageLayout": {
				"storage": [
					{
						"astId": 59,
						"contract": "Project/FundMe.sol:FundMe",
						"label": "myValue",
						"offset": 0,
						"slot": "0",
						"type": "t_uint256"
					},
					{
						"astId": 65,
						"contract": "Project/FundMe.sol:FundMe",
						"label": "funders",
						"offset": 0,
						"slot": "1",
						"type": "t_array(t_address)dyn_storage"
					},
					{
						"astId": 69,
						"contract": "Project/FundMe.sol:FundMe",
						"label": "AddressToAmount",
						"offset": 0,
						"slot": "2",
						"type": "t_mapping(t_address,t_uint256)"
					}
				],
				"types": {
					"t_address": {
						"encoding": "inplace",
						"label": "address",
						"numberOfBytes": "20"
					},
					"t_array(t_address)dyn_storage": {
						"base": "t_address",
						"encoding": "dynamic_array",
						"label": "address[]",
						"numberOfBytes": "32"
					},
					"t_mapping(t_address,t_uint256)": {
						"encoding": "mapping",
						"key": "t_address",
						"label": "mapping(address => uint256)",
						"numberOfBytes": "32",
						"value": "t_uint256"
					},
					"t_uint256": {
						"encoding": "inplace",
						"label": "uint256",
						"numberOfBytes": "32"
					}
				}
			},
			"userdoc": {
				"kind": "user",
				"methods": {},
				"version": 1
			}
		}
	}
}