{
	"data": {
		"bytecode": {
			"linkReferences": {},
			"object": "6080604052348015600e575f5ffd5b50610edf8061001c5f395ff3fe608060405234801561000f575f5ffd5b506004361061004a575f3560e01c80631563700f1461004e57806340d66b3b1461006a578063a1786dbe14610074578063c5f19c20146100a4575b5f5ffd5b6100686004803603810190610063919061033a565b6100d4565b005b61007261017d565b005b61008e60048036038101906100899190610378565b610208565b60405161009b919061041d565b60405180910390f35b6100be60048036038101906100b99190610378565b610242565b6040516100cb9190610445565b60405180910390f35b5f5f83815481106100e8576100e761045e565b5b905f5260205f20015f9054906101000a900473ffffffffffffffffffffffffffffffffffffffff1690508073ffffffffffffffffffffffffffffffffffffffff16636057361d836040518263ffffffff1660e01b815260040161014b9190610445565b5f604051808303815f87803b158015610162575f5ffd5b505af1158015610174573d5f5f3e3d5ffd5b50505050505050565b5f60405161018a906102f6565b604051809103905ff0801580156101a3573d5f5f3e3d5ffd5b5090505f81908060018154018082558091505060019003905f5260205f20015f9091909190916101000a81548173ffffffffffffffffffffffffffffffffffffffff021916908373ffffffffffffffffffffffffffffffffffffffff16021790555050565b5f8181548110610216575f80fd5b905f5260205f20015f915054906101000a900473ffffffffffffffffffffffffffffffffffffffff1681565b5f5f5f83815481106102575761025661045e565b5b905f5260205f20015f9054906101000a900473ffffffffffffffffffffffffffffffffffffffff1690508073ffffffffffffffffffffffffffffffffffffffff1663b05784b86040518163ffffffff1660e01b8152600401602060405180830381865afa1580156102ca573d5f5f3e3d5ffd5b505050506040513d601f19601f820116820180604052508101906102ee919061049f565b915050919050565b6109df806104cb83390190565b5f5ffd5b5f819050919050565b61031981610307565b8114610323575f5ffd5b50565b5f8135905061033481610310565b92915050565b5f5f604083850312156103505761034f610303565b5b5f61035d85828601610326565b925050602061036e85828601610326565b9150509250929050565b5f6020828403121561038d5761038c610303565b5b5f61039a84828501610326565b91505092915050565b5f73ffffffffffffffffffffffffffffffffffffffff82169050919050565b5f819050919050565b5f6103e56103e06103db846103a3565b6103c2565b6103a3565b9050919050565b5f6103f6826103cb565b9050919050565b5f610407826103ec565b9050919050565b610417816103fd565b82525050565b5f6020820190506104305f83018461040e565b92915050565b61043f81610307565b82525050565b5f6020820190506104585f830184610436565b92915050565b7f4e487b71000000000000000000000000000000000000000000000000000000005f52603260045260245ffd5b5f8151905061049981610310565b92915050565b5f602082840312156104b4576104b3610303565b5b5f6104c18482850161048b565b9150509291505056fe608060405260585f553480156012575f5ffd5b506109bf806100205f395ff3fe608060405234801561000f575f5ffd5b5060043610610060575f3560e01c80632a72a271146100645780634e70b1dc146100805780636057361d1461009e57806375a8be1a146100ba578063b05784b8146100eb578063f995beb814610109575b5f5ffd5b61007e60048036038101906100799190610490565b610139565b005b6100886101f8565b6040516100959190610502565b60405180910390f35b6100b860048036038101906100b39190610545565b6101fd565b005b6100d460048036038101906100cf9190610545565b610206565b6040516100e29291906105df565b60405180910390f35b6100f36102ca565b6040516101009190610502565b60405180910390f35b610123600480360381019061011e919061060d565b6102d2565b6040516101309190610654565b60405180910390f35b600260405180604001604052808363ffffffff16815260200184815250908060018154018082558091505060019003905f5260205f2090600202015f909190919091505f820151815f015f6101000a81548163ffffffff021916908363ffffffff16021790555060208201518160010190816101b5919061086a565b505050806003836040516101c99190610973565b90815260200160405180910390205f6101000a81548163ffffffff021916908363ffffffff1602179055505050565b5f5481565b805f8190555050565b60028181548110610215575f80fd5b905f5260205f2090600202015f91509050805f015f9054906101000a900463ffffffff16908060010180546102499061069a565b80601f01602080910402602001604051908101604052809291908181526020018280546102759061069a565b80156102c05780601f10610297576101008083540402835291602001916102c0565b820191905f5260205f20905b8154815290600101906020018083116102a357829003601f168201915b5050505050905082565b5f5f54905090565b6003818051602081018201805184825260208301602085012081835280955050505050505f915054906101000a900463ffffffff1681565b5f604051905090565b5f5ffd5b5f5ffd5b5f5ffd5b5f5ffd5b5f601f19601f8301169050919050565b7f4e487b71000000000000000000000000000000000000000000000000000000005f52604160045260245ffd5b61036982610323565b810181811067ffffffffffffffff8211171561038857610387610333565b5b80604052505050565b5f61039a61030a565b90506103a68282610360565b919050565b5f67ffffffffffffffff8211156103c5576103c4610333565b5b6103ce82610323565b9050602081019050919050565b828183375f83830152505050565b5f6103fb6103f6846103ab565b610391565b9050828152602081018484840111156104175761041661031f565b5b6104228482856103db565b509392505050565b5f82601f83011261043e5761043d61031b565b5b813561044e8482602086016103e9565b91505092915050565b5f63ffffffff82169050919050565b61046f81610457565b8114610479575f5ffd5b50565b5f8135905061048a81610466565b92915050565b5f5f604083850312156104a6576104a5610313565b5b5f83013567ffffffffffffffff8111156104c3576104c2610317565b5b6104cf8582860161042a565b92505060206104e08582860161047c565b9150509250929050565b5f819050919050565b6104fc816104ea565b82525050565b5f6020820190506105155f8301846104f3565b92915050565b610524816104ea565b811461052e575f5ffd5b50565b5f8135905061053f8161051b565b92915050565b5f6020828403121561055a57610559610313565b5b5f61056784828501610531565b91505092915050565b61057981610457565b82525050565b5f81519050919050565b5f82825260208201905092915050565b8281835e5f83830152505050565b5f6105b18261057f565b6105bb8185610589565b93506105cb818560208601610599565b6105d481610323565b840191505092915050565b5f6040820190506105f25f830185610570565b818103602083015261060481846105a7565b90509392505050565b5f6020828403121561062257610621610313565b5b5f82013567ffffffffffffffff81111561063f5761063e610317565b5b61064b8482850161042a565b91505092915050565b5f6020820190506106675f830184610570565b92915050565b7f4e487b71000000000000000000000000000000000000000000000000000000005f52602260045260245ffd5b5f60028204905060018216806106b157607f821691505b6020821081036106c4576106c361066d565b5b50919050565b5f819050815f5260205f209050919050565b5f6020601f8301049050919050565b5f82821b905092915050565b5f600883026107267fffffffffffffffffffffffffffffffffffffffffffffffffffffffffffffffff826106eb565b61073086836106eb565b95508019841693508086168417925050509392505050565b5f819050919050565b5f61076b610766610761846104ea565b610748565b6104ea565b9050919050565b5f819050919050565b61078483610751565b61079861079082610772565b8484546106f7565b825550505050565b5f5f905090565b6107af6107a0565b6107ba81848461077b565b505050565b5b818110156107dd576107d25f826107a7565b6001810190506107c0565b5050565b601f821115610822576107f3816106ca565b6107fc846106dc565b8101602085101561080b578190505b61081f610817856106dc565b8301826107bf565b50505b505050565b5f82821c905092915050565b5f6108425f1984600802610827565b1980831691505092915050565b5f61085a8383610833565b9150826002028217905092915050565b6108738261057f565b67ffffffffffffffff81111561088c5761088b610333565b5b610896825461069a565b6108a18282856107e1565b5f60209050601f8311600181146108d2575f84156108c0578287015190505b6108ca858261084f565b865550610931565b601f1984166108e0866106ca565b5f5b82811015610907578489015182556001820191506020850194506020810190506108e2565b868310156109245784890151610920601f891682610833565b8355505b6001600288020188555050505b505050505050565b5f81905092915050565b5f61094d8261057f565b6109578185610939565b9350610967818560208601610599565b80840191505092915050565b5f61097e8284610943565b91508190509291505056fea2646970667358221220f778bd6ac39a1d71ff3a708d6fb69fe025a6d0e308ec6f34b6db829a9257415d64736f6c634300081e0033a2646970667358221220ca2ffd60215fcd364a4a8adedba0bb8e1507165eedfc77b9854c4006765028fb64736f6c634300081e0033",
			"opcodes": "PUSH1 0x80 PUSH1 0x40 MSTORE CALLVALUE DUP1 ISZERO PUSH1 0xE JUMPI PUSH0 PUSH0 REVERT JUMPDEST POP PUSH2 0xEDF DUP1 PUSH2 0x1C PUSH0 CODECOPY PUSH0 RETURN INVALID PUSH1 0x80 PUSH1 0x40 MSTORE CALLVALUE DUP1 ISZERO PUSH2 0xF JUMPI PUSH0 PUSH0 REVERT JUMPDEST POP PUSH1 0x4 CALLDATASIZE LT PUSH2 0x4A JUMPI PUSH0 CALLDATALOAD PUSH1 0xE0 SHR DUP1 PUSH4 0x1563700F EQ PUSH2 0x4E JUMPI DUP1 PUSH4 0x40D66B3B EQ PUSH2 0x6A JUMPI DUP1 PUSH4 0xA1786DBE EQ PUSH2 0x74 JUMPI DUP1 PUSH4 0xC5F19C20 EQ PUSH2 0xA4 JUMPI JUMPDEST PUSH0 PUSH0 REVERT JUMPDEST PUSH2 0x68 PUSH1 0x4 DUP1 CALLDATASIZE SUB DUP2 ADD SWAP1 PUSH2 0x63 SWAP2 SWAP1 PUSH2 0x33A JUMP JUMPDEST PUSH2 0xD4 JUMP JUMPDEST STOP JUMPDEST PUSH2 0x72 PUSH2 0x17D JUMP JUMPDEST STOP JUMPDEST PUSH2 0x8E PUSH1 0x4 DUP1 CALLDATASIZE SUB DUP2 ADD SWAP1 PUSH2 0x89 SWAP2 SWAP1 PUSH2 0x378 JUMP JUMPDEST PUSH2 0x208 JUMP JUMPDEST PUSH1 0x40 MLOAD PUSH2 0x9B SWAP2 SWAP1 PUSH2 0x41D JUMP JUMPDEST PUSH1 0x40 MLOAD DUP1 SWAP2 SUB SWAP1 RETURN JUMPDEST PUSH2 0xBE PUSH1 0x4 DUP1 CALLDATASIZE SUB DUP2 ADD SWAP1 PUSH2 0xB9 SWAP2 SWAP1 PUSH2 0x378 JUMP JUMPDEST PUSH2 0x242 JUMP JUMPDEST PUSH1 0x40 MLOAD PUSH2 0xCB SWAP2 SWAP1 PUSH2 0x445 JUMP JUMPDEST PUSH1 0x40 MLOAD DUP1 SWAP2 SUB SWAP1 RETURN JUMPDEST PUSH0 PUSH0 DUP4 DUP2 SLOAD DUP2 LT PUSH2 0xE8 JUMPI PUSH2 0xE7 PUSH2 0x45E JUMP JUMPDEST JUMPDEST SWAP1 PUSH0 MSTORE PUSH1 0x20 PUSH0 KECCAK256 ADD PUSH0 SWAP1 SLOAD SWAP1 PUSH2 0x100 EXP SWAP1 DIV PUSH20 0xFFFFFFFFFFFFFFFFFFFFFFFFFFFFFFFFFFFFFFFF AND SWAP1 POP DUP1 PUSH20 0xFFFFFFFFFFFFFFFFFFFFFFFFFFFFFFFFFFFFFFFF AND PUSH4 0x6057361D DUP4 PUSH1 0x40 MLOAD DUP3 PUSH4 0xFFFFFFFF AND PUSH1 0xE0 SHL DUP2 MSTORE PUSH1 0x4 ADD PUSH2 0x14B SWAP2 SWAP1 PUSH2 0x445 JUMP JUMPDEST PUSH0 PUSH1 0x40 MLOAD DUP1 DUP4 SUB DUP2 PUSH0 DUP8 DUP1 EXTCODESIZE ISZERO DUP1 ISZERO PUSH2 0x162 JUMPI PUSH0 PUSH0 REVERT JUMPDEST POP GAS CALL ISZERO DUP1 ISZERO PUSH2 0x174 JUMPI RETURNDATASIZE PUSH0 PUSH0 RETURNDATACOPY RETURNDATASIZE PUSH0 REVERT JUMPDEST POP POP POP POP POP POP POP JUMP JUMPDEST PUSH0 PUSH1 0x40 MLOAD PUSH2 0x18A SWAP1 PUSH2 0x2F6 JUMP JUMPDEST PUSH1 0x40 MLOAD DUP1 SWAP2 SUB SWAP1 PUSH0 CREATE DUP1 ISZERO DUP1 ISZERO PUSH2 0x1A3 JUMPI RETURNDATASIZE PUSH0 PUSH0 RETURNDATACOPY RETURNDATASIZE PUSH0 REVERT JUMPDEST POP SWAP1 POP PUSH0 DUP2 SWAP1 DUP1 PUSH1 0x1 DUP2 SLOAD ADD DUP1 DUP3 SSTORE DUP1 SWAP2 POP POP PUSH1 0x1 SWAP1 SUB SWAP1 PUSH0 MSTORE PUSH1 0x20 PUSH0 KECCAK256 ADD PUSH0 SWAP1 SWAP2 SWAP1 SWAP2 SWAP1 SWAP2 PUSH2 0x100 EXP DUP2 SLOAD DUP2 PUSH20 0xFFFFFFFFFFFFFFFFFFFFFFFFFFFFFFFFFFFFFFFF MUL NOT AND SWAP1 DUP4 PUSH20 0xFFFFFFFFFFFFFFFFFFFFFFFFFFFFFFFFFFFFFFFF AND MUL OR SWAP1 SSTORE POP POP JUMP JUMPDEST PUSH0 DUP2 DUP2 SLOAD DUP2 LT PUSH2 0x216 JUMPI PUSH0 DUP1 REVERT JUMPDEST SWAP1 PUSH0 MSTORE PUSH1 0x20 PUSH0 KECCAK256 ADD PUSH0 SWAP2 POP SLOAD SWAP1 PUSH2 0x100 EXP SWAP1 DIV PUSH20 0xFFFFFFFFFFFFFFFFFFFFFFFFFFFFFFFFFFFFFFFF AND DUP2 JUMP JUMPDEST PUSH0 PUSH0 PUSH0 DUP4 DUP2 SLOAD DUP2 LT PUSH2 0x257 JUMPI PUSH2 0x256 PUSH2 0x45E JUMP JUMPDEST JUMPDEST SWAP1 PUSH0 MSTORE PUSH1 0x20 PUSH0 KECCAK256 ADD PUSH0 SWAP1 SLOAD SWAP1 PUSH2 0x100 EXP SWAP1 DIV PUSH20 0xFFFFFFFFFFFFFFFFFFFFFFFFFFFFFFFFFFFFFFFF AND SWAP1 POP DUP1 PUSH20 0xFFFFFFFFFFFFFFFFFFFFFFFFFFFFFFFFFFFFFFFF AND PUSH4 0xB05784B8 PUSH1 0x40 MLOAD DUP2 PUSH4 0xFFFFFFFF AND PUSH1 0xE0 SHL DUP2 MSTORE PUSH1 0x4 ADD PUSH1 0x20 PUSH1 0x40 MLOAD DUP1 DUP4 SUB DUP2 DUP7 GAS STATICCALL ISZERO DUP1 ISZERO PUSH2 0x2CA JUMPI RETURNDATASIZE PUSH0 PUSH0 RETURNDATACOPY RETURNDATASIZE PUSH0 REVERT JUMPDEST POP POP POP POP PUSH1 0x40 MLOAD RETURNDATASIZE PUSH1 0x1F NOT PUSH1 0x1F DUP3 ADD AND DUP3 ADD DUP1 PUSH1 0x40 MSTORE POP DUP2 ADD SWAP1 PUSH2 0x2EE SWAP2 SWAP1 PUSH2 0x49F JUMP JUMPDEST SWAP2 POP POP SWAP2 SWAP1 POP JUMP JUMPDEST PUSH2 0x9DF DUP1 PUSH2 0x4CB DUP4 CODECOPY ADD SWAP1 JUMP JUMPDEST PUSH0 PUSH0 REVERT JUMPDEST PUSH0 DUP2 SWAP1 POP SWAP2 SWAP1 POP JUMP JUMPDEST PUSH2 0x319 DUP2 PUSH2 0x307 JUMP JUMPDEST DUP2 EQ PUSH2 0x323 JUMPI PUSH0 PUSH0 REVERT JUMPDEST POP JUMP JUMPDEST PUSH0 DUP2 CALLDATALOAD SWAP1 POP PUSH2 0x334 DUP2 PUSH2 0x310 JUMP JUMPDEST SWAP3 SWAP2 POP POP JUMP JUMPDEST PUSH0 PUSH0 PUSH1 0x40 DUP4 DUP6 SUB SLT ISZERO PUSH2 0x350 JUMPI PUSH2 0x34F PUSH2 0x303 JUMP JUMPDEST JUMPDEST PUSH0 PUSH2 0x35D DUP6 DUP3 DUP7 ADD PUSH2 0x326 JUMP JUMPDEST SWAP3 POP POP PUSH1 0x20 PUSH2 0x36E DUP6 DUP3 DUP7 ADD PUSH2 0x326 JUMP JUMPDEST SWAP2 POP POP SWAP3 POP SWAP3 SWAP1 POP JUMP JUMPDEST PUSH0 PUSH1 0x20 DUP3 DUP5 SUB SLT ISZERO PUSH2 0x38D JUMPI PUSH2 0x38C PUSH2 0x303 JUMP JUMPDEST JUMPDEST PUSH0 PUSH2 0x39A DUP5 DUP3 DUP6 ADD PUSH2 0x326 JUMP JUMPDEST SWAP2 POP POP SWAP3 SWAP2 POP POP JUMP JUMPDEST PUSH0 PUSH20 0xFFFFFFFFFFFFFFFFFFFFFFFFFFFFFFFFFFFFFFFF DUP3 AND SWAP1 POP SWAP2 SWAP1 POP JUMP JUMPDEST PUSH0 DUP2 SWAP1 POP SWAP2 SWAP1 POP JUMP JUMPDEST PUSH0 PUSH2 0x3E5 PUSH2 0x3E0 PUSH2 0x3DB DUP5 PUSH2 0x3A3 JUMP JUMPDEST PUSH2 0x3C2 JUMP JUMPDEST PUSH2 0x3A3 JUMP JUMPDEST SWAP1 POP SWAP2 SWAP1 POP JUMP JUMPDEST PUSH0 PUSH2 0x3F6 DUP3 PUSH2 0x3CB JUMP JUMPDEST SWAP1 POP SWAP2 SWAP1 POP JUMP JUMPDEST PUSH0 PUSH2 0x407 DUP3 PUSH2 0x3EC JUMP JUMPDEST SWAP1 POP SWAP2 SWAP1 POP JUMP JUMPDEST PUSH2 0x417 DUP2 PUSH2 0x3FD JUMP JUMPDEST DUP3 MSTORE POP POP JUMP JUMPDEST PUSH0 PUSH1 0x20 DUP3 ADD SWAP1 POP PUSH2 0x430 PUSH0 DUP4 ADD DUP5 PUSH2 0x40E JUMP JUMPDEST SWAP3 SWAP2 POP POP JUMP JUMPDEST PUSH2 0x43F DUP2 PUSH2 0x307 JUMP JUMPDEST DUP3 MSTORE POP POP JUMP JUMPDEST PUSH0 PUSH1 0x20 DUP3 ADD SWAP1 POP PUSH2 0x458 PUSH0 DUP4 ADD DUP5 PUSH2 0x436 JUMP JUMPDEST SWAP3 SWAP2 POP POP JUMP JUMPDEST PUSH32 0x4E487B7100000000000000000000000000000000000000000000000000000000 PUSH0 MSTORE PUSH1 0x32 PUSH1 0x4 MSTORE PUSH1 0x24 PUSH0 REVERT JUMPDEST PUSH0 DUP2 MLOAD SWAP1 POP PUSH2 0x499 DUP2 PUSH2 0x310 JUMP JUMPDEST SWAP3 SWAP2 POP POP JUMP JUMPDEST PUSH0 PUSH1 0x20 DUP3 DUP5 SUB SLT ISZERO PUSH2 0x4B4 JUMPI PUSH2 0x4B3 PUSH2 0x303 JUMP JUMPDEST JUMPDEST PUSH0 PUSH2 0x4C1 DUP5 DUP3 DUP6 ADD PUSH2 0x48B JUMP JUMPDEST SWAP2 POP POP SWAP3 SWAP2 POP POP JUMP INVALID PUSH1 0x80 PUSH1 0x40 MSTORE PUSH1 0x58 PUSH0 SSTORE CALLVALUE DUP1 ISZERO PUSH1 0x12 JUMPI PUSH0 PUSH0 REVERT JUMPDEST POP PUSH2 0x9BF DUP1 PUSH2 0x20 PUSH0 CODECOPY PUSH0 RETURN INVALID PUSH1 0x80 PUSH1 0x40 MSTORE CALLVALUE DUP1 ISZERO PUSH2 0xF JUMPI PUSH0 PUSH0 REVERT JUMPDEST POP PUSH1 0x4 CALLDATASIZE LT PUSH2 0x60 JUMPI PUSH0 CALLDATALOAD PUSH1 0xE0 SHR DUP1 PUSH4 0x2A72A271 EQ PUSH2 0x64 JUMPI DUP1 PUSH4 0x4E70B1DC EQ PUSH2 0x80 JUMPI DUP1 PUSH4 0x6057361D EQ PUSH2 0x9E JUMPI DUP1 PUSH4 0x75A8BE1A EQ PUSH2 0xBA JUMPI DUP1 PUSH4 0xB05784B8 EQ PUSH2 0xEB JUMPI DUP1 PUSH4 0xF995BEB8 EQ PUSH2 0x109 JUMPI JUMPDEST PUSH0 PUSH0 REVERT JUMPDEST PUSH2 0x7E PUSH1 0x4 DUP1 CALLDATASIZE SUB DUP2 ADD SWAP1 PUSH2 0x79 SWAP2 SWAP1 PUSH2 0x490 JUMP JUMPDEST PUSH2 0x139 JUMP JUMPDEST STOP JUMPDEST PUSH2 0x88 PUSH2 0x1F8 JUMP JUMPDEST PUSH1 0x40 MLOAD PUSH2 0x95 SWAP2 SWAP1 PUSH2 0x502 JUMP JUMPDEST PUSH1 0x40 MLOAD DUP1 SWAP2 SUB SWAP1 RETURN JUMPDEST PUSH2 0xB8 PUSH1 0x4 DUP1 CALLDATASIZE SUB DUP2 ADD SWAP1 PUSH2 0xB3 SWAP2 SWAP1 PUSH2 0x545 JUMP JUMPDEST PUSH2 0x1FD JUMP JUMPDEST STOP JUMPDEST PUSH2 0xD4 PUSH1 0x4 DUP1 CALLDATASIZE SUB DUP2 ADD SWAP1 PUSH2 0xCF SWAP2 SWAP1 PUSH2 0x545 JUMP JUMPDEST PUSH2 0x206 JUMP JUMPDEST PUSH1 0x40 MLOAD PUSH2 0xE2 SWAP3 SWAP2 SWAP1 PUSH2 0x5DF JUMP JUMPDEST PUSH1 0x40 MLOAD DUP1 SWAP2 SUB SWAP1 RETURN JUMPDEST PUSH2 0xF3 PUSH2 0x2CA JUMP JUMPDEST PUSH1 0x40 MLOAD PUSH2 0x100 SWAP2 SWAP1 PUSH2 0x502 JUMP JUMPDEST PUSH1 0x40 MLOAD DUP1 SWAP2 SUB SWAP1 RETURN JUMPDEST PUSH2 0x123 PUSH1 0x4 DUP1 CALLDATASIZE SUB DUP2 ADD SWAP1 PUSH2 0x11E SWAP2 SWAP1 PUSH2 0x60D JUMP JUMPDEST PUSH2 0x2D2 JUMP JUMPDEST PUSH1 0x40 MLOAD PUSH2 0x130 SWAP2 SWAP1 PUSH2 0x654 JUMP JUMPDEST PUSH1 0x40 MLOAD DUP1 SWAP2 SUB SWAP1 RETURN JUMPDEST PUSH1 0x2 PUSH1 0x40 MLOAD DUP1 PUSH1 0x40 ADD PUSH1 0x40 MSTORE DUP1 DUP4 PUSH4 0xFFFFFFFF AND DUP2 MSTORE PUSH1 0x20 ADD DUP5 DUP2 MSTORE POP SWAP1 DUP1 PUSH1 0x1 DUP2 SLOAD ADD DUP1 DUP3 SSTORE DUP1 SWAP2 POP POP PUSH1 0x1 SWAP1 SUB SWAP1 PUSH0 MSTORE PUSH1 0x20 PUSH0 KECCAK256 SWAP1 PUSH1 0x2 MUL ADD PUSH0 SWAP1 SWAP2 SWAP1 SWAP2 SWAP1 SWAP2 POP PUSH0 DUP3 ADD MLOAD DUP2 PUSH0 ADD PUSH0 PUSH2 0x100 EXP DUP2 SLOAD DUP2 PUSH4 0xFFFFFFFF MUL NOT AND SWAP1 DUP4 PUSH4 0xFFFFFFFF AND MUL OR SWAP1 SSTORE POP PUSH1 0x20 DUP3 ADD MLOAD DUP2 PUSH1 0x1 ADD SWAP1 DUP2 PUSH2 0x1B5 SWAP2 SWAP1 PUSH2 0x86A JUMP JUMPDEST POP POP POP DUP1 PUSH1 0x3 DUP4 PUSH1 0x40 MLOAD PUSH2 0x1C9 SWAP2 SWAP1 PUSH2 0x973 JUMP JUMPDEST SWAP1 DUP2 MSTORE PUSH1 0x20 ADD PUSH1 0x40 MLOAD DUP1 SWAP2 SUB SWAP1 KECCAK256 PUSH0 PUSH2 0x100 EXP DUP2 SLOAD DUP2 PUSH4 0xFFFFFFFF MUL NOT AND SWAP1 DUP4 PUSH4 0xFFFFFFFF AND MUL OR SWAP1 SSTORE POP POP POP JUMP JUMPDEST PUSH0 SLOAD DUP2 JUMP JUMPDEST DUP1 PUSH0 DUP2 SWAP1 SSTORE POP POP JUMP JUMPDEST PUSH1 0x2 DUP2 DUP2 SLOAD DUP2 LT PUSH2 0x215 JUMPI PUSH0 DUP1 REVERT JUMPDEST SWAP1 PUSH0 MSTORE PUSH1 0x20 PUSH0 KECCAK256 SWAP1 PUSH1 0x2 MUL ADD PUSH0 SWAP2 POP SWAP1 POP DUP1 PUSH0 ADD PUSH0 SWAP1 SLOAD SWAP1 PUSH2 0x100 EXP SWAP1 DIV PUSH4 0xFFFFFFFF AND SWAP1 DUP1 PUSH1 0x1 ADD DUP1 SLOAD PUSH2 0x249 SWAP1 PUSH2 0x69A JUMP JUMPDEST DUP1 PUSH1 0x1F ADD PUSH1 0x20 DUP1 SWAP2 DIV MUL PUSH1 0x20 ADD PUSH1 0x40 MLOAD SWAP1 DUP2 ADD PUSH1 0x40 MSTORE DUP1 SWAP3 SWAP2 SWAP1 DUP2 DUP2 MSTORE PUSH1 0x20 ADD DUP3 DUP1 SLOAD PUSH2 0x275 SWAP1 PUSH2 0x69A JUMP JUMPDEST DUP1 ISZERO PUSH2 0x2C0 JUMPI DUP1 PUSH1 0x1F LT PUSH2 0x297 JUMPI PUSH2 0x100 DUP1 DUP4 SLOAD DIV MUL DUP4 MSTORE SWAP2 PUSH1 0x20 ADD SWAP2 PUSH2 0x2C0 JUMP JUMPDEST DUP3 ADD SWAP2 SWAP1 PUSH0 MSTORE PUSH1 0x20 PUSH0 KECCAK256 SWAP1 JUMPDEST DUP2 SLOAD DUP2 MSTORE SWAP1 PUSH1 0x1 ADD SWAP1 PUSH1 0x20 ADD DUP1 DUP4 GT PUSH2 0x2A3 JUMPI DUP3 SWAP1 SUB PUSH1 0x1F AND DUP3 ADD SWAP2 JUMPDEST POP POP POP POP POP SWAP1 POP DUP3 JUMP JUMPDEST PUSH0 PUSH0 SLOAD SWAP1 POP SWAP1 JUMP JUMPDEST PUSH1 0x3 DUP2 DUP1 MLOAD PUSH1 0x20 DUP2 ADD DUP3 ADD DUP1 MLOAD DUP5 DUP3 MSTORE PUSH1 0x20 DUP4 ADD PUSH1 0x20 DUP6 ADD KECCAK256 DUP2 DUP4 MSTORE DUP1 SWAP6 POP POP POP POP POP POP PUSH0 SWAP2 POP SLOAD SWAP1 PUSH2 0x100 EXP SWAP1 DIV PUSH4 0xFFFFFFFF AND DUP2 JUMP JUMPDEST PUSH0 PUSH1 0x40 MLOAD SWAP1 POP SWAP1 JUMP JUMPDEST PUSH0 PUSH0 REVERT JUMPDEST PUSH0 PUSH0 REVERT JUMPDEST PUSH0 PUSH0 REVERT JUMPDEST PUSH0 PUSH0 REVERT JUMPDEST PUSH0 PUSH1 0x1F NOT PUSH1 0x1F DUP4 ADD AND SWAP1 POP SWAP2 SWAP1 POP JUMP JUMPDEST PUSH32 0x4E487B7100000000000000000000000000000000000000000000000000000000 PUSH0 MSTORE PUSH1 0x41 PUSH1 0x4 MSTORE PUSH1 0x24 PUSH0 REVERT JUMPDEST PUSH2 0x369 DUP3 PUSH2 0x323 JUMP JUMPDEST DUP2 ADD DUP2 DUP2 LT PUSH8 0xFFFFFFFFFFFFFFFF DUP3 GT OR ISZERO PUSH2 0x388 JUMPI PUSH2 0x387 PUSH2 0x333 JUMP JUMPDEST JUMPDEST DUP1 PUSH1 0x40 MSTORE POP POP POP JUMP JUMPDEST PUSH0 PUSH2 0x39A PUSH2 0x30A JUMP JUMPDEST SWAP1 POP PUSH2 0x3A6 DUP3 DUP3 PUSH2 0x360 JUMP JUMPDEST SWAP2 SWAP1 POP JUMP JUMPDEST PUSH0 PUSH8 0xFFFFFFFFFFFFFFFF DUP3 GT ISZERO PUSH2 0x3C5 JUMPI PUSH2 0x3C4 PUSH2 0x333 JUMP JUMPDEST JUMPDEST PUSH2 0x3CE DUP3 PUSH2 0x323 JUMP JUMPDEST SWAP1 POP PUSH1 0x20 DUP2 ADD SWAP1 POP SWAP2 SWAP1 POP JUMP JUMPDEST DUP3 DUP2 DUP4 CALLDATACOPY PUSH0 DUP4 DUP4 ADD MSTORE POP POP POP JUMP JUMPDEST PUSH0 PUSH2 0x3FB PUSH2 0x3F6 DUP5 PUSH2 0x3AB JUMP JUMPDEST PUSH2 0x391 JUMP JUMPDEST SWAP1 POP DUP3 DUP2 MSTORE PUSH1 0x20 DUP2 ADD DUP5 DUP5 DUP5 ADD GT ISZERO PUSH2 0x417 JUMPI PUSH2 0x416 PUSH2 0x31F JUMP JUMPDEST JUMPDEST PUSH2 0x422 DUP5 DUP3 DUP6 PUSH2 0x3DB JUMP JUMPDEST POP SWAP4 SWAP3 POP POP POP JUMP JUMPDEST PUSH0 DUP3 PUSH1 0x1F DUP4 ADD SLT PUSH2 0x43E JUMPI PUSH2 0x43D PUSH2 0x31B JUMP JUMPDEST JUMPDEST DUP2 CALLDATALOAD PUSH2 0x44E DUP5 DUP3 PUSH1 0x20 DUP7 ADD PUSH2 0x3E9 JUMP JUMPDEST SWAP2 POP POP SWAP3 SWAP2 POP POP JUMP JUMPDEST PUSH0 PUSH4 0xFFFFFFFF DUP3 AND SWAP1 POP SWAP2 SWAP1 POP JUMP JUMPDEST PUSH2 0x46F DUP2 PUSH2 0x457 JUMP JUMPDEST DUP2 EQ PUSH2 0x479 JUMPI PUSH0 PUSH0 REVERT JUMPDEST POP JUMP JUMPDEST PUSH0 DUP2 CALLDATALOAD SWAP1 POP PUSH2 0x48A DUP2 PUSH2 0x466 JUMP JUMPDEST SWAP3 SWAP2 POP POP JUMP JUMPDEST PUSH0 PUSH0 PUSH1 0x40 DUP4 DUP6 SUB SLT ISZERO PUSH2 0x4A6 JUMPI PUSH2 0x4A5 PUSH2 0x313 JUMP JUMPDEST JUMPDEST PUSH0 DUP4 ADD CALLDATALOAD PUSH8 0xFFFFFFFFFFFFFFFF DUP2 GT ISZERO PUSH2 0x4C3 JUMPI PUSH2 0x4C2 PUSH2 0x317 JUMP JUMPDEST JUMPDEST PUSH2 0x4CF DUP6 DUP3 DUP7 ADD PUSH2 0x42A JUMP JUMPDEST SWAP3 POP POP PUSH1 0x20 PUSH2 0x4E0 DUP6 DUP3 DUP7 ADD PUSH2 0x47C JUMP JUMPDEST SWAP2 POP POP SWAP3 POP SWAP3 SWAP1 POP JUMP JUMPDEST PUSH0 DUP2 SWAP1 POP SWAP2 SWAP1 POP JUMP JUMPDEST PUSH2 0x4FC DUP2 PUSH2 0x4EA JUMP JUMPDEST DUP3 MSTORE POP POP JUMP JUMPDEST PUSH0 PUSH1 0x20 DUP3 ADD SWAP1 POP PUSH2 0x515 PUSH0 DUP4 ADD DUP5 PUSH2 0x4F3 JUMP JUMPDEST SWAP3 SWAP2 POP POP JUMP JUMPDEST PUSH2 0x524 DUP2 PUSH2 0x4EA JUMP JUMPDEST DUP2 EQ PUSH2 0x52E JUMPI PUSH0 PUSH0 REVERT JUMPDEST POP JUMP JUMPDEST PUSH0 DUP2 CALLDATALOAD SWAP1 POP PUSH2 0x53F DUP2 PUSH2 0x51B JUMP JUMPDEST SWAP3 SWAP2 POP POP JUMP JUMPDEST PUSH0 PUSH1 0x20 DUP3 DUP5 SUB SLT ISZERO PUSH2 0x55A JUMPI PUSH2 0x559 PUSH2 0x313 JUMP JUMPDEST JUMPDEST PUSH0 PUSH2 0x567 DUP5 DUP3 DUP6 ADD PUSH2 0x531 JUMP JUMPDEST SWAP2 POP POP SWAP3 SWAP2 POP POP JUMP JUMPDEST PUSH2 0x579 DUP2 PUSH2 0x457 JUMP JUMPDEST DUP3 MSTORE POP POP JUMP JUMPDEST PUSH0 DUP2 MLOAD SWAP1 POP SWAP2 SWAP1 POP JUMP JUMPDEST PUSH0 DUP3 DUP3 MSTORE PUSH1 0x20 DUP3 ADD SWAP1 POP SWAP3 SWAP2 POP POP JUMP JUMPDEST DUP3 DUP2 DUP4 MCOPY PUSH0 DUP4 DUP4 ADD MSTORE POP POP POP JUMP JUMPDEST PUSH0 PUSH2 0x5B1 DUP3 PUSH2 0x57F JUMP JUMPDEST PUSH2 0x5BB DUP2 DUP6 PUSH2 0x589 JUMP JUMPDEST SWAP4 POP PUSH2 0x5CB DUP2 DUP6 PUSH1 0x20 DUP7 ADD PUSH2 0x599 JUMP JUMPDEST PUSH2 0x5D4 DUP2 PUSH2 0x323 JUMP JUMPDEST DUP5 ADD SWAP2 POP POP SWAP3 SWAP2 POP POP JUMP JUMPDEST PUSH0 PUSH1 0x40 DUP3 ADD SWAP1 POP PUSH2 0x5F2 PUSH0 DUP4 ADD DUP6 PUSH2 0x570 JUMP JUMPDEST DUP2 DUP2 SUB PUSH1 0x20 DUP4 ADD MSTORE PUSH2 0x604 DUP2 DUP5 PUSH2 0x5A7 JUMP JUMPDEST SWAP1 POP SWAP4 SWAP3 POP POP POP JUMP JUMPDEST PUSH0 PUSH1 0x20 DUP3 DUP5 SUB SLT ISZERO PUSH2 0x622 JUMPI PUSH2 0x621 PUSH2 0x313 JUMP JUMPDEST JUMPDEST PUSH0 DUP3 ADD CALLDATALOAD PUSH8 0xFFFFFFFFFFFFFFFF DUP2 GT ISZERO PUSH2 0x63F JUMPI PUSH2 0x63E PUSH2 0x317 JUMP JUMPDEST JUMPDEST PUSH2 0x64B DUP5 DUP3 DUP6 ADD PUSH2 0x42A JUMP JUMPDEST SWAP2 POP POP SWAP3 SWAP2 POP POP JUMP JUMPDEST PUSH0 PUSH1 0x20 DUP3 ADD SWAP1 POP PUSH2 0x667 PUSH0 DUP4 ADD DUP5 PUSH2 0x570 JUMP JUMPDEST SWAP3 SWAP2 POP POP JUMP JUMPDEST PUSH32 0x4E487B7100000000000000000000000000000000000000000000000000000000 PUSH0 MSTORE PUSH1 0x22 PUSH1 0x4 MSTORE PUSH1 0x24 PUSH0 REVERT JUMPDEST PUSH0 PUSH1 0x2 DUP3 DIV SWAP1 POP PUSH1 0x1 DUP3 AND DUP1 PUSH2 0x6B1 JUMPI PUSH1 0x7F DUP3 AND SWAP2 POP JUMPDEST PUSH1 0x20 DUP3 LT DUP2 SUB PUSH2 0x6C4 JUMPI PUSH2 0x6C3 PUSH2 0x66D JUMP JUMPDEST JUMPDEST POP SWAP2 SWAP1 POP JUMP JUMPDEST PUSH0 DUP2 SWAP1 POP DUP2 PUSH0 MSTORE PUSH1 0x20 PUSH0 KECCAK256 SWAP1 POP SWAP2 SWAP1 POP JUMP JUMPDEST PUSH0 PUSH1 0x20 PUSH1 0x1F DUP4 ADD DIV SWAP1 POP SWAP2 SWAP1 POP JUMP JUMPDEST PUSH0 DUP3 DUP3 SHL SWAP1 POP SWAP3 SWAP2 POP POP JUMP JUMPDEST PUSH0 PUSH1 0x8 DUP4 MUL PUSH2 0x726 PUSH32 0xFFFFFFFFFFFFFFFFFFFFFFFFFFFFFFFFFFFFFFFFFFFFFFFFFFFFFFFFFFFFFFFF DUP3 PUSH2 0x6EB JUMP JUMPDEST PUSH2 0x730 DUP7 DUP4 PUSH2 0x6EB JUMP JUMPDEST SWAP6 POP DUP1 NOT DUP5 AND SWAP4 POP DUP1 DUP7 AND DUP5 OR SWAP3 POP POP POP SWAP4 SWAP3 POP POP POP JUMP JUMPDEST PUSH0 DUP2 SWAP1 POP SWAP2 SWAP1 POP JUMP JUMPDEST PUSH0 PUSH2 0x76B PUSH2 0x766 PUSH2 0x761 DUP5 PUSH2 0x4EA JUMP JUMPDEST PUSH2 0x748 JUMP JUMPDEST PUSH2 0x4EA JUMP JUMPDEST SWAP1 POP SWAP2 SWAP1 POP JUMP JUMPDEST PUSH0 DUP2 SWAP1 POP SWAP2 SWAP1 POP JUMP JUMPDEST PUSH2 0x784 DUP4 PUSH2 0x751 JUMP JUMPDEST PUSH2 0x798 PUSH2 0x790 DUP3 PUSH2 0x772 JUMP JUMPDEST DUP5 DUP5 SLOAD PUSH2 0x6F7 JUMP JUMPDEST DUP3 SSTORE POP POP POP POP JUMP JUMPDEST PUSH0 PUSH0 SWAP1 POP SWAP1 JUMP JUMPDEST PUSH2 0x7AF PUSH2 0x7A0 JUMP JUMPDEST PUSH2 0x7BA DUP2 DUP5 DUP5 PUSH2 0x77B JUMP JUMPDEST POP POP POP JUMP JUMPDEST JUMPDEST DUP2 DUP2 LT ISZERO PUSH2 0x7DD JUMPI PUSH2 0x7D2 PUSH0 DUP3 PUSH2 0x7A7 JUMP JUMPDEST PUSH1 0x1 DUP2 ADD SWAP1 POP PUSH2 0x7C0 JUMP JUMPDEST POP POP JUMP JUMPDEST PUSH1 0x1F DUP3 GT ISZERO PUSH2 0x822 JUMPI PUSH2 0x7F3 DUP2 PUSH2 0x6CA JUMP JUMPDEST PUSH2 0x7FC DUP5 PUSH2 0x6DC JUMP JUMPDEST DUP2 ADD PUSH1 0x20 DUP6 LT ISZERO PUSH2 0x80B JUMPI DUP2 SWAP1 POP JUMPDEST PUSH2 0x81F PUSH2 0x817 DUP6 PUSH2 0x6DC JUMP JUMPDEST DUP4 ADD DUP3 PUSH2 0x7BF JUMP JUMPDEST POP POP JUMPDEST POP POP POP JUMP JUMPDEST PUSH0 DUP3 DUP3 SHR SWAP1 POP SWAP3 SWAP2 POP POP JUMP JUMPDEST PUSH0 PUSH2 0x842 PUSH0 NOT DUP5 PUSH1 0x8 MUL PUSH2 0x827 JUMP JUMPDEST NOT DUP1 DUP4 AND SWAP2 POP POP SWAP3 SWAP2 POP POP JUMP JUMPDEST PUSH0 PUSH2 0x85A DUP4 DUP4 PUSH2 0x833 JUMP JUMPDEST SWAP2 POP DUP3 PUSH1 0x2 MUL DUP3 OR SWAP1 POP SWAP3 SWAP2 POP POP JUMP JUMPDEST PUSH2 0x873 DUP3 PUSH2 0x57F JUMP JUMPDEST PUSH8 0xFFFFFFFFFFFFFFFF DUP2 GT ISZERO PUSH2 0x88C JUMPI PUSH2 0x88B PUSH2 0x333 JUMP JUMPDEST JUMPDEST PUSH2 0x896 DUP3 SLOAD PUSH2 0x69A JUMP JUMPDEST PUSH2 0x8A1 DUP3 DUP3 DUP6 PUSH2 0x7E1 JUMP JUMPDEST PUSH0 PUSH1 0x20 SWAP1 POP PUSH1 0x1F DUP4 GT PUSH1 0x1 DUP2 EQ PUSH2 0x8D2 JUMPI PUSH0 DUP5 ISZERO PUSH2 0x8C0 JUMPI DUP3 DUP8 ADD MLOAD SWAP1 POP JUMPDEST PUSH2 0x8CA DUP6 DUP3 PUSH2 0x84F JUMP JUMPDEST DUP7 SSTORE POP PUSH2 0x931 JUMP JUMPDEST PUSH1 0x1F NOT DUP5 AND PUSH2 0x8E0 DUP7 PUSH2 0x6CA JUMP JUMPDEST PUSH0 JUMPDEST DUP3 DUP2 LT ISZERO PUSH2 0x907 JUMPI DUP5 DUP10 ADD MLOAD DUP3 SSTORE PUSH1 0x1 DUP3 ADD SWAP2 POP PUSH1 0x20 DUP6 ADD SWAP5 POP PUSH1 0x20 DUP2 ADD SWAP1 POP PUSH2 0x8E2 JUMP JUMPDEST DUP7 DUP4 LT ISZERO PUSH2 0x924 JUMPI DUP5 DUP10 ADD MLOAD PUSH2 0x920 PUSH1 0x1F DUP10 AND DUP3 PUSH2 0x833 JUMP JUMPDEST DUP4 SSTORE POP JUMPDEST PUSH1 0x1 PUSH1 0x2 DUP9 MUL ADD DUP9 SSTORE POP POP POP JUMPDEST POP POP POP POP POP POP JUMP JUMPDEST PUSH0 DUP2 SWAP1 POP SWAP3 SWAP2 POP POP JUMP JUMPDEST PUSH0 PUSH2 0x94D DUP3 PUSH2 0x57F JUMP JUMPDEST PUSH2 0x957 DUP2 DUP6 PUSH2 0x939 JUMP JUMPDEST SWAP4 POP PUSH2 0x967 DUP2 DUP6 PUSH1 0x20 DUP7 ADD PUSH2 0x599 JUMP JUMPDEST DUP1 DUP5 ADD SWAP2 POP POP SWAP3 SWAP2 POP POP JUMP JUMPDEST PUSH0 PUSH2 0x97E DUP3 DUP5 PUSH2 0x943 JUMP JUMPDEST SWAP2 POP DUP2 SWAP1 POP SWAP3 SWAP2 POP POP JUMP INVALID LOG2 PUSH5 0x6970667358 0x22 SLT KECCAK256 0xF7 PUSH25 0xBD6AC39A1D71FF3A708D6FB69FE025A6D0E308EC6F34B6DB82 SWAP11 SWAP3 JUMPI COINBASE TSTORE PUSH5 0x736F6C6343 STOP ADDMOD 0x1E STOP CALLER LOG2 PUSH5 0x6970667358 0x22 SLT KECCAK256 0xCA 0x2F REVERT PUSH1 0x21 PUSH0 0xCD CALLDATASIZE BLOBBASEFEE BLOBBASEFEE DUP11 0xDE 0xDB LOG0 0xBB DUP15 ISZERO SMOD AND MCOPY 0xED 0xFC PUSH24 0xB9854C4006765028FB64736F6C634300081E003300000000 "
		},
		"gasEstimates": {
			"creation": {
				"codeDepositCost": "761400",
				"executionCost": "790",
				"totalCost": "762190"
			},
			"external": {
				"createSimpleStorage()": "infinite",
				"listOfSimpleStorage(uint256)": "infinite",
				"sfGet(uint256)": "infinite",
				"sfStore(uint256,uint256)": "infinite"
			}
		},
		"methodIdentifiers": {
			"createSimpleStorage()": "40d66b3b",
			"listOfSimpleStorage(uint256)": "a1786dbe",
			"sfGet(uint256)": "c5f19c20",
			"sfStore(uint256,uint256)": "1563700f"
		}
	},
	"abi": [
		{
			"inputs": [],
			"name": "createSimpleStorage",
			"outputs": [],
			"stateMutability": "nonpayable",
			"type": "function"
		},
		{
			"inputs": [
				{
					"internalType": "uint256",
					"name": "",
					"type": "uint256"
				}
			],
			"name": "listOfSimpleStorage",
			"outputs": [
				{
					"internalType": "contract SimpleStorage",
					"name": "",
					"type": "address"
				}
			],
			"stateMutability": "view",
			"type": "function"
		},
		{
			"inputs": [
				{
					"internalType": "uint256",
					"name": "_simpleStorageIndex",
					"type": "uint256"
				}
			],
			"name": "sfGet",
			"outputs": [
				{
					"internalType": "uint256",
					"name": "",
					"type": "uint256"
				}
			],
			"stateMutability": "view",
			"type": "function"
		},
		{
			"inputs": [
				{
					"internalType": "uint256",
					"name": "_simpleStorageIndex",
					"type": "uint256"
				},
				{
					"internalType": "uint256",
					"name": "_newSimpleStorage",
					"type": "uint256"
				}
			],
			"name": "sfStore",
			"outputs": [],
			"stateMutability": "nonpayable",
			"type": "function"
		}
	]
}